:020000040800F2
:1000000060060020010100089B1B0008031900087E
:10001000991B0008A5020008D92100080000000073
:10002000000000000000000000000000292000087F
:10003000A702000800000000F91E00082B2000089D
:100040001B0100081B0100081B0100081B01000820
:100050001B0100081B0100081B0100081B01000810
:100060001B0100081B0100081B0100081B01000800
:100070001B0100081B0100081B0100081B010008F0
:100080001B0100081B0100081B0100081B010008E0
:100090001B0100081B0100081B0100081B010008D0
:1000A0001B0100081B0100081B0100081B010008C0
:1000B0001B0100081B0100081B0100081B010008B0
:1000C0001B0100081B0100081B0100081B010008A0
:1000D0001B0100081B0100081B0100081B01000890
:1000E0001B0100081B0100081B010008DFF80CD0F1
:1000F00000F040F800480047A923000860060020EF
:100100000648804706480047FEE7FEE7FEE7FEE7B1
:10011000FEE7FEE7FEE7FEE7FEE7FEE7A7200008B2
:10012000ED000008D2B201E000F8012B491EFBD21D
:1001300070470022F6E710B513460A4604461946F2
:10014000FFF7F0FF204610BD30B50B4601460020FA
:100150002022012409E021FA02F59D4205D303FA89
:1001600002F5491B04FA02F52844151EA2F101020A
:10017000F1DC30BD064C074D06E0E06840F00103BD
:1001800094E8070098471034AC42F6D3FFF7B2FF6B
:10019000402500086025000870B5044600688168A5
:1001A000C943C90717D1816821F00101816000F0BE
:1001B00041FC05460AE000BF00F03CFC401B022861
:1001C00004D920688068C043C00706D020688068D2
:1001D000C043C007F0D0002070BDA06A40F01000FE
:1001E000A062E06A40F00100E062012070BD000002
:1001F000F8B500260446009600688168C943C9071F
:100200002DD0816841F001018160164816490068CF
:10021000B0FBF1F000E0401E00900028FBD100F0A0
:1002200009FC054616E000BF00F004FC401B022854
:1002300010D920688068C043C0070BD0A06A40F086
:100240001000A062E06A40F00100E06284F82460DF
:100250000120F8BD20688068C043C007E4D10020B9
:10026000F8BD00001000002040420F000EB56946A6
:1002700000900120019005200290094800F082F8CA
:1002800008B172B6FEE7064800F068FA4FF0FF3199
:10029000034800F0C5F9024800F0F2F880B20EBD44
:1002A00048000020FEE7704772B6FEE7F8B500256B
:1002B0000446009590F8240001280BD0012084F812
:1002C00024002046FFF768FF2046FFF791FF060055
:1002D00002D050E00220F8BDA06A20F4885040F01F
:1002E0000200A062022000F045FD25490968B1FB2B
:1002F000F0F0400000E0401E00900028FBD1206894
:10030000816841F00801816000F094FB074608E035
:1003100000F090FBC01B0A2803D920688068000702
:1003200015D4206880680007F2D42068816841F005
:100330000401816000F07EFB074612E000F07AFBCA
:10034000C01B0A280DD920688068400709D5A06A1B
:1003500020F0020040F01000A06284F82450012038
:10036000F8BD206880684007E8D4A06A20F0020049
:1003700040F00100A06284F824503046F8BD00002F
:1003800010000020F8B50024009490F824202546A1
:10039000012A12D0012280F824204A681F23072A4C
:1003A0000DD20668776B521E02EB820293409F4388
:1003B0000B6893401F43776319E00220F8BD06687D
:1003C0000D2A0AD2376BD21F02EB820293409F4361
:1003D0000B6893401F43376309E0F76A0D3A02EB5D
:1003E000820293409F430B6893401F43F7620A6861
:1003F000072306680A2A0AD3F7680A3A02EB420280
:1004000093409F438B6893401F43F76008E0376930
:1004100002EB420293409F438B6893401F43376136
:100420000A68102A01D0112A20D1124B02689A4280
:1004300017D193681B0219D4936843F400039360A7
:100440000968102912D10C490C4A0968B1FBF2F174
:1004500001EB8101490000E0491E00910029FBD118
:1004600004E0816A41F020018162012480F8245077
:100470002046F8BD002401401000002040420F003B
:100480000068C06C704700002DE9F0414FF0000794
:1004900004003D467ED0A06A002628B9E66284F8B2
:1004A0002460204600F07EF82046FFF775FEA16A22
:1004B000C90600D420B1A06A40F01000A06269E033
:1004C000A16A21F4885141F00201A1626268E169E8
:1004D000237B0A4347EA43010A43A1684FF480772C
:1004E000B94209D0012907D05FF0000194F814C087
:1004F000BCF1010F02D00AE03946F7E7F3B1A36A75
:1005000043F02003A362E36A43F00103E36223683C
:10051000D3F804C02CF4694C4CEA010CC3F804C0B5
:1005200021688B68DFF870C003EA0C0313438B600B
:10053000A168B9420BD0012909D00CE0DFF85CC0FA
:10054000A3690CEB43330B4343F40061DFE7218ADB
:100550000D05A5F580152168CB6A23F470032B43A4
:10056000CB62216889680E4B1940914208D1E6623E
:10057000A16A21F0020141F00101A162BDE8F08110
:10058000A06A20F0020040F01000A062E06A40F093
:100590000100E0620120F1E7FDF7E1FF00E0FFFF6D
:1005A000FE0E1FFF10B586B000210091019102914F
:1005B000039100681649884227D11648816941F4A1
:1005C00000718161816901F400710491816941F0D8
:1005D00004018161816901F004010491816941F0A4
:1005E000080181618069032400F008000490532011
:1005F000CDE900046946084800F022F90120CDE960
:1006000000046946054800F01BF906B010BD000063
:10061000002401400010024000080140000C01408D
:100620002DE9F84300270D460446009700F002FA32
:10063000804620688168C90508D5A06A40F020007E
:10064000A06284F824700120BDE8F8834168C905E0
:1006500003D4C06A10F4700F2AD0022000F08AFB85
:100660003B490968B1FBF0F62068036939490B4240
:100670004FEA61014FEAA1121FD1C3684FEA611C22
:1006800013EA0C0F19D103690B4225D1C06810423F
:1006900022D1142023E0681C0AD02DB100F0CAF941
:1006A000A0EB0800A84203D920680068800725D580
:1006B000206800688007EED52DE003690B4202D167
:1006C000C168114206D0026923490A4206D1C068B6
:1006D000084203D1542002E0292000E0FC204643D8
:1006E000009816E0681C11D02DB100F0A3F9A0EB22
:1006F0000800A8420AD90098B04207D2A06A40F088
:100700000400A06284F8247003209DE70098401C38
:100710000090B042E6D321686FF012000860A06A32
:1007200040F40070A06220688068C0F3424007284F
:100730000CD1207B50B9A06A20F48070A062A06A1E
:10074000C00403D4A06A40F00100A06200207BE74F
:1007500010000020244992244992240070B50446D8
:1007600090F8240001280DD0012084F824002046B0
:10077000FFF73EFD02004FF0000005D084F8240092
:10078000104670BD022070BDA16A40F2012399435A
:1007900041F48071A1621F4D23681F49AB4218D1FB
:1007A0000E6816F4702F14D0A66A46F48016A6625E
:1007B0000E68760505D5A66A26F4005646F48056DE
:1007C000A662A66AF6040AD5E66A26F00606E6627E
:1007D00006E0A66A26F48016A6625E68E9E7E06293
:1007E00084F824006FF00200186020688368C3F367
:1007F0004243072B05D1A84208D1096811F4702F94
:1008000004D0816841F480118160B9E7816841F4C6
:10081000A001F9E7002801400424014070B5044616
:1008200000F008F90546601C02D004480078044432
:1008300000F000F9401BA042FAD370BD0400002074
:100840002DE9F84FDFF8B8910024A9F1040B2346F5
:100850000F2709F1040AABF1040EC9E00125A540F8
:100860002A40AA427DD1674ED1F804C0ACEB0608FD
:10087000B44532D014DCBCF1030F3AD009DCBCF132
:10088000000F2AD0BCF1010F1CD0BCF1020F31D1F6
:100890001DE0BCF1110F17D0BCF1120F2AD119E0E5
:1008A000B8F5881F19D006DCB8F5803F15D0B8F52B
:1008B000801F1FD111E0B8F5001F0ED0B8F5041F3E
:1008C00018D10AE0CB6815E0CB681B1D12E0CB689D
:1008D00008330FE0CB680C330CE08B682BB1012B95
:1008E0004FF0080303D0456104E0042302E00561F2
:1008F00000E00023FF2A01D8064601E000F10406CB
:100900004FEA840501D9A5F12005D6F8008007FA41
:1009100005FC28EA0C0803FA05F548EA0508C6F8BC
:1009200000804D68ED0062D5374DAE6946F0010696
:10093000AE61AD6924F0030605F001050095334D65
:1009400006EB050CDCF80850A607360F07FA06F888
:1009500025EA0805DFF8B880404503D14FF00008CC
:1009600017E044E0DFF8AC80404502D14FF00108C9
:100970000FE0DFF8A480404502D14FF0020808E004
:10098000DFF89880404502D14FF0030801E04FF0B6
:10099000040808FA06F848EA0508CCF808804D680B
:1009A000D9F80060ED024D4601D5164300E09643AC
:1009B0002E604D68DAF80060AD02554601D5164349
:1009C00000E096432E604D68DBF80060AD035D46A5
:1009D00001D5164300E096432E604D68DEF80060B6
:1009E000ED03754601D5164300E096432E60641C66
:1009F0000D682A46E5407FF431AFBDE8F88F00006E
:100A000008040140000011100010024000000140E5
:100A100000080140000C014000100140001401409A
:100A20008068084000D0012070470AB1016170471A
:100A30000904FBE7014880687047000004000020BB
:100A400070B5040025D094F83D00002520B984F845
:100A50003C50204600F0B8F8242084F83D0020687F
:100A6000016821F0010101602068016841F4004142
:100A700001602068016821F40041016000F0D8FAAB
:100A80004D4A6168914201D84C4900E04C49884286
:100A900001D2012070BD4B492368B0FBF1F15E68C3
:100AA00026F03F060E435E606368934206D94FF41A
:100AB000967359434FF47A73B1FBF3F12368491CE1
:100AC0001E6A26F03F06314319626168914210D8D0
:100AD0004900401EB0FBF1F2521CC2F30B02042A83
:100AE00001D2042022E0B0FBF1F0401CC0F30B0067
:100AF0001CE0A268F2B301EBC10303EB0116431E35
:100B0000B3FBF6F35B1C43F480431B0549D092B35F
:100B100001EBC10202EB0111401EB0FBF1F0401CE1
:100B2000C0F30B0040F4804040F400402168CA69E3
:100B30004CF6FF739A431043C861D4E90710014390
:100B40002068026822F0C00211430160D4E9030169
:100B500001432068826848F2FF339A431143816061
:100B6000D4E9050108432168CA6822F0FF02104356
:100B7000C86001E00EE016E02068016841F0010164
:100B800001602564202084F83D00256384F83E50F0
:100B9000002070BD01EB4106431EB3FBF6F35B1C66
:100BA000B3E70120C2E701EB4101401EB0FBF1F0C9
:100BB000401CC0F30B00B7E7A086010080841E0034
:100BC00000093D0040420F0030B585B00021009182
:100BD0000191029103911E4D03681E4C12210322C4
:100BE0001D48AB4216D1A36943F00803A361A36972
:100BF000039203F008030493C023CDE90031694652
:100C0000FFF71EFEE06940F40010E061E06900F4C7
:100C1000001019E0114DAB4217D1A36943F008034E
:100C2000A361A369039203F0080304934FF44063A4
:100C3000CDE900316946FFF703FEE06940F480002A
:100C4000E061E06900F48000049005B030BD000070
:100C50000054004000100240000C014000580040C9
:100C600002488168027811448160704704000020C6
:100C7000074810B5016841F010010160032000F041
:100C800067F80F2000F006F800F024F8002010BDEF
:100C90000020024070B50D4D04464FF47A7128785B
:100CA000B1FBF0F00A490968B1FBF0F000F03FFD3C
:100CB00048B9102C07D200222146501E00F028F817
:100CC00000206C6070BD012070BD00000400002099
:100CD000100000200C4808B5816941F001018161D4
:100CE000816901F001010091C16941F08051C16148
:100CF000C06900F0805000900448416821F0E06134
:100D000041F00071416008BD001002400000014048
:100D1000F0B40E4B1B680C46C3F30223C3F1070566
:100D2000042D00D90425191D072901D2002300E054
:100D3000DB1E012606FA05F1491E214099409E401E
:100D4000761E16403143F0BC01F058BA0CED00E0BD
:100D5000064900F0070208684FF6FF03184040EA12
:100D60000220034A10430860704700000CED00E0C9
:100D70000000FA0510B501460020234C012922D0BD
:100D8000022939D010291DD161682268D20119D5F4
:100D90001E48C1F38342C903805C0AD561681B4ABF
:100DA000C1F34041921E515C194AB2FBF1F1484334
:100DB00001E0184948436168490203D44000032117
:100DC000B0FBF1F010BD226AC2F30121012903D169
:100DD000920701D5C80310BD022905D1626A9207A6
:100DE00002D549F6404010BD0329FCD12168890392
:100DF000F9D54FF2244010BD00F02AF96168C1F323
:100E00008131491C4900DBE7001002400C25000835
:100E100000127A0000093D002DE9F84305460078EC
:100E2000354CC00754D0E0690026C00008D4E06902
:100E300040F08050E061E069012600F080500090B1
:100E40002E480168C90512D40168804641F48071BA
:100E50000160FFF7EFFD074605E000BFFFF7EAFD81
:100E6000C01B642823D8D8F80000C005F6D5206A36
:100E700010F4407021D0A98801F4407181421CD047
:100E8000206A1F49012220F440700A6000220A6093
:100E90002062C00711D0FFF7CDFD074641F2883828
:100EA00008E000BFFFF7C6FDC11B414502D9032082
:100EB000BDE8F883206A8007F4D5206A696820F4C9
:100EC0004070084320621EB1E06920F08050E0616C
:100ED0002878800705D56068A96820F44040084359
:100EE00060602878C00605D56068E96820F4800055
:100EF000084360600020DBE7001002400070004003
:100F0000400442422DE9F0470F46050061D0434EB0
:100F1000306800F00700B84209D2306820F00700BE
:100F200038433060306800F00700B84251D128687B
:100F30003B4C810712D5400703D5606840F4E06060
:100F400060602878000703D5606840F460506060F6
:100F50006068A96820F0F000084360602878C00746
:100F600028D06868012810D02168022810D089078D
:100F700000292EDA616821F0030101436160FFF767
:100F800059FD804641F288390DE021688903EFE779
:100F90008901EDE7FFF74EFDA0EB0801494502D9B5
:100FA0000320BDE8F0876068696800F00C00B0EBD2
:100FB000810FEFD1306800F00700B8420BD93068DC
:100FC00020F0070038433060306800F00700B84276
:100FD00001D00120E5E72878400705D56068E96879
:100FE00020F4E060084360602878000706D5606858
:100FF000296920F4605040EAC100606000F038F8D0
:101000006168084AC1F30311515CC8400649086091
:1010100006480068FFF73EFE0020C2E700200240BD
:10102000001002401C2500081000002008000020CD
:101030000448054900684968044AC1F30221515C2B
:10104000C840704710000020001002402C25000806
:101050000448054900684968044AC1F3C221515C4B
:10106000C840704710000020001002402C250008E6
:101070000E4A51680E4801F00C03042B11D0082BC6
:101080000FD10C48C1F38343C903C05C0AD5516832
:10109000084AC1F34041921E515C054A5043B0FBDF
:1010A000F1F07047044948437047000000100240C7
:1010B00000127A00FA24000800093D002DE9F84FDB
:1010C000040070D02078C04DC00749D06868C0F3D4
:1010D0008100012807D06868C0F38100022809D187
:1010E0006868C00306D52868800339D56068002881
:1010F000E7D035E06068B0F5803F0BD010B1B0F5B7
:10110000A02F11D0286820F480302860286820F4AF
:10111000802002E0286840F480302860606890B148
:10112000FFF788FC06460AE0286840F48020286023
:10113000F0E700BFFFF77EFC801B642873D82868A7
:101140008003F7D50CE0FFF775FC064605E000BF0D
:10115000FFF770FC801B6428F0D828688003F7D460
:1011600020789A4E80074FF001094FF0000839D5DA
:10117000686810F00C0F07D06868C0F3810002287F
:1011800009D16868C00306D42868800714D520698F
:10119000012808D110E02069B0B1C6F80090FFF72F
:1011A00049FC074605E00AE1FFF744FCC01B0228A2
:1011B000C4D828688007F7D52868616920F0F8004E
:1011C00040EAC10028600DE0C6F80080FFF732FC5D
:1011D000074604E0FFF72EFCC01B022823D828682E
:1011E0008007F7D4207800072CD57948A169D9B1B8
:1011F000C0F80090FFF71EFC074604E0FFF71AFC5A
:10120000C01B02280FD8686A8007F7D571484FF4D1
:10121000FA510068B0FBF1F0009000BF0098411E49
:101220000091FAD20EE080E0C0F80080FFF702FCE7
:10123000074604E0FFF7FEFBC01B022875D8686A6A
:101240008007F7D42078400760D5E8690027C00000
:1012500008D4E86940F08050E861E869012700F0AF
:10126000805000905C480168C90513D4016883462A
:1012700041F480710160FFF7DDFB824606E000BFAC
:10128000FFF7D8FBA0EB0A0064284ED8DBF800007B
:10129000C005F5D5E06801280AD008B1052813D0AB
:1012A000286A20F001002862286A20F0040002E089
:1012B000286A40F001002862E06841F2883B98B15A
:1012C000FFF7B8FB82460BE0286A40F00400286272
:1012D000EEE700BFFFF7AEFBA0EB0A0159455AD875
:1012E000286A8007F6D50CE0FFF7A4FB824605E0EC
:1012F000FFF7A0FBA0EB0A0159454CD8286A8007EC
:10130000F6D41FB1E86920F08050E861E06988B345
:101310006968C1F38101022944D00228C6F86080BF
:1013200004D0FFF787FB044638E034E0FFF782FB88
:10133000074604E0FFF77EFBC01B02282BD8286875
:101340008001F7D4206AB0F5803F05D16868A168B4
:1013500020F4003008436860D4E908010843696854
:1013600021F4741108436860C6F86090FFF762FBCF
:10137000044606E025E000BFFFF75CFB001B0228E7
:1013800009D828688001F7D51BE000BFFFF752FBA2
:10139000001B022802D90320BDE8F88F28688001CD
:1013A000F4D40EE00128F7D06868226A00F4803196
:1013B000914204D1616A00F47010884201D001208A
:1013C000EAE70020E8E70000001002400000424287
:1013D00080044242100000200070004070B50400FC
:1013E00009D0606A002540B125616561A56294F865
:1013F000510040B10CE0012070BD6068B0F5827F03
:10140000F4D0E561F2E784F85050204600F040F84F
:10141000022084F851002068016821F04001016039
:10142000A088218900F4827001F404410843A18955
:1014300001F400610843217C01F002010843217D91
:1014400001F001010843218B01F400710843217F61
:1014500001F03801084394F8201001F0800108439E
:10146000218D01F40051084321680860A06904211E
:1014700001EA1040216848602068C16921F40061D8
:10148000C1616565012084F85100002070BD000035
:1014900030B585B000240094019402940394234D48
:1014A0000368234802210322AB4216D1836943F427
:1014B00080538361836903F480530493836943F009
:1014C000040383618069039200F004000490A0206B
:1014D000CDE900016946174823E0174DAB4222D100
:1014E000C36943F48043C361C36903F48043049335
:1014F000836943F0080383618069104D00F00800A0
:1015000004904FF42040CDE900010392694628463B
:10151000FFF796F94FF48040CDE90004694628466C
:101520000294FFF78DF905B030BD00000030014096
:10153000001002400008014000380040000C01404B
:101540002DE9FF4F81B0044690F8500000260E9F11
:101550001D4693464FF0010901280FD04FF0010AB4
:1015600084F850A0FFF766FA804694F8510061684D
:1015700001280DD0B1F5827F08D103E0022005B02B
:10158000BDE8F08FA16809B9042801D00226C9E09E
:101590000298002865D0BBF1000FFBD0002DF9D0D8
:1015A00094F85100042802D0052084F8510000204E
:1015B0006065C4F838B0E587A58702992163E586A0
:1015C000A5862064606420680168490603D4016828
:1015D00041F040010160E068B0F5006F606803D041
:1015E000F0B3012D47D081E008B1012D3CD1206B33
:1015F00021680088C860206B801C2063E08E401E3C
:10160000E08631E02068816889070FD5E18E69B1F5
:10161000B9F1010F0AD1216B0988C160206B801CD0
:101620002063E08E401EE0864FF00009206881684C
:10163000C9070CD0E18F51B1C068A16B0880A06BC5
:10164000801CA063E08F401EE0874FF00109FFF788
:10165000F1F9A0EB0800B84206D3781C04D001E0F1
:1016600009E05BE003265BE0E08E0028CAD1E08F52
:101670000028C7D140E0206B216800780873206BF8
:10168000401C2063E08E401EE0862FE020688168C9
:1016900089070FD5E18E69B1B9F1010F0AD1216B2C
:1016A00009780173206B401C2063E08E401EE086A9
:1016B0004FF0000920688168C9070CD0E18F51B153
:1016C000C068A16B0870A06B401CA063E08F401E37
:1016D000E0874FF00109FFF7ADF9A0EB0800B84231
:1016E00002D3781C02D0BAE7002FB8D0E08E0028D1
:1016F000CCD1E08F0028C9D142463946204600F0BF
:1017000017FC18B10126202060650BE0A06818B90D
:101710002068C16880680090606D08B1012601E012
:1017200084F851A0002084F85000304627E710B517
:10173000401EB0F1807F01D3012010BD4FF0E024A6
:1017400060610F21601700F059FD0020A0610720A3
:101750002061002010BD70B5040004D094F8410051
:10176000002510B106E0012070BD84F840502046ED
:1017700000F024F8242084F841002068C16821F496
:101780000051C160204600F08FFC2068016921F4FF
:10179000904101612068416921F02A01416120687E
:1017A000C16841F40051C1606564202084F84100A3
:1017B00084F842006563002070BD000070B586B0FB
:1017C00000240094019402940394234E0368234957
:1017D00002200322224DB34219D18B6943F4804386
:1017E0008B618B6903F4804304938B6943F004039A
:1017F0008B618969039201F0040104910102CDE932
:10180000001069462846FFF71BF828151BE0154E07
:10181000B3421FD1CB6943F40033CB61CB6903F4EE
:10182000003304938B6943F004038B61896903924D
:1018300001F0040104910421CDE900106946284615
:10184000FEF7FEFF0820CDE9000469462846029411
:10185000FEF7F6FF06B070BD0038014000100240F0
:1018600000080140004400402DE9F843044690F888
:1018700041001F4616460D46202802D00220BDE832
:10188000F8837DB176B100206064212084F84100A6
:10189000FFF7D0F8A6848046E684A068B0F5805FA4
:1018A00002D003E00120EAE7206910B12E460025AE
:1018B0000EE000260CE08021204600F051FCA0B98B
:1018C000AEB116F8010B21684860E08C401EE08440
:1018D000E08C43464FF0000200970028EBD14FF018
:1018E0004001204600F03CFC30B10320C7E735F84A
:1018F000020BC0F30800E6E7202084F84100002036
:10190000BDE7FEE7FEB50024234800940194214979
:10191000029401608915816004730125057505260F
:1019200006614FF460214460C0E90651FEF7ACFD4A
:1019300008B1FEF7B9FCCDE90045694616480294A6
:10194000FEF720FD08B1FEF7AFFC022001906946CA
:101950001148FEF717FD08B1FEF7A6FC0320019021
:1019600069460D48FEF70EFD08B1FEF79DFC042008
:10197000019069460848FEF705FD08B1FEF794FCA2
:10198000694605480196FEF7FDFC002801D0FEF7E8
:101990008BFCFEBD002401404800002030B585B01E
:1019A00000241C480094019402940394816941F03E
:1019B00020018161816901F020010491816941F078
:1019C00004018161816901F004010491816941F0A0
:1019D000080181618069104D00F008000490002228
:1019E00002212846FFF721F802210120CDE900104D
:1019F000CDE9024169462846FEF722FF4FF49C706C
:101A0000CDE90004694628460294FEF719FF05B0A7
:101A100030BD000000100240000C01400D4810B520
:101A20000B4901600C49416000214FF48042816004
:101A3000C0E9031241618161C1610162FFF700F8F1
:101A4000002803D0BDE81040FEF72EBC10BD0000FA
:101A50000054004078000020A08601000D4810B519
:101A60000B4901600C49416000214FF480428160C4
:101A7000C0E9031241618161C1610162FEF7E0FFCB
:101A8000002803D0BDE81040FEF70EBC10BD0000DA
:101A900000580040CC000020A0860100104810B57E
:101AA0000E4901604FF48271416000218160C16084
:101AB0004FF400720161C0E905121022C0E907214C
:101AC000416281620A21C162FFF788FC002803D0CD
:101AD000BDE81040FEF7E8BB10BD0000003001403B
:101AE000200100200F4810B50D4901604FF48271AC
:101AF000416000218160C1604FF400720161C0E962
:101B00000512C1610162416281620A21C162FFF76F
:101B100065FC002803D0BDE81040FEF7C5BB10BD32
:101B200000380040780100200C4810B50A490160D7
:101B30004FF4E1314160002181600C22C160C0E9B5
:101B400004128161C161FFF706FE002803D0BDE8E1
:101B50001040FEF7A9BB10BD00380140D0010020A5
:101B60000C4810B50A4901604FF4E1314160002191
:101B700081600C22C160C0E904128161C161FFF77C
:101B8000EAFD002803D0BDE81040FEF78DBB10BD74
:101B90000044004018020020FEE7FEE71CB510A13B
:101BA000D1E90001CDE90001082000F0A7F90522E4
:101BB0006946302000F058F905226946102000F0EF
:101BC00089F8002069460A5CA52A03D1401CC0B2EE
:101BD0000528F8D3052801D001201CBD00201CBD1C
:101BE000A5A5A5A5A50000001A4810B5816986B075
:101BF00041F0040181618069694600F004000490AD
:101C00004FF480500090002001901348FEF718FE1A
:101C100000F0A4F800224FF400411048FEF705FF41
:101C2000012202210E48FEF700FF0EA000F0D6FAB6
:101C30004FF47A7405E017A000F0D0FA2046FEF7C2
:101C4000EDFDFFF7ABFF0028F5D11AA000F0C6FAB2
:101C500006B010BD00100240000801400010014015
:101C6000000C0140D5E2CAC7D2BBB8F64E5246328C
:101C7000344C303120322E3447CEDECFDFCAFDBEA9
:101C8000DDB4ABCAE4C4A3BFE9B2E2CAD4CAB5D1D9
:101C9000E90D0A00D3B2BCFEB2E9D1B0B2BBB5BD0A
:101CA0004E524632344C3031CEDECFDFC4A3BFE9D2
:101CB0000D0A00004E524632344C3031CEDECFDFBA
:101CC000C4A3BFE9D3B2BCFEC1ACBDD3D5FDB3A3A1
:101CD0000D0A00002DE9F041DFF8408015460F465F
:101CE0000446002202214046FEF79FFE21460C4892
:101CF00000F08AF90646002406E0FF21084800F0BB
:101D000083F93855641CE4B2AC42F6D301220221B7
:101D10004046FEF78AFE3046BDE8F081000C0140E7
:101D20007801002070B50B4D0446002202212846A0
:101D3000FEF77BFE2146084800F066F9FF210648C1
:101D400000F062F90446012202212846FEF76DFEEA
:101D5000204670BD000C01407801002010B5094CF0
:101D60002068016821F0400101600020206160616D
:101D70002046FFF733FB2068016841F04001016015
:101D800010BD00007801002070B51A4D4FF40044DA
:101D9000002221462846FEF748FE0522164930203B
:101DA00000F062F814490522491D2A2000F05CF871
:101DB0000121212000F082F80121222000F07EF88C
:101DC000FF21242000F07AF82821252000F076F861
:101DD0000F21262000F072F80E21202000F06EF86E
:101DE000012221462846FEF720FEBDE87040012072
:101DF000FEF714BD001001403425000870B50546FB
:101E0000102000F07BF8174C4FF4004600223146BA
:101E10002046FEF70AFE20222946A02000F024F8E2
:101E2000012231462046FEF700FE75102946204665
:101E3000FEF7F6FD0028F9D10720FFF773FF0446EF
:101E40000146272000F03AF8E00605D5FF21E12001
:101E500000F034F8102070BDA00601D5202070BD20
:101E6000FF2070BD001001402DE9F041DFF84480F3
:101E700016460D460446002202214046FEF7D5FDD7
:101E800021460D4800F0C0F80746002407E000BFD7
:101E900015F8011B084800F0B7F8641CE4B2B4421E
:101EA000F6D3012202214046FEF7BFFD3846BDE8C9
:101EB000F0810000000C01407801002070B50C4D4D
:101EC0000E460446002202212846FEF7AEFD2146BA
:101ED000084800F099F804463146064800F094F8A6
:101EE000012202212846FEF7A0FD204670BD000019
:101EF000000C014078010020704700000B4910B52C
:101F00000A68136823F0400313600A6813684FF6E9
:101F1000C774234013600A6813680343136008689A
:101F2000016841F04001016010BD0000780100200F
:101F300038B50B46009204460022802100F008F8D4
:101F4000002804D0606D40F020006065032038BD9B
:101F50002DE9F8431E46914688460446089DFEF743
:101F600069FD401B351AFEF765FD074625480068E8
:101F7000C0F3CB30684338E0701C37D0FEF75AFD11
:101F8000C01BA84203D215B1009860B32CE02068B2
:101F9000416821F0E00141606068B0F5827F0BD1BB
:101FA000A068B0F5004F02D0B0F5806F04D1206872
:101FB000016821F040010160A06AB0F5005F09D11D
:101FC0002068016821F4005101602068016841F433
:101FD00000510160012084F85100002084F8500075
:101FE0000320BDE8F8830025401E0090206881682A
:101FF00038EA010004D000214945BDD10020F0E7B6
:102000000121F9E7100000203EB5FF248DF80810EB
:10201000012301AA02A90094FFF792FA08B18DF8F2
:1020200004409DF804003EBD7047FEF719BE30B570
:1020300093B028216846FEF77CF814210AA8FEF721
:1020400078F8002501200F9510951195010412953F
:102050008DE8230004904FF4E010CDE9081002242D
:1020600007946846FFF72AF808B172B6FEE70AA996
:102070000F2081E831004FF48060CDE90D05022189
:102080000AA8FEF73FFF08B172B6FEE74FF4004022
:1020900011900F940FA8FEF7BFFE002801D072B672
:1020A000FEE713B030BD704770B5044600680169A3
:1020B000E26821F44051114301612169A06808439D
:1020C000616908432168CA6841F20C639A4302437C
:1020D000CA6020684169A26921F4407111434161DD
:1020E0001E492068884202D1FEF7B2FF01E0FEF7E8
:1020F0009FFF00EBC00101EB0012606864218000CB
:10210000B2FBF0F3B3FBF1F36FF018067343B2FBCD
:10211000F0F5B2FBF0F605EB8305322303EB051572
:10212000B5FBF1F5B6FBF1F605F0F00505EB06158C
:10213000B2FBF0F6B2FBF0F0B0FBF1F06FF018027A
:10214000504306EB800003EB0010B0FBF1F0216878
:1021500000F00F002844886070BD00000038014086
:102160002DE9F041984617460E460446069D27E0A5
:10217000681C25D02DB1FEF75DFCA0EB0800A8423D
:102180001ED920680C3050E8001F21F4D07140E8BF
:102190000012002AF5D12068143050E8001F21F009
:1021A000010140E80012002AF5D1202084F8410006
:1021B00084F84200002084F840000320BDE8F0814C
:1021C0002068006836EA000004D00020B842CFD072
:1021D0000020F3E70120F9E7FEE700000FB4054B0C
:1021E00010B503A9044A029800F028F810BC5DF865
:1021F00014FB000091230008140000200907090EB9
:10220000002804DB00F1E02080F80014704700F0A3
:102210000F0000F1E02080F8141D704702E008C8AC
:10222000121F08C1002AFAD170477047002001E050
:1022300001C1121F002AFBD1704700002DE9FF4F9A
:1022400089B09B460446002506E025280BD05A4657
:102250000B999047641C6D1C20780028F5D10DB0B7
:102260002846BDE8F08F0027B8460122474900E024
:10227000074314F8013F203B02FA03F00842F7D16C
:1022800020782E2819D114F8010F47F004072A28C6
:102290000ED06FF02F022078A0F1300109290CD860
:1022A00008EB880102EB410100EB0108641CF2E736
:1022B0000A98641C50F8048B0A9020780028CED02D
:1022C000642808D0692806D075281ED05A460B9974
:1022D00090476D1C58E00A994FF00A0901C90A910C
:1022E000002802DA40422D2102E0390504D52B21D5
:1022F0008DF82010012103E0F90704D02021F7E731
:102300008A4608AE0DE00021FAE70A994FF00A0963
:1023100001C90A91F7E74946FDF716FF303106F883
:10232000011D0028F7D1ADEB060000F12009780768
:1023300001D44FF00108C84502DDA8EB090000E018
:1023400000208046002706E008A85A46C05D0B9989
:1023500090476D1C7F1C5745F6DB04E030205A4641
:102360000B9990476D1CB8F10001A8F10108F5DC4C
:1023700005E016F8010B5A460B9990476D1CB9F110
:102380000001A9F10109F4DC641C65E709280100DA
:1023900013B5FF23012269460248FFF765FA00984A
:1023A0001CBD000018020020FEF762FCFFF73FFE94
:1023B000FFF7F4FAFFF7A6FAFFF730FBFFF74EFB43
:1023C000FFF76CFBFFF78EFBFFF7AEFBFFF7C8FBD9
:1023D0003348FDF76BFFFFF707FCFFF7D5FCDFF88D
:1023E000C890DFF8C0A001264FF0510BA9F12208D8
:1023F00000250020FDF73AFFA9F800004C46012017
:10240000FDF734FF60800420FDF730FFA080062038
:10241000FDF72CFFE080202157465046FEF700FBD9
:1024200001281FD084F808504FF480713846FEF719
:10243000F7FA012818D0657284F80AB0D8F822108B
:10244000C8F80010D8F82610C8F804101648D8F8B4
:102450002A10C8F808102238FFF7D0FC202805D031
:1024600012A016E02672DFE76672E5E717A0FFF715
:10247000B5FE1F4C0C4F2570223F2078395C1DA003
:10248000FFF7ACFE2078401CC0B220702128F4D3A6
:102490000DA0FFF7A3FE3220FEF7C0F9A9E7000068
:1024A00048000020000C01403A0000204E52463205
:1024B000344C3031CEDECFDFC4A3BFE9CAFDBEDD70
:1024C000B7A2CBCDCAA7B0DC0D0A00004E524632EF
:1024D000344C3031CEDECFDFC4A3BFE9CAFDBEDD50
:1024E000B7A2CBCDB3C9B9A6A3BA0D0A00000000AC
:1024F00000000020257520000102020304050607E4
:1025000008090A0B0C0D0E0F10100102020304053E
:10251000060708090A0B0C0D0E0F10100000000032
:102520000000000001020304060708090000000083
:102530000102030434431010013443101001000061
:102540006025000800000020180000001C22000880
:102550007825000818000020480600002C220008FA
:10256000000000000100000010000000000000005A
:082570000024F400000000004B
:04000005080000ED02
:00000001FF
