:020000040800F2
:10000000280700208901000847100008C90E0008D1
:10001000451000088F0200080D13000800000000C2
:10002000000000000000000000000000DB100008DD
:100030009102000800000000D9100008DD1000083F
:10004000A3010008A3010008A3010008A301000800
:10005000A3010008A3010008A3010008A3010008F0
:10006000A3010008A3010008A3010008A3010008E0
:10007000A3010008A3010008A3010008A3010008D0
:10008000A3010008A3010008A3010008A3010008C0
:10009000A3010008A3010008A3010008A3010008B0
:1000A000A3010008A3010008A3010008A3010008A0
:1000B000A3010008A3010008A3010008A301000890
:1000C000A3010008A3010008A3010008A301000880
:1000D000A3010008A3010008A3010008A301000870
:1000E000A3010008A3010008A301000800F002F822
:1000F00000F03AF80AA090E8000C82448344AAF188
:100100000107DA4501D100F02FF8AFF2090EBAE885
:100110000F0013F0010F18BFFB1A43F0010318473B
:10012000F417000014180000103A24BF78C878C1F2
:10013000FAD8520724BF30C830C144BF04680C60ED
:10014000704700000023002400250026103A28BF35
:1001500078C1FBD8520728BF30C148BF0B60704739
:100160001FB51FBD10B510BD00F058F81146FFF7C0
:10017000F7FF01F0E7F800F076F803B4FFF7F2FFBD
:1001800003BC00F07DF8000009488047094800479B
:10019000FEE7FEE7FEE7FEE7FEE7FEE7FEE7FEE737
:1001A000FEE7FEE704480549054A064B7047000094
:1001B0003F110008ED00000828010020280700205A
:1001C00028030020280300204FF0000200B513464A
:1001D00094469646203922BFA0E80C50A0E80C5067
:1001E000B1F12001BFF4F7AF090728BFA0E80C5018
:1001F00048BF0CC05DF804EB890028BF40F8042B11
:1002000008BF704748BF20F8022B11F0804F18BF7D
:1002100000F8012B7047704770477047754600F033
:100220002BF8AE4605006946534620F00700854688
:1002300018B020B5FFF7B6FFBDE820404FF000062C
:100240004FF000074FF000084FF0000B21F00701BE
:10025000AC46ACE8C009ACE8C009ACE8C009ACE801
:10026000C0098D46704710B50446AFF300802046A4
:10027000BDE81040FFF781BF00487047C80000206C
:1002800001491820ABBEFEE7260002007047FEE7DA
:10029000704772B6FEE7000070B5044600F004F93E
:1002A0000546601C02D004480078044400F0FCF8C5
:1002B000401BA042FAD370BD0C0000202DE9F84F7E
:1002C000DFF8B8910024A9F1040B23460F2709F1A8
:1002D000040AABF1040EC9E00125A5402A40AA4258
:1002E0007DD1674ED1F804C0ACEB0608B44532D0DE
:1002F00014DCBCF1030F3AD009DCBCF1000F2AD0AA
:10030000BCF1010F1CD0BCF1020F31D11DE0BCF1DA
:10031000110F17D0BCF1120F2AD119E0B8F5881FC0
:1003200019D006DCB8F5803F15D0B8F5801F1FD175
:1003300011E0B8F5001F0ED0B8F5041F18D10AE07F
:10034000CB6815E0CB681B1D12E0CB6808330FE0CB
:10035000CB680C330CE08B682BB1012B4FF00803FA
:1003600003D0456104E0042302E0056100E00023BE
:10037000FF2A01D8064601E000F104064FEA840591
:1003800001D9A5F12005D6F8008007FA05FC28EA76
:100390000C0803FA05F548EA0508C6F800804D6820
:1003A000ED0062D5374DAE6946F00106AE61AD692C
:1003B00024F0030605F001050095334D06EB050C0E
:1003C000DCF80850A607360F07FA06F825EA0805F4
:1003D000DFF8B880404503D14FF0000817E044E053
:1003E000DFF8AC80404502D14FF001080FE0DFF8A4
:1003F000A480404502D14FF0020808E0DFF8988061
:10040000404502D14FF0030801E04FF0040808FA1C
:1004100006F848EA0508CCF808804D68D9F800606D
:10042000ED024D4601D5164300E096432E604D681F
:10043000DAF80060AD02554601D5164300E0964358
:100440002E604D68DBF80060AD035D4601D51643B4
:1004500000E096432E604D68DEF80060ED037546BF
:1004600001D5164300E096432E60641C0D682A46B1
:10047000E5407FF431AFBDE8F88F0000080401408B
:10048000000011100010024000000140000801406F
:10049000000C014000100140001401400AB101614C
:1004A00070470904FBE700000148806870470000BE
:1004B0000C00002002488168027811448160704776
:1004C0000C000020074810B5016841F010010160E0
:1004D000032000F067F80F2000F006F800F024F881
:1004E000002010BD0020024070B50D4D04464FF4B1
:1004F0007A712878B1FBF0F00A490968B1FBF0F095
:1005000000F0AEFA48B9102C07D200222146501E46
:1005100000F028F800206C6070BD012070BD000064
:100520000C000020180000200C4808B5816941F03B
:1005300001018161816901F001010091C16941F00E
:100540008051C161C06900F080500090044841684A
:1005500021F0E06141F00071416008BD00100240EF
:1005600000000140F0B40E4B1B680C46C3F302239D
:10057000C3F10705042D00D90425191D072901D24F
:10058000002300E0DB1E012606FA05F1491E21408A
:1005900099409E40761E16403143F0BC00F0B7BE35
:1005A0000CED00E0064900F0070208684FF6FF0373
:1005B000184040EA0220034A1043086070470000D8
:1005C0000CED00E00000FA052DE9F0470F460500AC
:1005D00061D0434E306800F00700B84209D230685D
:1005E00020F0070038433060306800F00700B84260
:1005F00051D128683B4C810712D5400703D560686C
:1006000040F4E06060602878000703D5606840F43B
:10061000605060606068A96820F0F0000843606086
:100620002878C00728D06868012810D021680228DF
:1006300010D0890700292EDA616821F003010143F7
:100640006160FFF731FF804641F288390DE0216893
:100650008903EFE78901EDE7FFF726FFA0EB08012B
:10066000494502D90320BDE8F0876068696800F059
:100670000C00B0EB810FEFD1306800F00700B842FA
:100680000BD9306820F0070038433060306800F044
:100690000700B84201D00120E5E72878400705D5DA
:1006A0006068E96820F4E06008436060287800072B
:1006B00006D56068296920F4605040EAC100606096
:1006C00000F018F86168084AC1F30311515CC84092
:1006D0000649086006480068FFF706FF0020C2E7E9
:1006E00000200240001002400419000818000020F9
:1006F000100000200E4A51680E4801F00C03042B34
:1007000011D0082B0FD10C48C1F38343C903C05C3F
:100710000AD55168084AC1F34041921E515C054A0E
:100720005043B0FBF1F07047044948437047000064
:100730000010024000127A00F418000800093D0081
:100740002DE9F84F040070D02078C04DC00749D083
:100750006868C0F38100012807D06868C0F3810091
:10076000022809D16868C00306D52868800339D5F6
:1007700060680028E7D035E06068B0F5803F0BD0B6
:1007800010B1B0F5A02F11D0286820F48030286077
:10079000286820F4802002E0286840F48030286037
:1007A000606890B1FFF780FE06460AE0286840F4D2
:1007B00080202860F0E700BFFFF776FE801B6428EA
:1007C00073D828688003F7D50CE0FFF76DFE064666
:1007D00005E000BFFFF768FE801B6428F0D828689A
:1007E0008003F7D420789A4E80074FF001094FF02C
:1007F000000839D5686810F00C0F07D06868C0F39E
:100800008100022809D16868C00306D428688007DF
:1008100014D52069012808D110E02069B0B1C6F8CC
:100820000090FFF741FE074605E00AE1FFF73CFEB6
:10083000C01B0228C4D828688007F7D528686169DA
:1008400020F0F80040EAC10028600DE0C6F8008002
:10085000FFF72AFE074604E0FFF726FEC01B02282A
:1008600023D828688007F7D4207800072CD579484A
:10087000A169D9B1C0F80090FFF716FE074604E061
:10088000FFF712FEC01B02280FD8686A8007F7D551
:1008900071484FF4FA510068B0FBF1F0009000BFCE
:1008A0000098411E0091FAD20EE080E0C0F800806E
:1008B000FFF7FAFD074604E0FFF7F6FDC01B02282C
:1008C00075D8686A8007F7D42078400760D5E86952
:1008D0000027C00008D4E86940F08050E861E8696A
:1008E000012700F0805000905C480168C90513D4CE
:1008F0000168834641F480710160FFF7D5FD8246AF
:1009000006E000BFFFF7D0FDA0EB0A0064284ED838
:10091000DBF80000C005F5D5E06801280AD008B171
:10092000052813D0286A20F001002862286A20F0E8
:10093000040002E0286A40F001002862E06841F209
:10094000883B98B1FFF7B0FD82460BE0286A40F083
:1009500004002862EEE700BFFFF7A6FDA0EB0A0146
:1009600059455AD8286A8007F6D50CE0FFF79CFD58
:10097000824605E0FFF798FDA0EB0A0159454CD8E7
:10098000286A8007F6D41FB1E86920F08050E8613A
:10099000E06988B36968C1F38101022944D0022863
:1009A000C6F8608004D0FFF77FFD044638E034E0ED
:1009B000FFF77AFD074604E0FFF776FDC01B02282B
:1009C0002BD828688001F7D4206AB0F5803F05D184
:1009D0006868A16820F4003008436860D4E9080121
:1009E0000843696821F4741108436860C6F8609090
:1009F000FFF75AFD044606E025E000BFFFF754FD6F
:100A0000001B022809D828688001F7D51BE000BF29
:100A1000FFF74AFD001B022802D90320BDE8F88F2A
:100A200028688001F4D40EE00128F7D06868226AB3
:100A300000F48031914204D1616A00F47010884260
:100A400001D00120EAE70020E8E7000000100240A2
:100A50000000424280044242180000200070004022
:100A600010B5401EB0F1807F01D3012010BD4FF0C2
:100A7000E02460610F21601700F049FC0020A061B4
:100A800007202061002010BD70B590F83C20012A9D
:100A900026D0012480F83C40022280F83D200368E3
:100AA0005A689D6822F070060A6832435A600D4BFE
:100AB00002689A4208D0B2F1804F05D00A4B9A42A0
:100AC00002D00A4B9A4204D1496825F080031943A9
:100AD000916080F83D40002180F83C10084670BDD0
:100AE000022070BD002C01400004004000080040BE
:100AF0002DE9F0410D46040003D094F83D0018B1F3
:100B000008E00120BDE8F081002084F83C00204688
:100B100000F040F8022084F83D002068816844F22B
:100B2000070291438160211D206800F009FB2268C3
:100B300090689169166A2B68AF69034340F20330ED
:100B4000814341EA0721A868EF6908434FF6FC4159
:100B50008843E96840EA0720014328692F6A0001B9
:100B600040EA0730084369686D6926F0220646EAC4
:100B70000515294393602268906154F8460B016281
:100B8000012004F81F09E0752076E0762077A07533
:100B90000020B7E7704770B590F83E60044690F8C3
:100BA0003F5090F8423090F84320022021B10429B0
:100BB0000ED0012E1BD114E0012E18D1012B16D11D
:100BC00084F83E0084F8420001220021206820E0E1
:100BD000012D0CD1012A0AD184F83F0084F843008A
:100BE00014E0012D03D1012B01D1012A01D00120F4
:100BF00070BD84F83E0084F83F0084F8420084F819
:100C0000430001220021206800F0D0FA01220421D3
:100C1000206800F0CBFA2068016841F00101016012
:100C2000002070BD00B585B00021009101910291B6
:100C30000391026814480221B2F1804F14D0134B83
:100C40009A420FD1826942F0080282618069009164
:100C500000F008000191CDE903100D48694600BF7E
:100C6000FFF72CFB05B000BD826942F004028261EF
:100C70008069039100F0040004900420CDE9000194
:100C800069460448ECE70000001002400004004000
:100C9000000C01400008014070B5044690F83C008B
:100CA00000260D4601280FD0012084F83C006AB1CF
:100CB000042A1DD0082A2FD00C2A3FD0012600205C
:100CC00084F83C00304670BD022070BD206800F002
:100CD0007BFA2068816941F008018161206881699F
:100CE00021F004018161206881692A69114311E0C2
:100CF000206800F091FA2068816941F40061816107
:100D00002068816921F480618161206881692A6994
:100D100041EA02218161D2E7206800F0A9FA206847
:100D2000C16941F00801C1612068C16921F0040175
:100D3000C1612068C1692A69114311E0206800F08F
:100D4000C3FA2068C16941F40061C1612068C169CA
:100D500021F48061C1612068C1692A6941EA0221E8
:100D6000C161ACE710B5040003D094F83D0010B1A8
:100D700007E0012010BD002084F83C00204600F070
:100D80001FF8022084F83D00211D206800F0D8F9EA
:100D9000012084F8460084F83E0084F83F0084F87F
:100DA000400084F8410084F8420084F8430084F84D
:100DB000440084F8450084F83D00002010BD000088
:100DC00000B585B000210091019102910391016865
:100DD0001348B1F1804F0CD0124A914207D1C1693A
:100DE00041F00201C161C06900F00200049005B049
:100DF00000BDC16941F00101C161C16901F001019A
:100E00000491816941F0040181618069694600F0C3
:100E100004000490032000900348FFF74FFAE6E730
:100E200000100240000400400008014010B50446D4
:100E3000022249B104290ED0082913D094F84100A8
:100E4000012816D0012010BD94F83E000128F9D1E8
:100E500084F83E200FE094F83F000128F2D184F896
:100E60003F2008E094F840000128EBD184F84020AE
:100E700001E084F841200122206800F097F90F4931
:100E80002068884203D1426C42F4004242642068E8
:100E9000884208D0B0F1804F05D00949884202D07D
:100EA0000849884204D1816801F00701062903D06E
:100EB000016841F001010160002010BD002C0140DB
:100EC0000004004000080040FEE7000070B586B056
:100ED000002418480094019402940394816941F01D
:100EE00020018161816901F020010491816941F053
:100EF00004018161816901F004010491816941F07B
:100F00000801816180690C4E00F008004FF44165D2
:100F10000490002229463046FFF7C0FA01200095D0
:100F2000CDE901040220039069463046FFF7C6F977
:100F300006B070BD001002400008014010B592B02C
:100F400024216846FFF740F9002410941C2109A8C9
:100F50001194FFF739F91E484FF08041C0E90014A1
:100F60004FF6FF71C0E9024104618461FFF7FAFEA8
:100F700008B1FFF78EF90320CDE900040120CDE987
:100F800002040494CDE9054007946946104808948A
:100F9000FFF7AEFD08B1FFF77CF9109410A90C48DB
:100FA0001194FFF771FD08B1FFF773F96020CDE9E7
:100FB00009040B94082209A905480D94FFF76CFE5B
:100FC00008B1FFF766F90248FFF72CFE12B010BD1A
:100FD0003800002010B58AB0002407941C21684610
:100FE0000894FFF7F1F816481449C0E900144FF4CB
:100FF000E151C0E9024104618461FFF7B3FE08B129
:10100000FFF747F9079407A90D480894FFF73CFD3F
:1010100008B1FFF73EF96020CDE9000402940C22EC
:10102000694607480494FFF737FE08B1FFF731F926
:101030000348FFF7F7FD0AB010BD000000040040B0
:1010400080000020FEE7FEE72DE9F0470446808A95
:10105000218A204E401A05B2B6F9020000F080FA4B
:101060008046B6F90000814600F07AFA012100F0CE
:1010700002FC0746284600F073FA8246394600F023
:1010800053FB414600F0E8F9A16800F081FA804680
:101090005046616800F07CFA82465746A5EB09008D
:1010A00000F05EFA216800F073FA394600F0D4F9D6
:1010B000414600F0D1F900F037FA07B25046A16975
:1010C00000F0CAF9A061A6F802903580E760BDE89B
:1010D000F08700000000002070477047FFF7EAB972
:1010E00030B58FB028216846FFF76EF814210AA8A2
:1010F000FFF76AF801210804CDE9001000240294EA
:1011000002250491CDE907504FF4E010099068469C
:10111000FFF716FB08B172B6FEE70F20CDE90A050E
:101120004FF48060CDE90C4002210AA80E94FFF72D
:101130004BFA002801D072B6FEE70FB030BD704701
:10114000F0B50268164B174C174D4FF08047984288
:1011500005D0B84203D0A04201D0A84203D122F06A
:1011600070064A683243984205D0B84203D0A04284
:1011700001D0A84203D122F44074CA6822434C69CA
:1011800022F08002224302608A68C2620A68826298
:10119000984201D10969016301214161F0BD00005C
:1011A000002C0140000400400008004010B501F090
:1011B0001F030121046A99408C430462016A9A402A
:1011C0001143016210BD000030B5036A026A22F0CB
:1011D000010202624268846924F073050C682C43A2
:1011E00023F002058B682B430A4DA8420BD123F054
:1011F0000805CB6822F440722B434D6923F00403A9
:1012000015438A692A4342608461496841630362E5
:1012100030BD0000002C014030B5026A036A23F0A3
:1012200010030362436884690D6824F4E64444EAC9
:1012300005248D6822F0200242EA05120B4DA842D7
:101240000ED1CD6822F0800242EA05124D6923F4E6
:10125000406343EA85038D6922F0400243EA850337
:101260004360846149688163026230BD002C0140A3
:1012700030B5036A026A22F4807202624268C4696D
:1012800023F4007324F073050C682C438D6843EA43
:1012900005230C4DA8420ED1CD6823F4006343EA28
:1012A00005234D6922F4405242EA05128D6923F468
:1012B000806342EA05124260C4614968C163036207
:1012C00030BD0000002C014030B5046A026A22F4EF
:1012D000805202624268C3690D6823F4E64343EA20
:1012E00005238D6824F4005444EA0534064DA842D1
:1012F00004D14D6922F4804242EA85124260C36102
:1013000049680164046230BD002C0140FEE7090712
:10131000090E002804DB00F1E02080F8001470477B
:1013200000F00F0000F1E02080F8141D704700006D
:1013300003480168486A002200B24A627047000010
:1013400038000020FFF7BEF8FFF7CAFEFFF7BEFD2A
:10135000FFF7F4FDFFF73EFE3C212348FFF71BFC9F
:101360000C212248FFF762FD214C00224FF48061DE
:101370002046FFF793F80122D1022046FFF78EF8AE
:10138000012210212046FFF789F81A490020086041
:101390001A4C19494FF4E15621601949C4E901106A
:1013A0000F20C6F10008A082771E08F10109154D33
:1013B000FFF7BEFFA8800920FEF76EFFA8882082F5
:1013C0000E48FFF741FEE068A9680844A860B042F3
:1013D00001DBAF6003E0404501DCC5F80890A86878
:1013E00000F012F8E4E70000380000208000002040
:1013F00000080140400400400000A0421C00002002
:1014000000002041000000202DE9F041104D114E58
:10141000041E4FF480614FF400670ADD0022284665
:10142000FFF73CF8012239462846FFF737F8A0B20B
:101430000AE001222846FFF731F800223946284603
:10144000FFF72CF8604280B23060BDE8F081000008
:10145000000801404004004090EA010F48BF81F0BD
:10146000004100F16881421A3CBF801A89184FEA96
:10147000D0524FF07F4C1CEA410FA2EBD15318BF62
:101480009CEA026F00F03B804FF0004C4CEA0020D9
:101490004CEA012121FA03FC10EB0C0C1ED202F1E4
:1014A000FF325FEA1C2040EBC25038BF70471CF08F
:1014B0007F0F4FEA400C18BFBCF17F4F38BF704719
:1014C000C3F12003994008BF20F00100BCF17F4F19
:1014D00038BF7047A0F1C04000F021B94FEA3C008E
:1014E000000A40EBC25028BF1CF0FF0F4FEA400C2F
:1014F000E6D018BFBCF17F4F38BF7047EAE79CEADF
:10150000026F05D010EA5C0F08BF00F00040704782
:1015100010B500F0BEF800BF64FBBE3E014800F00D
:1015200078B900BF0000C07F41000B0ED3F19E02CE
:1015300008D950F400034FEA032323FA02F048BF0E
:101540004042704710B500F0A4F800BF49922480D3
:10155000002070476FF0004282EA200070470000D0
:1015600010F0004148BF4042B0FA80F310FA03F295
:10157000C3F19D030BD051EAC35101EB1220530676
:1015800038BF704700F1010008BF20F0010070472C
:101590004FF47F0C1CEAD0121EBF1CEAD11392EA52
:1015A0000C0F93EA0C0F00F0478090EA010F48BF40
:1015B00042F480724FF0004C4CEA00204CEA0121CA
:1015C00002EB0302A0FB0113A2F50002002918BFE1
:1015D00043F001035B0028BF4FEA330342EB224292
:1015E0005FEA132C4CEBC2502EBFBCEB436FB2F53D
:1015F0007C0F70474FEA036CBCF1004F08BF20F02E
:101600000100B2F57C0F38BF70470BD582F0FF02A6
:1016100012F5803FC8BF704700F1C040D8BF00F04E
:101620000040704700F5000C5FEA4C0C48BF704763
:10163000B0F1C04000F073B890EA010F0CEAD1138A
:1016400048BF42F48072624538BF634504D280EAE5
:10165000010000F00040704710B500F01AF800BF1C
:101660008900013E00F007B800F009B85FEA410CBC
:101670005FEA1C6C08D080EA010000F050B85FEA15
:10168000400C5FEA1C6CF6D14FF00040A0F58000E2
:1016900070470EF1020E2EF0030E5EF8044B24424A
:1016A00004D44FEA4102B2F17F4F11D84FEA400310
:1016B000B3F17F4F0CD80ED14FEAD07CB2F17F4FFF
:1016C0000CEB4C0C0CF1020C08BF4CEBD17C04E091
:1016D0004FF0080C01E04FEAD17C0CEB4C0324FAEC
:1016E00003F404F00704B4F1040C06D20EEB840CEE
:1016F000BDE810404CF0010C6047DFE80CF0070833
:1017000002024FF00040A0F5800010BD08464200E4
:1017100018BFD2F1807288BF00F0004010BDFF21D9
:1017200041EAD050C005704790EA010F48BF81F0F0
:1017300000413FF598AE421A04D882F00042A0EB77
:10174000020011444FEAD0524FF07F4C1CEA410F87
:10175000A2EBD15318BF9CEA026F4AD04FF0004C65
:101760004CEA00204CEA012121FA03FCB0EB0C0CFE
:101770000FD412F0FE0F36D05FEA4C001DD50012D8
:1017800040EBC25038BF70471CF03F0F18BF704786
:101790000BE0A2F101025FEA1C2040EBC25038BF0F
:1017A00070471CF07F0F18BF7047C3F120039940AA
:1017B00014BF401E20F00100704780084FEA12233A
:1017C00008BF7047B0FA80FCA2EB0C02CCF1280CE9
:1017D00060FA0CF093EA122F04BF00EBC25070477E
:1017E0004FEAC3707047130A5FEADC1008BF704706
:1017F000F6E79CEA026F04D010EA5C0F08BF0020F5
:10180000704710B5FFF745FF40DFF63E81F000401E
:1018100070470CF00F03092B08BF082000F051801F
:101820000A2B0BD0082B18BF704708BF1CF0400FC5
:101830000AD04FF000004FF0000170471CF0400F3D
:1018400018BF4FF0004070471CF0100F08D020F078
:10185000704300F07F4242EAD3014FEA4370704781
:1018600000F0604021F07F4242EA000201F07F4038
:1018700040EA727070474FF0FF0212EAD0521CBF6C
:1018800092F0FF038B42C2BFD14200EBC1507047C0
:10189000002A0AD0002B0BD0002900F00040A4BF82
:1018A00040F0FE4040F40000704700F000407047F8
:1018B00043024FF00B0C18BF4CF0806C7FF42EAE3F
:1018C00070471CF4801F11D01CF4E02F03D06FEA86
:1018D000CC31490070474FF04050EFF3008222F0C6
:1018E000704242EA000282F3008870474FF0000025
:1018F0007047010202030405060708090A0B0C0DD4
:101900000E0F101000000000000000000102030490
:101910000607080934190008000000201C00000018
:1019200028010008501900081C0000200C070000C6
:10193000440100080000000000000000000000005A
:101940000100000010000000000000000024F4006E
:04000005080000ED02
:00000001FF
