:020000040800F2
:100000005015002099010008731A00083D180008D7
:10001000711A000855020008E524000800000000DD
:1000200000000000000000000000000001010008C6
:10003000570200080000000045010008ED1F0008FD
:10004000B3010008B3010008B3010008B3010008C0
:10005000B3010008B3010008B3010008B3010008B0
:10006000B3010008B3010008B3010008B3010008A0
:10007000B3010008B3010008B3010008B301000890
:10008000B3010008B3010008B3010008B301000880
:10009000B3010008B3010008B3010008B301000870
:1000A000B301000879200008B3010008B30100087B
:1000B000B3010008B3010008B3010008B301000850
:1000C000B3010008B3010008B3010008B301000840
:1000D000B3010008D9240008B3010008B3010008E7
:1000E000B3010008B3010008B3010008DFF80CD029
:1000F00000F09EF800480047B52600085015002083
:10010000224B19680868B0E8F00F80F30988BFF344
:100110006F8F4FF0000080F311884EF00D0E704786
:100120000000000006480068006880F3088862B696
:1001300061B6BFF34F8FBFF36F8F00DF00BF00BF0B
:1001400008ED00E0EFF30980BFF36F8F0F4B1A68E3
:1001500020E9F00F106008B54FF0500080F31188CF
:10016000BFF34F8FBFF36F8F02F078FE4FF00000A8
:1001700080F31188BDE8084019680868B0E8F00FFE
:1001800080F30988BFF36F8F704700BF2400002001
:10019000EFF3058070470000064880470648004797
:1001A000FEE7FEE7FEE7FEE7FEE7FEE7FEE7FEE727
:1001B000FEE7FEE777200008ED00000840EA0103B3
:1001C0009B0703D009E008C9121F08C0042AFAD20D
:1001D00003E011F8013B00F8013B521EF9D27047D1
:1001E000D2B201E000F8012B491EFBD27047002279
:1001F000F6E710B513460A4604461946FFF7F0FF26
:10020000204610BD30B50B460146002020220124B7
:1002100009E021FA02F59D4205D303FA02F5491BD4
:1002200004FA02F52844151EA2F10102F1DC30BDEA
:10023000064C074D06E0E06840F0010394E8070033
:1002400098471034AC42F6D3FFF754FF043400084B
:1002500024340008FEE7704772B6FEE710B590F848
:1002600021100022022905D00421816380F820207A
:10027000012010BD01680B6823F00E030B600168BC
:100280000B6823F001030B6090F84030C46B012130
:1002900001FA03F3636080F8211080F820201046F3
:1002A00010BD000010B590F821100024022903D0E1
:1002B0000421816301243DE001680A6822F00E02F6
:1002C0000A6001680A6822F001020A601A4A01689D
:1002D000914201D1012121E0174A1432914201D10A
:1002E00010211BE0144A2832914201D1891515E0F2
:1002F000114A3C32914201D189140FE00E4A50322A
:10030000914202D14FF4803108E00B4A64329142AD
:1003100002D14FF4801101E04FF08071064A083A93
:100320005160012180F82110002180F82010416BDC
:1003300001B18847204610BD0800024070B5044650
:1003400000F010F90546601C02D00448007804440F
:1003500000F008F9401BA042FAD370BD1400002041
:100360002DE9F84FDFF8B8910024A9F1040B2346DA
:100370000F2709F1040AABF1040EC9E00125A540DD
:100380002A40AA427DD1674ED1F804C0ACEB0608E2
:10039000B44532D014DCBCF1030F3AD009DCBCF117
:1003A000000F2AD0BCF1010F1CD0BCF1020F31D1DB
:1003B0001DE0BCF1110F17D0BCF1120F2AD119E0CA
:1003C000B8F5881F19D006DCB8F5803F15D0B8F510
:1003D000801F1FD111E0B8F5001F0ED0B8F5041F23
:1003E00018D10AE0CB6815E0CB681B1D12E0CB6882
:1003F00008330FE0CB680C330CE08B682BB1012B7A
:100400004FF0080303D0456104E0042302E00561D6
:1004100000E00023FF2A01D8064601E000F10406AF
:100420004FEA840501D9A5F12005D6F8008007FA26
:1004300005FC28EA0C0803FA05F548EA0508C6F8A1
:1004400000804D68ED0062D5374DAE6946F001067B
:10045000AE61AD6924F0030605F001050095334D4A
:1004600006EB050CDCF80850A607360F07FA06F86D
:1004700025EA0805DFF8B880404503D14FF00008B1
:1004800017E044E0DFF8AC80404502D14FF00108AE
:100490000FE0DFF8A480404502D14FF0020808E0E9
:1004A000DFF89880404502D14FF0030801E04FF09B
:1004B000040808FA06F848EA0508CCF808804D68F0
:1004C000D9F80060ED024D4601D5164300E0964391
:1004D0002E604D68DAF80060AD02554601D516432E
:1004E00000E096432E604D68DBF80060AD035D468A
:1004F00001D5164300E096432E604D68DEF800609B
:10050000ED03754601D5164300E096432E60641C4A
:100510000D682A46E5407FF431AFBDE8F88F000052
:1005200008040140000011100010024000000140CA
:1005300000080140000C014000100140001401407F
:100540008068084000D001207047C26821EA020399
:100550000A4043EA0241016170470AB101617047F4
:100560000904FBE701488068704700001400002080
:1005700002488168027811448160704714000020AD
:10058000074810B5016841F010010160032000F038
:10059000A1F80F2000F006F800F04AF8002010BD86
:1005A0000020024030B505461C4887B0816941F4FF
:1005B00000618161806906A900F40060009001A8D3
:1005C00000F030F900F05EF91549164AB0FBF1F180
:1005D0001548491E0260416040F2E7320021C0E93F
:1005E00003218160816100F0D5FC040012D10E4826
:1005F00000F0FEFC04000DD1192000F03DF8102D94
:1006000007D200222946192000F044F80748056067
:1006100000E0012407B0204630BD00000010024079
:1006200040420F00002C0140180400201800002058
:100630000F4808B5816941F001018161816901F0CC
:1006400001010091C16941F08051C161C06900227E
:1006500000F0805000900F21901E00F01BF805481C
:10066000416821F0E06141F00071416008BD000087
:100670000010024000000140002809DB00F01F02CA
:10068000012191404009800000F1E020C0F80011F4
:1006900070470000F0B40E4B1B680C46C3F30223F6
:1006A000C3F10705042D00D90425191D072901D21E
:1006B000002300E0DB1E012606FA05F1491E214059
:1006C00099409E40761E16403143F0BC01F01CBF9D
:1006D0000CED00E0064900F0070208684FF6FF0342
:1006E000184040EA0220034A1043086070470000A7
:1006F0000CED00E00000FA052DE9F0470F4605007B
:1007000061D0434E306800F00700B84209D230682B
:1007100020F0070038433060306800F00700B8422E
:1007200051D128683B4C810712D5400703D560683A
:1007300040F4E06060602878000703D5606840F40A
:10074000605060606068A96820F0F0000843606055
:100750002878C00728D06868012810D021680228AE
:1007600010D0890700292EDA616821F003010143C6
:100770006160FFF7F7FE804641F288390DE021689D
:100780008903EFE78901EDE7FFF7ECFEA0EB080135
:10079000494502D90320BDE8F0876068696800F028
:1007A0000C00B0EB810FEFD1306800F00700B842C9
:1007B0000BD9306820F0070038433060306800F013
:1007C0000700B84201D00120E5E72878400705D5A9
:1007D0006068E96820F4E0600843606028780007FA
:1007E00006D56068296920F4605040EAC100606065
:1007F00000F058F86168084AC1F30311515CC84021
:100800000649086006480068FFF7CCFE0020C2E7F2
:100810000020024000100240C833000820000020E1
:10082000180000200F2202600C4A536803F00303F3
:100830004360536803F0F0038360536803F4E0639C
:10084000C36052684FF4E06303EAD20202610448D5
:10085000006800F0070008607047000000100240C8
:10086000002002400448054900684968044AC1F371
:100870000221515CC8407047200000200010024057
:10088000D83300080448054900684968044AC1F3A0
:10089000C221515CC8407047200000200010024077
:1008A000D83300080E4A51680E4801F00C03042B9F
:1008B00011D0082B0FD10C48C1F38343C903C05C8E
:1008C0000AD55168084AC1F34041921E515C054A5D
:1008D0005043B0FBF1F070470449484370470000B3
:1008E0000010024000127A00B833000800093D00F1
:1008F0002DE9F84F040070D02078C04DC00749D0D2
:100900006868C0F38100012807D06868C0F38100DF
:10091000022809D16868C00306D52868800339D544
:1009200060680028E7D035E06068B0F5803F0BD004
:1009300010B1B0F5A02F11D0286820F480302860C5
:10094000286820F4802002E0286840F48030286085
:10095000606890B1FFF706FE06460AE0286840F49A
:1009600080202860F0E700BFFFF7FCFD801B6428B3
:1009700073D828688003F7D50CE0FFF7F3FD06462F
:1009800005E000BFFFF7EEFD801B6428F0D8286863
:100990008003F7D420789A4E80074FF001094FF07A
:1009A000000839D5686810F00C0F07D06868C0F3EC
:1009B0008100022809D16868C00306D4286880072E
:1009C00014D52069012808D110E02069B0B1C6F81B
:1009D0000090FFF7C7FD074605E00AE1FFF7C2FDFB
:1009E000C01B0228C4D828688007F7D52868616929
:1009F00020F0F80040EAC10028600DE0C6F8008051
:100A0000FFF7B0FD074604E0FFF7ACFDC01B02286E
:100A100023D828688007F7D4207800072CD5794898
:100A2000A169D9B1C0F80090FFF79CFD074604E02A
:100A3000FFF798FDC01B02280FD8686A8007F7D51A
:100A400071484FF4FA510068B0FBF1F0009000BF1C
:100A50000098411E0091FAD20EE080E0C0F80080BC
:100A6000FFF780FD074604E0FFF77CFDC01B02286E
:100A700075D8686A8007F7D42078400760D5E869A0
:100A80000027C00008D4E86940F08050E861E869B8
:100A9000012700F0805000905C480168C90513D41C
:100AA0000168834641F480710160FFF75BFD824677
:100AB00006E000BFFFF756FDA0EB0A0064284ED801
:100AC000DBF80000C005F5D5E06801280AD008B1C0
:100AD000052813D0286A20F001002862286A20F037
:100AE000040002E0286A40F001002862E06841F258
:100AF000883B98B1FFF736FD82460BE0286A40F04C
:100B000004002862EEE700BFFFF72CFDA0EB0A010E
:100B100059455AD8286A8007F6D50CE0FFF722FD20
:100B2000824605E0FFF71EFDA0EB0A0159454CD8AF
:100B3000286A8007F6D41FB1E86920F08050E86188
:100B4000E06988B36968C1F38101022944D00228B1
:100B5000C6F8608004D0FFF705FD044638E034E0B5
:100B6000FFF700FD074604E0FFF7FCFCC01B02286E
:100B70002BD828688001F7D4206AB0F5803F05D1D2
:100B80006868A16820F4003008436860D4E908016F
:100B90000843696821F4741108436860C6F86090DE
:100BA000FFF7E0FC044606E025E000BFFFF7DAFCB3
:100BB000001B022809D828688001F7D51BE000BF78
:100BC000FFF7D0FC001B022802D90320BDE8F88FF4
:100BD00028688001F4D40EE00128F7D06868226A02
:100BE00000F48031914204D1616A00F470108842AF
:100BF00001D00120EAE70020E8E7000000100240F1
:100C00000000424280044242200000200070004068
:100C100070B5040009D0606A002540B125616561A6
:100C2000A56294F8510040B10CE0012070BD6068ED
:100C3000B0F5827FF4D0E561F2E784F850502046A9
:100C400000F040F8022084F851002068016821F08B
:100C500040010160A088218900F4827001F4044100
:100C60000843A18901F400610843217C01F00201DD
:100C70000843217D01F001010843218B01F400713B
:100C80000843217F01F03801084394F8201001F057
:100C900080010843218D01F4005108432168086058
:100CA000A069042101EA1040216848602068C169F8
:100CB00021F40061C1616565012084F851000020C4
:100CC00070BD000030B585B00024009401940294FA
:100CD000039400681549884225D11548C16941F43B
:100CE0008041C161C16901F480410491816941F091
:100CF0000801816180690F4D00F0080004904FF4F5
:100D0000204000900220019003200390694628466D
:100D1000FFF726FB4FF48040CDE9000469462846E2
:100D20000294FFF71DFB05B030BD00000038004005
:100D300000100240000C01402DE9FF4F81B0044635
:100D400090F8500000260E9F1D4693464FF0010973
:100D500001280FD04FF0010A84F850A0FFF702FCE1
:100D6000804694F85100616801280DD0B1F5827F6A
:100D700008D103E0022005B0BDE8F08FA16809B9F1
:100D8000042801D00226C9E00298002865D0BBF1F2
:100D9000000FFBD0002DF9D094F85100042802D0A8
:100DA000052084F8510000206065C4F838B0E5875C
:100DB000A58702992163E586A58620646064206882
:100DC0000168490603D4016841F040010160E06810
:100DD000B0F5006F606803D0F0B3012D47D081E01B
:100DE00008B1012D3CD1206B21680088C860206BC0
:100DF000801C2063E08E401EE08631E02068816820
:100E000089070FD5E18E69B1B9F1010F0AD1216BC4
:100E10000988C160206B801C2063E08E401EE08644
:100E20004FF0000920688168C9070CD0E18F51B1EB
:100E3000C068A16B0880A06B801CA063E08F401E7F
:100E4000E0874FF00109FFF78DFBA0EB0800B842E7
:100E500006D3781C04D001E009E05BE003265BE0E8
:100E6000E08E0028CAD1E08F0028C7D140E0206B77
:100E7000216800780873206B401C2063E08E401EC0
:100E8000E0862FE02068816889070FD5E18E69B17F
:100E9000B9F1010F0AD1216B09780173206B401C55
:100EA0002063E08E401EE0864FF0000920688168D4
:100EB000C9070CD0E18F51B1C068A16B0870A06B5D
:100EC000401CA063E08F401EE0874FF00109FFF750
:100ED00049FBA0EB0800B84202D3781C02D0BAE765
:100EE000002FB8D0E08E0028CCD1E08F0028C9D1E7
:100EF00042463946204600F08BFF18B101262020DB
:100F000060650BE0A06818B92068C168806800902F
:100F1000606D08B1012601E084F851A0002084F83A
:100F20005000304627E770477047000070B590F8D2
:100F30003C20012A26D0012480F83C40022280F87F
:100F40003D2003685A689D6822F070060A683243A3
:100F50005A600D4B02689A4208D0B2F1804F05D01A
:100F60000A4B9A4202D00A4B9A4204D1496825F0B2
:100F700080031943916080F83D40002180F83C10C7
:100F8000084670BD022070BD002C014000040040E6
:100F90000008004010B5040003D094F83D0010B1E3
:100FA00007E0012010BD002084F83C00204600F03E
:100FB0001EF8022084F83D00211D206801F062F82F
:100FC000012084F8460084F83E0084F83F0084F84D
:100FD000400084F8410084F8420084F8430084F81B
:100FE000440084F8450084F83D00002010BD70479F
:100FF00090F83D10012901D001207047022180F8AE
:101000003D100168CA6842F00102CA6000680B49DD
:10101000884208D0B0F1804F05D00949884202D0FB
:101020000849884204D1816801F00701062903D0EC
:10103000016841F00101016000207047002C01406F
:101040000004004000080040704770B50446006886
:1010500001694FF00005C943890715D4C168C94328
:10106000890711D4E91E0161012020772068806979
:101070008007204602D0FFF7E7FF04E000F0BCF84D
:10108000204600F05FF9257720680169C9434907C8
:1010900017D4C168C943490713D46FF00401016133
:1010A000022020772068806910F4407F204602D01B
:1010B000FFF7CAFF04E000F09FF8204600F042F975
:1010C000257720680169C943090716D4C168C94357
:1010D000090712D46FF0080101610420207720680D
:1010E000C0698007204602D0FFF7AEFF04E000F0A1
:1010F00083F8204600F026F9257720680169C94366
:10110000C90617D4C168C943C90613D46FF01001CA
:101110000161082020772068C06910F4407F2046D4
:1011200002D0FFF791FF04E000F066F8204600F0DF
:1011300009F9257720680169C943C90708D1C16841
:10114000C943C90704D1891E0161204600F04AF94C
:1011500020680169C943090609D4C168C943090661
:1011600005D46FF0800101612046FFF7DCFE2068A6
:101170000169C943490609D4C168C943490605D470
:101180006FF040010161204600F036F920680169E6
:10119000C94389060BD4C168C943890607D46FF0D7
:1011A000200101612046BDE87040FFF7BDBE70BD63
:1011B00000B585B000210091019102910391006872
:1011C000B0F1804F11D10A48816941F00401816179
:1011D0008069694600F0040004900F20009002200E
:1011E000019003900348FFF7BBF805B000BD000075
:1011F0000010024000080140704770B5044690F8A6
:101200003C0000260D4601280FD0012084F83C0048
:101210006AB1042A1DD0082A2FD00C2A3FD00126FB
:10122000002084F83C00304670BD022070BD20686C
:1012300000F06CFF2068816941F00801816120683D
:10124000816921F004018161206881692A69114363
:1012500011E0206800F082FF2068816941F400619C
:1012600081612068816921F48061816120688169E0
:101270002A6941EA02218161D2E7206800F09AFFE1
:101280002068C16941F00801C1612068C16921F08D
:101290000401C1612068C1692A69114311E0206815
:1012A00000F0B4FF2068C16941F40061C1612068A9
:1012B000C16921F48061C1612068C1692A6941EA7C
:1012C0000221C161ACE710B5040003D094F83D00E1
:1012D00010B107E0012010BD002084F83C0020463A
:1012E00000F01EF8022084F83D00211D206800F067
:1012F000C9FE012084F8460084F83E0084F83F00CF
:1013000084F8400084F8410084F8420084F84300E7
:1013100084F8440084F8450084F83D00002010BDA6
:1013200008B50068B0F1804F08D10548C16941F0A7
:101330000101C161C06900F00100009008BD00001A
:10134000001002407047000010B50446022249B167
:1013500004290ED0082913D094F84100012816D092
:10136000012010BD94F83E000128F9D184F83E20F8
:101370000FE094F83F000128F2D184F83F2008E004
:1013800094F840000128EBD184F8402001E084F873
:1013900041200122206800F0ABFE0F4920688842FE
:1013A00003D1426C42F4004242642068884208D073
:1013B000B0F1804F05D00949884202D008498842DF
:1013C00004D1816801F00701062903D0016841F0CA
:1013D00001010160002010BD002C0140000400400C
:1013E0000008004000680349884201D1FFF7C0B8F7
:1013F00070470000002C01407047704770470000A4
:10140000F8B5016804460868CA684B6910F00F0F08
:101410004FF0000559D003F0010602F490773743EE
:1014200065D0C10705D0D10503D5616C41F001013C
:101430006164410705D5D90703D0616C41F0020111
:101440006164810705D5D90703D0616C41F00401BF
:101450006164010707D502F02001314303D0616CBC
:1014600041F008016164616C00293AD0800604D51E
:10147000900602D5204600F01AFF20684069616C92
:10148000C0F38010090700D460B3204600F0E8FEE6
:1014900020684069400621D52068143050E8001FBC
:1014A00021F0400140E80012002AF5D1E06BA8B11C
:1014B0006D494163E06BFEF7F5FE002811D0E06B4B
:1014C000416B01B0BDE8F040084783060FD5930695
:1014D0000DD52046BDE8F84000F0E9BE2046FFF7F4
:1014E0008DFFF8BD2046FFF789FF6564F8BD266BC8
:1014F0002023012E7CD1C6067AD5D60678D5086879
:101500004868009048694FF00206400640D5E16BFC
:10151000086840680004000CE8D0A28D8242E5D93A
:10152000E085886920282DD020680C3050E8001F05
:1015300021F4807140E80012002AF5D120681430AF
:1015400050E8001F21F0010140E80012002AF5D107
:101550002068143050E8001F21F0400140E80012DC
:10156000002AF5D184F84230256320680C3050E819
:10157000001F21F0100140E80012002AF5D1E06BB5
:10158000FEF76CFE6663A08DE18D401A81B22AE001
:10159000A08DE18D401A81B2E08D0028A6D00029EF
:1015A000A4D022680C3252E8000F20F4907042E878
:1015B0000007002FF5D12068143050E8002F22F0EA
:1015C000010240E80027002FF5D184F8423025635E
:1015D00020680C3050E8002F22F0100240E8002371
:1015E000002BF5D166632046FFF707FFF8BDFFE744
:1015F00005062BD5150629D594F841002128F5D1EB
:10160000A068B0F5805F01D12069B0B1206A411CAB
:101610002162216800784860E08C401E0004000CC4
:10162000E084E3D12068C16821F08001C1602068B6
:10163000C16841F04001C160D8E7206A0088C0F36A
:1016400008004860206A801C2062E5E74006CDD58E
:101650005006CBD5CA68204622F04002CA6084F802
:10166000413000F0EAF8C1E75122000870B50400EB
:1016700004D094F84100002510B106E0012070BDAF
:1016800084F84050204600F023F8242084F84100DC
:101690002068C16821F40051C160204600F068FE56
:1016A0002068016921F4904101612068416921F0BD
:1016B0002A0141612068C16841F40051C16065643C
:1016C000202084F8410084F842006563002070BD4A
:1016D00030B585B00024009401940294039400680E
:1016E000184988422CD11848816941F480418161B0
:1016F000816901F480410491816941F004018161B3
:101700008069124D00F0040004904FF400700090C6
:10171000022001900320039069462846FEF720FE30
:101720002815CDE90004694628460294FEF718FE04
:10173000002205212520FEF7ADFF2520FEF79CFFA6
:1017400005B030BD003801400010024000080140E3
:1017500090F84230202B01D00220704721B11AB1FD
:101760000023036300F060BE0120704710B50068DD
:10177000074988420BD10E2206490748FEF71EFD95
:10178000BDE810400E2203490448FFF7E1BF10BD39
:101790000038014088000020C6000020D00300204F
:1017A0002DE9F843044690F841001F4616460D46C1
:1017B000202802D00220BDE8F8837DB176B1002058
:1017C0006064212084F84100FEF7CCFEA6848046A8
:1017D000E684A068B0F5805F02D003E00120EAE76C
:1017E000206910B12E4600250EE000260CE0802175
:1017F000204600F034FEA0B9AEB116F8010B216806
:101800004860E08C401EE084E08C43464FF00002CC
:1018100000970028EBD14FF04001204600F01FFE5A
:1018200030B10320C7E735F8020BC0F30800E6E744
:10183000202084F841000020BDE77047FEE700004B
:1018400010B5174B9AB015AC0FCB84E80F000021F0
:1018500015A800F073FF134C11491C2220611031B0
:101860006846FEF7ABFC0021684600F07AFF0C49A1
:1018700060601C222C3107A8FEF7A0FC002107A8FD
:1018800000F06FFF0649A0601C2248310EA8FEF749
:1018900095FC00210EA800F064FFE0601AB010BDB6
:1018A00048330008000000202DE9F04385B00024F3
:1018B00025480094019402940394816941F0100139
:1018C0008161816901F010010491816941F0200179
:1018D0008161816901F020010491816941F0040175
:1018E0008161816901F004010491816941F008017D
:1018F00081618069DFF8548000F008004FF40055E2
:101900000490002229464046FEF727FEDFF840906B
:101910004FF4C857002239464846FEF71EFE009590
:10192000022601250396CDE9015469464046FEF79B
:1019300017FD00970396CDE9015469464846FEF726
:101940000FFD05B0BDE8F08300100240001001401B
:10195000000801400F4810B50D4901604FF4827135
:10196000416000218160C1604FF400720161C0E9F3
:101970000512C1610162416281620A21C162FFF701
:1019800047F9002803D0BDE81040FEF765BC10BD44
:10199000003800403003002010B58AB000240794BE
:1019A0001C2168460894FEF722FC22484FF0804133
:1019B00001604721C0E9011444F62061C0E9031425
:1019C0008461FFF780FC08B1FEF746FC079407A985
:1019D00018480894FFF7AAFA08B1FEF73DFC60200A
:1019E000CDE9000402940022694612480494FFF7EE
:1019F00004FC08B1FEF730FC042269460D48FFF7ED
:101A0000FCFB08B1FEF728FC082269460948FFF7ED
:101A1000F4FB08B1FEF720FC0C2269460548FFF7ED
:101A2000ECFB08B1FEF718FC0248FFF7C1FB0AB057
:101A300010BD0000880300200C4810B50A49016061
:101A40004FF4E1314160002181600C22C160C0E9A6
:101A500004128161C161FFF709FE002803D0BDE8CF
:101A60001040FEF7F9BB10BD00380140D003002044
:101A7000FEE7FEE71CB510A1D1E90001CDE90001A8
:101A8000082000F0ABF905226946302000F058F933
:101A900005226946102000F085F8002069460A5C9E
:101AA000A52A03D1401CC0B20528F8D3052801D0CF
:101AB00001201CBD00201CBDA5A5A5A5A5000000FA
:101AC0001A4810B5816986B041F0040181618069CE
:101AD000174C00F0040004904FF480500090002058
:101AE000019069462046FEF73BFC00F0A3F8002277
:101AF000E1142046FEF731FD012211022046FEF7D7
:101B00002CFD0CA000F0F0FC4FF47A7405E015A059
:101B100000F0EAFC2046FEF711FCFFF7ABFF0028BF
:101B2000F5D118A000F0E0FC06B010BD0010024096
:101B300000080140D5E2CAC7D2BBB8F64E524632C1
:101B4000344C303120322E3447CEDECFDFCAFDBEDA
:101B5000DDB4ABCAE4C4A3BFE9B2E2CAD4CAB5D10A
:101B6000E90D0A00D3B2BCFEB2E9D1B0B2BBB5BD3B
:101B70004E524632344C3031CEDECFDFC4A3BFE903
:101B80000D0A00004E524632344C3031CEDECFDFEB
:101B9000C4A3BFE9D3B2BCFEC1ACBDD3D5FDB3A3D2
:101BA0000D0A00002DE9F047DFF8449015460F4676
:101BB00004464FF48078002241464846FEF7CDFCAB
:101BC00021460C4800F090F90646002406E0FF216B
:101BD000084800F089F93855641CE4B2AC42F6D3E9
:101BE000012241464846FEF7B8FC3046BDE8F08782
:101BF000000801403003002070B50C4E04464FF43D
:101C00008075002229463046FEF7A7FC2146084889
:101C100000F06AF9FF21064800F066F90446012247
:101C200029463046FEF799FC204670BD0008014069
:101C30003003002010B5094C2068016821F04001F4
:101C400001600020206160612046FEF7E1FF20680E
:101C5000016841F04001016010BD00003003002028
:101C600070B51A4D4FF40064002221462846FEF755
:101C700074FC05221649302000F062F81449052250
:101C8000491D2A2000F05CF80121212000F084F891
:101C90000121222000F080F8FF21242000F07CF8B0
:101CA0002821252000F078F80F21262000F074F874
:101CB0000E21202000F070F8012221462846FEF770
:101CC0004CFCBDE870400120FEF738BB0008014025
:101CD000AC33000870B50546102000F07FF8174CB3
:101CE0004FF40066002231462046FEF736FC2022E3
:101CF0002946A02000F024F8012231462046FEF7B4
:101D00002CFCA51429462046FEF71AFC0028F9D120
:101D10000720FFF771FF04460146272000F03CF83A
:101D2000E00605D5FF21E12000F036F8102070BD57
:101D3000A00601D5202070BDFF2070BD0008014025
:101D40002DE9F047DFF8489016460D4604464FF45B
:101D50008078002241464846FEF7FFFB21460D48A9
:101D600000F0C2F80746002407E000BF15F8011B89
:101D7000084800F0B9F8641CE4B2B442F6D301227A
:101D800041464846FEF7E9FB3846BDE8F0870000CB
:101D900000080140300300202DE9F0410D4E0F46B0
:101DA00004464FF48075002229463046FEF7D5FBE5
:101DB0002146094800F098F804463946064800F0E4
:101DC00093F8012229463046FEF7C7FB2046BDE8BE
:101DD000F081000000080140300300200B4910B5DD
:101DE0000A68136823F0400313600A6813684FF60B
:101DF000C774234013600A681368034313600868BC
:101E0000016841F04001016010BD00003003002076
:101E100038B50B46009204460022802100F008F8F5
:101E2000002804D0606D40F020006065032038BDBC
:101E30002DE9F8431E46914688460446089DFEF764
:101E400091FB401B351AFEF78DFB074625480068BD
:101E5000C0F3CB30684338E0701C37D0FEF782FB0C
:101E6000C01BA84203D215B1009860B32CE02068D3
:101E7000416821F0E00141606068B0F5827F0BD1DC
:101E8000A068B0F5004F02D0B0F5806F04D1206893
:101E9000016821F040010160A06AB0F5005F09D13E
:101EA0002068016821F4005101602068016841F454
:101EB00000510160012084F85100002084F8500096
:101EC0000320BDE8F8830025401E0090206881684B
:101ED00038EA010004D000214945BDD10020F0E7D7
:101EE0000121F9E7200000203EB5FF248DF80810FD
:101EF000012301AA02A90094FEF71EFF08B18DF884
:101F000004409DF804003EBD4FF0804040F2DC519B
:101F100041638163C16301647047012000F002FCEA
:101F2000FBE70000194C1A4D60891849401C60817C
:101F3000208921220A302081A1F12200FEF73EF9FA
:101F400012482238FFF7C6FE202801D011A012E067
:101F500018A000F0C9FA00200C4E2870223EC0B232
:101F6000315C1DA000F0C0FA2878401CC0B2287077
:101F70002128F4D319A000F0B7FA4FF40051184803
:101F8000FEF7E3FA322000F0CDFBCDE7BA000020E7
:101F9000000000204E524632344C3031CEDECFDFCE
:101FA000C4A3BFE9CAFDBEDDB7A2CBCDCAA7B0DCD2
:101FB0000A0000004E524632344C3031CEDECFDFC4
:101FC000C4A3BFE9CAFDBEDDB7A2CBCDB3C9B9A6D4
:101FD000A3BA0D0A00000000257520000D0A0000BC
:101FE00000100140012000F09DFBFBE710B55020E0
:101FF00080F31188BFF34F8FBFF36F8F01F0A4F808
:1020000018B104494FF080500860002080F3118817
:1020100010BD000004ED00E030B58FB02821684607
:10202000FEF7E5F814210AA8FEF7E1F801210804FB
:10203000CDE900100024029402250491CDE9075057
:102040004FF4E01009906846FEF752FC08B172B6F2
:10205000FEE70F20CDE90A054FF48060CDE90C4082
:1020600002210AA80E94FEF747FB002801D072B6A1
:10207000FEE70FB030BD70470148FEF7E6BF000035
:1020800018040020F0B50268164B174C174D4FF09E
:102090008047984205D0B84203D0A04201D0A84260
:1020A00003D122F070064A683243984205D0B84204
:1020B00003D0A04201D0A84203D122F44074CA68E0
:1020C00022434C6922F08002224302608A68C26285
:1020D0000A688262984201D1096901630121416164
:1020E000F0BD0000002C014000040040000800404A
:1020F00010B501F01F030121046A99408C4304626A
:10210000016A9A401143016210BD000030B5036AB4
:10211000026A22F0010202624268846924F07305B7
:102120000C682C4323F002058B682B430A4DA84210
:102130000BD123F00805CB6822F440722B434D6984
:1021400023F0040315438A692A4342608461496885
:102150004163036230BD0000002C014030B5026ACB
:10216000036A23F010030362436884690D6824F452
:10217000E64444EA05248D6822F0200242EA051272
:102180000B4DA8420ED1CD6822F0800242EA051222
:102190004D6923F4406343EA85038D6922F04002D0
:1021A00043EA85034360846149688163026230BD0C
:1021B000002C014030B5036A026A22F48072026288
:1021C0004268C46923F4007324F073050C682C433F
:1021D0008D6843EA05230C4DA8420ED1CD6823F447
:1021E000006343EA05234D6922F4405242EA051296
:1021F0008D6923F4806342EA05124260C461496834
:10220000C163036230BD0000002C014030B5046A98
:10221000026A22F4805202624268C3690D6823F4A4
:10222000E64343EA05238D6824F4005444EA053468
:10223000064DA84204D14D6922F4804242EA85123B
:102240004260C36149680164046230BD002C0140F2
:1022500010B5406A0021C185C184FFF7CFF810BDD9
:1022600001680C3151E8002F22F4907241E80023FC
:10227000002BF5D10168143151E8002F22F0010242
:1022800041E80023002BF5D1016B012909D1016838
:102290000C3151E8002F22F0100241E80023002BFE
:1022A000F5D1202180F8421000210163704708B564
:1022B00090F84210222901D0022008BD82684FF414
:1022C00080539A4201D1016921B1816A9A421BD09F
:1022D0004AB10AE00268816A5268C2F308020A80C1
:1022E000816A891C08E0026972B10268526802F0D2
:1022F0007F020A70816A491C8162C18D491E0904EE
:10230000090CC18503D01BE002685268F1E701683F
:10231000CA6822F02002CA600168CA6822F480728A
:10232000CA6001684A6922F001024A61202180F8EE
:10233000421000214163026B012A03D0FFF716FA15
:10234000002008BD016301680C3151E8002F22F024
:10235000100241E80023002BF5D101680A68D2067B
:1023600002D50A6849680091818DFFF746F8E7E7D2
:1023700070B5044600680169E26821F440511143D8
:1023800001612169A0680843616908432168CA683E
:1023900041F20C639A430243CA6020684169A26912
:1023A00021F44071114341611E492068884202D1E5
:1023B000FEF768FA01E0FEF755FA00EBC00101EB09
:1023C0000012606864218000B2FBF0F3B3FBF1F30C
:1023D0006FF018067343B2FBF0F5B2FBF0F605EBB5
:1023E0008305322303EB0515B5FBF1F5B6FBF1F6DA
:1023F00005F0F00505EB0615B2FBF0F6B2FBF0F0C8
:10240000B0FBF1F06FF01802504306EB800003EBD5
:102410000010B0FBF1F0216800F00F002844886044
:1024200070BD00000038014081628285C2850021B4
:102430004164222180F84210016921B10168CA6813
:1024400042F48072CA6001684A6942F001024A613E
:102450000068C16841F02001C160002070472DE98B
:10246000F041984617460E460446069D27E0681C34
:1024700025D02DB1FEF776F8A0EB0800A8421ED9B2
:1024800020680C3050E8001F21F4D07140E80012A1
:10249000002AF5D12068143050E8001F21F0010116
:1024A00040E80012002AF5D1202084F8410084F889
:1024B0004200002084F840000320BDE8F08120683D
:1024C000006836EA000004D00020B842CFD00020D7
:1024D000F3E70120F9E700000148FEF791BF000093
:1024E000D0030020FEE700000FB4054B10B503A990
:1024F000044A029800F028F810BC5DF814FB0000B4
:102500009D260008840000200907090E002804DB2E
:1025100000F1E02080F80014704700F00F0000F197
:10252000E02080F8141D704702E008C8121F08C19F
:10253000002AFAD170477047002001E001C1121F44
:10254000002AFBD1704700002DE9FF4F89B09B4660
:102550000446002506E025280BD05A460B999047E3
:10256000641C6D1C20780028F5D10DB02846BDE80C
:10257000F08F0027B8460122474900E0074314F8CE
:10258000013F203B02FA03F00842F7D120782E28C1
:1025900019D114F8010F47F004072A280ED06FF064
:1025A0002F022078A0F1300109290CD808EB88010E
:1025B00002EB410100EB0108641CF2E70A98641C7D
:1025C00050F8048B0A9020780028CED0642808D0D8
:1025D000692806D075281ED05A460B9990476D1C65
:1025E00058E00A994FF00A0901C90A91002802DA55
:1025F00040422D2102E0390504D52B218DF8201011
:10260000012103E0F90704D02021F7E78A4608AE4C
:102610000DE00021FAE70A994FF00A0901C90A9171
:10262000F7E74946FDF7EEFD303106F8011D0028B9
:10263000F7D1ADEB060000F12009780701D44FF087
:102640000108C84502DDA8EB090000E00020804633
:10265000002706E008A85A46C05D0B9990476D1CFC
:102660007F1C5745F6DB04E030205A460B99904713
:102670006D1CB8F10001A8F10108F5DC05E016F8C1
:10268000010B5A460B9990476D1CB9F10001A9F155
:102690000109F4DC641C65E70928010013B5FF2378
:1026A000012269460248FFF77BF800981CBD000034
:1026B000D0030020FDF764FFFFF7AEFCFFF7F4F84E
:1026C000FFF76AF9FFF7B8F9FFF744F9FFF71CFCC9
:1026D000FFF7F6F9FFF7C4FA00210C48FEF734FEC5
:1026E00004210A48FEF730FE08210848FEF72CFEB8
:1026F0000C210648FEF728FE0E2205490548FFF783
:1027000027F8FFF79DF800F014F8FEE78803002093
:1027100088000020D003002001460020842900D03A
:10272000C81C704710B500B9012000F033FB002031
:1027300010BD10B500F054FB002010BD38B5D0E935
:10274000011204683AB1C3682BB100200090204602
:1027500000F02AFC38BD2046BDE83840002200F0D9
:10276000FFBB7FB50D4604464169B0F9080081B151
:10277000A16971B1FFF7D0FFD4E905128DE8070018
:10278000D4E900102B46226900F0B3FC039004B09A
:1027900070BDFFF7C1FF03A9CDE90001208A2B46D8
:1027A00082B2D4E9001000F077FC012801D00020AB
:1027B000EDE70398EBE700002DE9F041184C0F46D8
:1027C000054666692068001D00F020FA38B92068C7
:1027D00090F82C1001208840A1698143A161681CF8
:1027E00007D137B12168BDE8F0410E48091D00F05E
:1027F00051BA20683544B5424560216805D2A068C9
:10280000BDE8F041091D00F02DBA6068091D00F017
:1028100029FA206B854200D22563BDE8F0810000D3
:10282000240000203C0500202DE9F041054600F081
:102830003DFA2E4C2069401C206120682C4F10B1BD
:10284000E06940B32DE025602069012829D10026E8
:1028500006EB860007EB800000F0F6F9761C072EE9
:10286000F6D323488C3000F0EFF92148A03000F077
:10287000EBF91F48B43000F0E7F91D48C83000F00C
:10288000E3F91B48DC3000F0DFF919488C30606058
:102890001430A06005E02068E96AC06A884200D868
:1028A0002560E06A401CE062E96A0120A269884074
:1028B0001043A06101EB810007EB8000291D00F0AF
:1028C000E9F900F013FAE06900280CD02068E96A01
:1028D000C06A884207D207494FF080500860BFF3B2
:1028E0004F8FBFF36F8FBDE8F08100002400002000
:1028F0006004002004ED00E010B5044690F851009B
:1029000058B101280CD002280FD0502080F3118834
:10291000BFF34F8FBFF36F8FFEE7206B00F0FAF924
:102920002046BDE8104000F0F5B910BD10484FF446
:102930004061420706D0C01D0D4920F00700411A32
:10294000C1F540610B4A00230144C2E90003083984
:10295000103A21F0070111604B600B600B1AC0E9BF
:10296000001393604FF000405360D0607047000048
:102970005005002070000020144E154CA6F1C80729
:102980004FF08058DFF84C9012E000BF00F08EF955
:10299000F068C568281D00F039F92069401E2061E3
:1029A000E068401EE06000F0A1F92846FFF7A4FFB0
:1029B000E0680028EAD138680128F9D9C9F8008010
:1029C000BFF34F8FBFF36F8FF2E7000028050020A1
:1029D0002400002004ED00E00346009829B10260C5
:1029E000C0E90F31012100F013BB0060F8E72DE9C9
:1029F000F0479A46DDE9098481466FF00303206BB6
:102A000003EB82021044089D20F00706700707D0F0
:102A1000502080F31188BFF34F8FBFF36F8FFEE715
:102A200023180A5C83F834200A5C12B1401C102879
:102A3000F6D3002784F84370072D00D30625E562FE
:102A4000C4E91157201D00F00AF904F1180000F044
:102A500006F92461C5F107006462A061E76484F8A7
:102A6000507052464946304600F0BEF82060B8F13A
:102A7000000F01D0C8F80040BDE8F08730B511491B
:102A800000E011460A688242FBD34B685C1884421E
:102A900003D1406818444860084643681C189442B3
:102AA00009D1084C103C2468A24209D052681A444B
:102AB00042600A6812680260814200D0086030BD3E
:102AC0000460F9E77000002006484168096829B1F0
:102AD0004168C968C9684968016370474FF0FF31B0
:102AE000FAE700002400002008484068401C4FF02E
:102AF000500080F3118804D0BFF34F8FBFF36F8F66
:102B0000FEE7BFF34F8FBFF36F8FFEE77800002023
:102B10002DE9F0410546002700F098F9314E306864
:102B200008B9FFF703FFF06805424BD1C5B308357C
:102B300068070ED005F00700C0F1080005446807DB
:102B400007D0502080F31188BFF34F8FBFF36F8FF2
:102B5000FEE72DB37068854234D822481030014614
:102B60000C6801E020460C466168A94202D2216847
:102B70000029F7D131688C4224D0076821680160B0
:102B800060680837411B10290FD96019420708D027
:102B9000502080F31188BFF34F8FBFF36F8FFEE794
:102BA00010E041606560FFF769FF61687068401A76
:102BB0007060B268904200D2B060F06801430020BB
:102BC000C4E9000100F05EFB780707D0502080F3D5
:102BD0001188BFF34F8FBFF36F8FFEE73846BDE814
:102BE000F08100006000002010B5031F4FF08074DA
:102BF0001C601B1F21F001011960191F024B0B60A3
:102C0000143940380A6010BDE92A0008D0E90132C1
:102C100001699A60D0E901235A604A68824201D171
:102C200082684A60002202610868401E08600868E5
:102C300070470000034B036003F1540008608020DC
:102C400010607047DC00002000F108014FF0FF32F7
:102C5000C0E90112C16001610021016070470021DB
:102C60000161704730B50B685A1C02D000F10802B0
:102C700002E0026904E02246546825689D42FAD9C0
:102C800053684B6099608A60516008610168491C13
:102C9000016030BD42684A6093688B6093685960F8
:102CA000916008610168491C01607047502080F301
:102CB0001188BFF34F8FBFF36F8F0A494868401CDC
:102CC000486001280CD10848006810F0FF0F07D0B9
:102CD000502080F31188BFF34F8FBFF36F8FFEE753
:102CE000704700007800002004ED00E008494868C3
:102CF00028B1401E486001D180F3118870475020F0
:102D000080F31188BFF34F8FBFF36F8FFEE7000092
:102D10007800002070B5002827D0144DA0F10804D9
:102D20006168E868014207D1502080F31188BFF341
:102D30004F8FBFF36F8FFEE722683AB1502080F3C8
:102D40001188BFF34F8FBFF36F8FFEE78143616040
:102D500000F07CF860686968084468602046FFF706
:102D60008DFEBDE8704000F08DBA70BD600000209F
:102D70004FF0E02000210161816105494FF47A7232
:102D80000968B1FBF2F1491E4161072101617047F9
:102D90002000002010B5020014D00F48806B38B11D
:102DA000502080F31188BFF34F8FBFF36F8FFEE782
:102DB00000F04CF800211046FFF7FEFC00F062FA2C
:102DC000002807D105494FF080500860BFF34F8FAE
:102DD000BFF36F8F10BD00002400002004ED00E061
:102DE00010B586B00024039405AA04A903A804948E
:102DF000FFF720FFDDE903010094CDE90110002376
:102E00000EA11048059A00F074F90F490028486394
:102E100011D0502080F31188BFF34F8FBFF36F8F15
:102E20004FF0FF3008630120C8614C6106B0BDE877
:102E3000104000F041B806B010BD000049444C45B8
:102E40000000000079290008240000200248816B5E
:102E5000491C816370470000240000201448816BE6
:102E600011B1012141627047002141628169B1FACB
:102E700081F1C1F11F0101EB81020E4951F82230AD
:102E80006BB101EB820101F108034A6852684A60A4
:102E90009A4201D152684A60D1680160704750205F
:102EA00080F31188BFF34F8FBFF36F8FFEE70000F1
:102EB00024000020600400201CB5264908780190F9
:102EC000FF20087008788DF800009DF800009DF83C
:102ED000002000F0F000904207D0502080F31188CD
:102EE000BFF34F8FBFF36F8FFEE79DF800001A4BC3
:102EF00000F0500018700720986005E09DF8002051
:102F000052008DF80020401E9DF800201206F5D4D6
:102F10009860032807D0502080F31188BFF34F8FAB
:102F2000BFF36F8FFEE74FF4407098600198087010
:102F30000A48016841F470010160016841F0704184
:102F40000160FFF715FF00205860FDF7EBF8002047
:102F50001CBD000000E400E07800002020ED00E04F
:102F6000F8B517460E46050014D0DEB105FB06F095
:102F70004830FFF7CDFD04000AD0002084F8460059
:102F800004F148023B46314628460094FFF724FDF1
:102F90002046F8BD502080F31188BFF34F8FBFF358
:102FA0006F8FFEE70020E3E738B5049D18B153B1F9
:102FB000CAB181B120E0502080F31188BFF34F8F58
:102FC000BFF36F8FFEE7502080F31188BFF34F8F60
:102FD000BFF36F8FFEE7502080F31188BFF34F8F50
:102FE000BFF36F8FFEE739B1502080F31188BFF334
:102FF0004F8FBFF36F8FFEE748241C46012384F8F0
:1030000046302B460094FFF7E7FC204638BD000011
:1030100070B50D46040025D0FFF748FED4E90F2017
:10302000216802FB001161600021A1632168A16099
:103030000A46D4E90F01401E00FB0121E160214650
:103040004FF0FF3001F8440F487004F110008DB1CB
:10305000FFF7FAFD04F12400FFF7F6FDFFF746FE47
:10306000012070BD502080F31188BFF34F8FBFF354
:103070006F8FFEE721690029F0D000F0C9F8002821
:10308000ECD004494FF080500860BFF34F8FBFF37E
:103090006F8FE3E704ED00E02DE9FF5F8346DDE994
:1030A0000E87994616468A469000FFF731FD0500C7
:1030B0001CD05420FFF72CFD040014D00020256301
:1030C00084F85100CDE90240CDE900874B463246F5
:1030D00051465846FFF78BFC2046FFF7A5FB012021
:1030E00004B0BDE8F09F2846FFF714FE4FF0FF3014
:1030F000F6E7F0B585B0DDE90B640A9DA6B1DCB159
:10310000542700972663022684F85160002604AFF6
:10311000CDE90246CDE90057FFF769FC2046FFF7ED
:1031200083FB049805B0F0BD502080F31188BFF3F5
:103130004F8FBFF36F8FFEE7502080F31188BFF3EE
:103140004F8FBFF36F8FFEE72DE9F0412E4C002724
:10315000A06B40B1206A401C2062606A00B1012768
:103160003846BDE8F0816669761C666113D16068F7
:10317000006838B1502080F31188BFF34F8FBFF340
:103180006F8FFEE76068A1686160A060A06A401C64
:10319000A062FFF799FC206BDFF87080864209D3AC
:1031A0006068006880B16068C068C5686868864209
:1031B0000DD220632068C06A00EB800158F821001E
:1031C0000128CAD90127C8E74FF0FF30F1E7281DD1
:1031D000FFF71CFDA86A18B105F11800FFF716FDEE
:1031E000E86A0121A26981401143A16100EB8001DD
:1031F00008EB8100291DFFF74DFDE86A2168C96AC7
:103200008842CDD30127CBE72400002060040020B2
:103210002DE9F041C068C468ACB104F1180007465C
:10322000FFF7F4FC154DA86B0126A0B139461448F0
:10323000FFF730FDE06A2968C96A88421CD901207D
:103240006E62BDE8F081502080F31188BFF34F8F8C
:10325000BFF36F8FFEE7201DFFF7D8FCE16AAA6974
:1032600006FA01F01043A86101EB81000449B4396A
:1032700001EB8000211DDBE70020E2E724000020B5
:10328000140500202DE9F0472C4D00242746A86B9B
:1032900038B1FFF70BFDA86B401EA863A86B40B1C7
:1032A00046E0502080F31188BFF34F8FBFF36F8F3C
:1032B000FEE72969224E0120D1B3A6F1B409804668
:1032C0003068E8B1F068C46804F11800FFF79EFCAC
:1032D000201DFFF79BFCE06AAA6908FA00F1114380
:1032E000A96100EB800109EB8100211DFFF7D2FCF1
:1032F000E06A2968C96A8842E2D3C5F82480DFE71A
:103300000CB1FFF7E1FB2C6A44B14646FFF71CFF06
:1033100000B16E62641EF9D100202862686A38B17B
:103320000849012738070860BFF34F8FBFF36F8F3D
:10333000FFF7DCFC3846BDE8F087000024000020E1
:103340001405002004ED00E0100000000200000061
:103350000000000000000000F83300081B1F0008F8
:1033600000000000000000008000000000000000DD
:1033700000000000E0330008E51F00080000000026
:1033800000000000800000000000000000000000BD
:10339000EC330008251F00080200000000000000B8
:1033A0008000000000000000000000003443101006
:1033B0000134431010010102020304050607080945
:1033C0000A0B0C0D0E0F1010000000000000000092
:1033D00001020304060708090000000001020304BB
:1033E000554152545F5461736B000000536572760F
:1033F0006F5F5461736B000064656661756C745433
:1034000061736B0024340008000000208800000075
:1034100028250008AC34000888000020C8140000EB
:103420003825000800000000000000000000000037
:10343000000000000000000001000000100000007B
:10344000000000000024F400000000000000000064
:10345000000000000000000000000000000000006C
:10346000000000000000000000000000000000005C
:10347000000000000000000000000000000000004C
:10348000000000000000000000000000000000003C
:10349000000000000000000000000000000000002C
:0C34A000AAAAAAAA000000000000000078
:04000005080000ED02
:00000001FF
