:020000040800F2
:1000000030230020210200080B1C00087118000892
:10001000091C00088704000861280008000000008F
:10002000000000000000000000000000890100083E
:10003000A704000800000000CD010008C12400084A
:100040003B0200083B0200083B0200083B0200089C
:100050003B0200083B0200083B0200083B0200088C
:100060003B0200083B0200083B0200083B0200087C
:100070003B0200083B0200083B0200083B0200086C
:100080003B0200083B0200083B0200083B0200085C
:100090003B0200083B0200083B0200083B0200084C
:1000A0003B0200083B0200083B0200083B0200083C
:1000B0003B0200083B0200083B0200083B0200082C
:1000C0003B0200083B0200083B0200083B0200081C
:1000D0003B0200083B020008492800085528000898
:1000E0003B0200083B0200083B02000800F002F857
:1000F00000F03AF80AA090E8000C82448344AAF188
:100100000107DA4501D100F02FF8AFF2090EBAE885
:100110000F0013F0010F18BFFB1A43F0010318473B
:100120003062000050620000103A24BF78C878C1E5
:10013000FAD8520724BF30C830C144BF04680C60ED
:10014000704700000023002400250026103A28BF35
:1001500078C1FBD8520728BF30C148BF0B60704739
:100160001FB51FBD10B510BD00F058F91146FFF7BF
:10017000F7FF03F0D3F900F076F903B4FFF7F2FFCD
:1001800003BC00F079F90000224B19680868B0E858
:10019000F00F80F30988BFF36F8F4FF0000080F3FA
:1001A00011884EF00D0E70470000000006480068F0
:1001B000006880F3088862B661B6BFF34F8FBFF363
:1001C0006F8F00DF00BF00BF08ED00E0EFF3098094
:1001D000BFF36F8F0F4B1A6820E9F00F106008B55E
:1001E0004FF0500080F31188BFF34F8FBFF36F8F34
:1001F00004F072F94FF0000080F31188BDE8084068
:1002000019680868B0E8F00F80F30988BFF36F8FB2
:10021000704700BF2C000020EFF3058070470000FE
:100220000948804709480047FEE7FEE7FEE7FEE78A
:10023000FEE7FEE7FEE7FEE7FEE7FEE704480549C6
:10024000054A064B7047000037250008ED000008FE
:10025000301D002030230020301F0020301F0020E0
:10026000032A40F2308010F0030C00F0158011F8E2
:10027000013BBCF1020F624498BF11F801CB00F8BA
:10028000013B38BF11F8013BA2F1040298BF00F80E
:1002900001CB38BF00F8013B11F0030300F062808E
:1002A000083AC0F0088051F8043B083A51F804CBF2
:1002B000A0E80810F5E7121D5CBF51F8043B40F8B8
:1002C000043BAFF30080D20724BF11F8013B11F8C3
:1002D00001CB48BF11F8012B24BF00F8013B00F807
:1002E00001CB48BF00F8012B704702F0FF0343EA3F
:1002F000032242EA024200F069B84FF0000200B562
:10030000134694469646203922BFA0E80C50A0E838
:100310000C50B1F12001BFF4F7AF090728BFA0E8E6
:100320000C5048BF0CC05DF804EB890028BF40F8B2
:10033000042B08BF704748BF20F8022B11F0804FF4
:1003400018BF00F8012B704770477047704710B511
:1003500000F05CF8006810BD10B5044600F056F8D7
:10036000046010BD10B5203AC0F00B80B1E8185001
:10037000203AA0E81850B1E81850A0E81850BFF48F
:10038000F5AF5FEA027C24BFB1E81850A0E818502E
:1003900044BF18C918C0BDE810405FEA827C24BF82
:1003A00051F8043B40F8043B08BF7047D20728BF10
:1003B00031F8023B48BF11F8012B28BF20F8023B5F
:1003C00048BF00F8012B70474FF000020429C0F02D
:1003D000128010F0030C3FF492AFCCF1040CBCF18E
:1003E000020F18BF00F8012BA8BF20F8022BA1EBC9
:1003F0000C01FFF784BF5FEAC17C24BF00F8012B2A
:1004000000F8012B48BF00F8012B704700487047E7
:10041000D01C002000487047D01C00207546FFF714
:10042000F9FFAE4605006946534620F007008546B1
:1004300018B020B5FFF702FFBDE820404FF00006DE
:100440004FF000074FF000084FF0000B21F00701BC
:10045000AC46ACE8C009ACE8C009ACE8C009ACE8FF
:10046000C0098D46704710B50446AFF300802046A2
:10047000BDE81040FFF781BE01491820ABBEFEE782
:10048000260002007047FEE710B503460022104622
:1004900006E000BF13F8014B521C2044C0B2D2B298
:1004A0008A42F7D310BD704772B6FEE710B504005C
:1004B00002D0607910B106E0012010BD002020714B
:1004C000204600F005F801206071002010BD0000FA
:1004D00008B500680649884208D10648416941F0DC
:1004E00040014161406900F04000009008BD0000FB
:1004F000003002400010024010B590F82110002298
:10050000022905D00421816380F82020012010BD3C
:1005100001680B6823F00E030B6001680B6823F081
:1005200001030B6090F84030C46B012101FA03F322
:10053000636080F8211080F82020104610BD000074
:1005400010B590F821100024022903D00421816302
:1005500001243DE001680A6822F00E020A60016889
:100560000A6822F001020A601A4A0168914201D128
:10057000012121E0174A1432914201D110211BE0E0
:10058000144A2832914201D1891515E0114A3C32B2
:10059000914201D189140FE00E4A5032914202D1AA
:1005A0004FF4803108E00B4A6432914202D14FF49B
:1005B000801101E04FF08071064A083A5160012134
:1005C00080F82110002180F82010416B01B188478C
:1005D000204610BD080002402DE9F84FDFF8B89121
:1005E0000024A9F1040B23460F2709F1040AABF1FB
:1005F000040EC9E00125A5402A40AA427DD1674EDC
:10060000D1F804C0ACEB0608B44532D014DCBCF120
:10061000030F3AD009DCBCF1000F2AD0BCF1010F66
:100620001CD0BCF1020F31D11DE0BCF1110F17D06D
:10063000BCF1120F2AD119E0B8F5881F19D006DCD9
:10064000B8F5803F15D0B8F5801F1FD111E0B8F57F
:10065000001F0ED0B8F5041F18D10AE0CB6815E0D2
:10066000CB681B1D12E0CB6808330FE0CB680C335E
:100670000CE08B682BB1012B4FF0080303D04561D0
:1006800004E0042302E0056100E00023FF2A01D812
:10069000064601E000F104064FEA840501D9A5F100
:1006A0002005D6F8008007FA05FC28EA0C0803FAB2
:1006B00005F548EA0508C6F800804D68ED0062D5EA
:1006C000374DAE6946F00106AE61AD6924F0030610
:1006D00005F001050095334D06EB050CDCF80850DC
:1006E000A607360F07FA06F825EA0805DFF8B880EE
:1006F000404503D14FF0000817E044E0DFF8AC803C
:10070000404502D14FF001080FE0DFF8A4804045DA
:1007100002D14FF0020808E0DFF89880404502D18E
:100720004FF0030801E04FF0040808FA06F848EA21
:100730000508CCF808804D68D9F80060ED024D46F8
:1007400001D5164300E096432E604D68DAF800604C
:10075000AD02554601D5164300E096432E604D6824
:10076000DBF80060AD035D4601D5164300E096431B
:100770002E604D68DEF80060ED03754601D5164326
:1007800000E096432E60641C0D682A46E5407FF425
:1007900031AFBDE8F88F00000804014000001110DF
:1007A000001002400000014000080140000C014020
:1007B0000010014000140140C26821EA02030A400F
:1007C00043EA0241016170470AB1016170470904BF
:1007D000FBE7000001488068704700001C00002013
:1007E00070B5040025D094F83D00002520B984F8A8
:1007F0003C50204600F0B8F8242084F83D002068E2
:10080000016821F0010101602068016841F40041A4
:1008100001602068016821F40041016000F010FAD5
:100820004D4A6168914201D84C4900E04C498842E8
:1008300001D2012070BD4B492368B0FBF1F15E6825
:1008400026F03F060E435E606368934206D94FF47C
:10085000967359434FF47A73B1FBF3F12368491C43
:100860001E6A26F03F06314319626168914210D832
:100870004900401EB0FBF1F2521CC2F30B02042AE5
:1008800001D2042022E0B0FBF1F0401CC0F30B00C9
:100890001CE0A268F2B301EBC10303EB0116431E97
:1008A000B3FBF6F35B1C43F480431B0549D092B3C2
:1008B00001EBC10202EB0111401EB0FBF1F0401C44
:1008C000C0F30B0040F4804040F400402168CA6946
:1008D0004CF6FF739A431043C861D4E907100143F3
:1008E0002068026822F0C00211430160D4E90301CC
:1008F00001432068826848F2FF339A4311438160C4
:10090000D4E9050108432168CA6822F0FF021043B8
:10091000C86001E00EE016E02068016841F00101C6
:1009200001602564202084F83D00256384F83E5052
:10093000002070BD01EB4106431EB3FBF6F35B1CC8
:10094000B3E70120C2E701EB4101401EB0FBF1F02B
:10095000401CC0F30B00B7E7A086010080841E0096
:1009600000093D0040420F0010B586B00021009103
:1009700001910291039100681349884222D1134CDE
:10098000A06940F00800A061A069694600F0080075
:1009900004904FF4407000901220019003200390C7
:1009A0000B48FFF719FE0B48416841F0E06141F048
:1009B00002014160E06940F40010E061E06900F488
:1009C0000010049006B010BD00540040001002401A
:1009D000000C014000000140024881680278114487
:1009E000816070471C000020074810B5016841F085
:1009F00010010160032000F07BF80F2000F006F8E2
:100A000000F024F8002010BD0020024070B50D4D0C
:100A100004464FF47A712878B1FBF0F00A4909686E
:100A2000B1FBF0F000F094FB48B9102C07D2002283
:100A30002146501E00F03CF800206C6070BD012083
:100A400070BD00001C000020280000200F4808B5E1
:100A5000816941F001018161816901F00101009129
:100A6000C16941F08051C161C069002200F080502D
:100A700000900F21901E00F01BF80548416821F0FE
:100A8000E06141F00071416008BD000000100240CB
:100A900000000140002809DB00F01F020121914005
:100AA0004009800000F1E020C0F80011704700000C
:100AB000F0B40E4B1B680C46C3F30223C3F10705C9
:100AC000042D00D90425191D072901D2002300E0B7
:100AD000DB1E012606FA05F1491E214099409E4081
:100AE000761E16403143F0BC01F0E2BE0CED00E092
:100AF000064900F0070208684FF6FF03184040EA75
:100B00000220034A10430860704700000CED00E02B
:100B10000000FA052DE9F0470F46050061D0434E6D
:100B2000306800F00700B84209D2306820F00700B2
:100B300038433060306800F00700B84251D128686F
:100B40003B4C810712D5400703D5606840F4E06054
:100B500060602878000703D5606840F460506060EA
:100B60006068A96820F0F000084360602878C0073A
:100B700028D06868012810D02168022810D0890781
:100B800000292EDA616821F0030101436160FFF75B
:100B900021FE804641F288390DE021688903EFE7A4
:100BA0008901EDE7FFF716FEA0EB0801494502D9E0
:100BB0000320BDE8F0876068696800F00C00B0EBC6
:100BC000810FEFD1306800F00700B8420BD93068D0
:100BD00020F0070038433060306800F00700B8426A
:100BE00001D00120E5E72878400705D56068E9686D
:100BF00020F4E060084360602878000706D560684C
:100C0000296920F4605040EAC100606000F038F8C3
:100C10006168084AC1F30311515CC8400649086085
:100C200006480068FFF7F2FE0020C2E700200240FD
:100C300000100240FA600008280000202000002078
:100C40000448054900684968044AC1F30221515C1F
:100C5000C840704728000020001002400A610008C8
:100C60000448054900684968044AC1F3C221515C3F
:100C7000C840704728000020001002400A610008A8
:100C80000E4A51680E4801F00C03042B11D0082BBA
:100C90000FD10C48C1F38343C903C05C0AD5516826
:100CA000084AC1F34041921E515C054A5043B0FBD3
:100CB000F1F07047044948437047000000100240BB
:100CC00000127A00EA60000800093D002DE9F84FA3
:100CD000040070D02078C04DC00749D06868C0F3C8
:100CE0008100012807D06868C0F38100022809D17B
:100CF0006868C00306D52868800339D56068002875
:100D0000E7D035E06068B0F5803F0BD010B1B0F5AA
:100D1000A02F11D0286820F480302860286820F4A3
:100D2000802002E0286840F480302860606890B13C
:100D3000FFF750FD06460AE0286840F4802028604E
:100D4000F0E700BFFFF746FD801B642873D82868D2
:100D50008003F7D50CE0FFF73DFD064605E000BF38
:100D6000FFF738FD801B6428F0D828688003F7D48B
:100D700020789A4E80074FF001094FF0000839D5CE
:100D8000686810F00C0F07D06868C0F38100022873
:100D900009D16868C00306D42868800714D5206983
:100DA000012808D110E02069B0B1C6F80090FFF723
:100DB00011FD074605E00AE1FFF70CFDC01B022804
:100DC000C4D828688007F7D52868616920F0F80042
:100DD00040EAC10028600DE0C6F80080FFF7FAFC89
:100DE000074604E0FFF7F6FCC01B022823D828685A
:100DF0008007F7D4207800072CD57948A169D9B1AC
:100E0000C0F80090FFF7E6FC074604E0FFF7E2FCBD
:100E1000C01B02280FD8686A8007F7D571484FF4C5
:100E2000FA510068B0FBF1F0009000BF0098411E3D
:100E30000091FAD20EE080E0C0F80080FFF7CAFC13
:100E4000074604E0FFF7C6FCC01B022875D8686A95
:100E50008007F7D42078400760D5E8690027C000F4
:100E600008D4E86940F08050E861E869012700F0A3
:100E7000805000905C480168C90513D4016883461E
:100E800041F480710160FFF7A5FC824606E000BFD7
:100E9000FFF7A0FCA0EB0A0064284ED8DBF80000A6
:100EA000C005F5D5E06801280AD008B1052813D09F
:100EB000286A20F001002862286A20F0040002E07D
:100EC000286A40F001002862E06841F2883B98B14E
:100ED000FFF780FC82460BE0286A40F0040028629D
:100EE000EEE700BFFFF776FCA0EB0A0159455AD8A0
:100EF000286A8007F6D50CE0FFF76CFC824605E017
:100F0000FFF768FCA0EB0A0159454CD8286A800716
:100F1000F6D41FB1E86920F08050E861E06988B339
:100F20006968C1F38101022944D00228C6F86080B3
:100F300004D0FFF74FFC044638E034E0FFF74AFCEA
:100F4000074604E0FFF746FCC01B02282BD82868A0
:100F50008001F7D4206AB0F5803F05D16868A168A8
:100F600020F4003008436860D4E908010843696848
:100F700021F4741108436860C6F86090FFF72AFCFA
:100F8000044606E025E000BFFFF724FC001B022812
:100F900009D828688001F7D51BE000BFFFF71AFCCD
:100FA000001B022802D90320BDE8F88F28688001C1
:100FB000F4D40EE00128F7D06868226A00F480318A
:100FC000914204D1616A00F47010884201D001207E
:100FD000EAE70020E8E7000000100240000042427B
:100FE00080044242280000200070004070B50400D8
:100FF00009D0606A002540B125616561A56294F859
:10100000510040B10CE0012070BD6068B0F5827FF6
:10101000F4D0E561F2E784F85050204600F040F843
:10102000022084F851002068016821F0400101602D
:10103000A088218900F4827001F404410843A18949
:1010400001F400610843217C01F002010843217D85
:1010500001F001010843218B01F400710843217F55
:1010600001F03801084394F8201001F08001084392
:10107000218D01F40051084321680860A069042112
:1010800001EA1040216848602068C16921F40061CC
:10109000C1616565012084F85100002070BD000029
:1010A00030B585B000240094019402940394234D3C
:1010B0000368234802210322AB4216D1836943F41B
:1010C00080538361836903F480530493836943F0FD
:1010D000040383618069039200F004000490A0205F
:1010E000CDE900016946174823E0174DAB4222D1F4
:1010F000C36943F48043C361C36903F48043049329
:10110000836943F0080383618069104D00F0080093
:1011100004904FF42040CDE900010392694628462F
:10112000FFF75AFA4FF48040CDE90004694628469B
:101130000294FFF751FA05B030BD000000300140C5
:10114000001002400008014000380040000C01403F
:1011500010B5401EB0F1807F01D3012010BD4FF0CB
:10116000E02460610F21601701F0A2FB0020A06164
:1011700007202061002010BD70B590F83C20012AA6
:1011800026D0012480F83C40022280F83D200368EC
:101190005A689D6822F070060A6832435A600D4B07
:1011A00002689A4208D0B2F1804F05D00A4B9A42A9
:1011B00002D00A4B9A4204D1496825F080031943B2
:1011C000916080F83D40002180F83C10084670BDD9
:1011D000022070BD002C01400004004000080040C7
:1011E0002DE9F0410D46040003D094F83D0018B1FC
:1011F00008E00120BDE8F081002084F83C00204692
:1012000000F040F8022084F83D002068816844F234
:10121000070291438160211D206801F08DF9226849
:1012200090689169166A2B68AF69034340F20330F6
:10123000814341EA0721A868EF6908434FF6FC4162
:101240008843E96840EA0720014328692F6A0001C2
:1012500040EA0730084369686D6926F0220646EACD
:101260000515294393602268906154F8460B01628A
:10127000012004F81F09E0752076E0762077A0753C
:101280000020B7E700B585B00021009101910291DF
:101290000391194B0268194919489A4212D18A6977
:1012A00042F400628A618A6902F4006204928A69E7
:1012B00042F004028A61896901F0040104914FF44B
:1012C000407113E0B2F1804F14D1CA6942F00102BB
:1012D000CA61CA6902F0010204928A6942F00402FA
:1012E0008A61896901F00401049103210091694632
:1012F000FFF772F905B000BD002C0140001002405C
:101300000008014070B590F83E60044690F83F50E8
:1013100090F8423090F84320022021B104290ED0E9
:10132000012E1BD114E0012E18D1012B16D184F807
:101330003E0084F8420001220021206820E0012DB7
:101340000CD1012A0AD184F83F0084F8430014E04C
:10135000012D03D1012B01D1012A01D0012070BD43
:1013600084F83E0084F83F0084F8420084F843008B
:1013700001220021206801F015F9012204212068D2
:1013800001F010F92068016841F0010101600020BE
:1013900070BD704770470000F8B5016804460868E2
:1013A000CA684B6910F00F0F4FF0000559D003F0D9
:1013B000010602F49077374365D0C10705D0D10507
:1013C00003D5616C41F001016164410705D5D9077E
:1013D00003D0616C41F002016164810705D5D90732
:1013E00003D0616C41F004016164010707D502F08C
:1013F0002001314303D0616C41F008016164616CEC
:1014000000293AD0800604D5900602D5204601F086
:1014100005F920684069616CC0F38010090700D4A9
:1014200060B3204601F0D3F820684069400621D51A
:101430002068143050E8001F21F0400140E80012FD
:10144000002AF5D1E06BA8B16D494163E06BFFF76D
:1014500077F8002811D0E06B416B01B0BDE8F04097
:10146000084783060FD593060DD52046BDE8F84002
:1014700001F0D4B82046FFF78DFFF8BD2046FFF7F6
:1014800089FF6564F8BD266B2023012E7CD1C6063A
:101490007AD5D60678D508684868009048694FF034
:1014A0000206400640D5E16B086840680004000C65
:1014B000E8D0A28D8242E5D9E085886920282DD028
:1014C00020680C3050E8001F21F4807140E80012C1
:1014D000002AF5D12068143050E8001F21F00101E6
:1014E00040E80012002AF5D12068143050E8001FAF
:1014F00021F0400140E80012002AF5D184F8423082
:10150000256320680C3050E8001F21F0100140E8EE
:101510000012002AF5D1E06BFEF7EEFF6663A08DA6
:10152000E18D401A81B22AE0A08DE18D401A81B28E
:10153000E08D0028A6D00029A4D022680C3252E801
:10154000000F20F4907042E80007002FF5D12068CA
:10155000143050E8002F22F0010240E80027002F4D
:10156000F5D184F84230256320680C3050E8002F14
:1015700022F0100240E80023002BF5D166632046DC
:10158000FFF707FFF8BDFFE705062BD5150629D5A0
:1015900094F841002128F5D1A068B0F5805F01D111
:1015A0002069B0B1206A411C21622168007848603E
:1015B000E08C401E0004000CE084E3D12068C16888
:1015C00021F08001C1602068C16841F04001C16024
:1015D000D8E7206A0088C0F308004860206A801CB1
:1015E0002062E5E74006CDD55006CBD5CA68204637
:1015F00022F04002CA6084F8413000F038F9C1E7B7
:10160000BF25000870B5040004D094F841000025FF
:1016100010B106E0012070BD84F84050204600F073
:1016200023F8242084F841002068C16821F4005187
:10163000C160204601F054F82068016921F490410E
:1016400001612068416921F02A0141612068C16877
:1016500041F40051C1606564202084F8410084F8A1
:1016600042006563002070BD70B586B00024009410
:10167000019402940394444E0368444902200322D7
:10168000434DB34228D18B6943F480438B618B690E
:1016900003F4804304938B6943F008038B618969E9
:1016A000039201F0080104914021CDE90010694640
:1016B0002846FEF791FF8020CDE9000469462846C0
:1016C0000294FEF789FF3348416841F0E06141F040
:1016D0000401416006B070BD2F4EB34227D1CB69E3
:1016E00043F40033CB61CB6903F4003304938B697B
:1016F00043F004038B618969284D01F004010491D2
:101700000421CDE90010039269462846FEF764FFE4
:101710000820CDE90004694628460294FEF75CFFE4
:10172000002205212620FFF7C3F9262028E01C4EC1
:10173000B342CFD1CB6943F48023CB61CB6903F4AF
:10174000802304938B6943F008038B6189690392BA
:1017500001F0080104913115CDE9001069462846D1
:10176000FEF73AFFF014CDE90004694628460294DA
:10177000FEF732FF002205212720FFF799F92720E5
:10178000FFF788F9A6E7000000380140001002408A
:10179000000C0140000001400044004000080140EE
:1017A0000048004090F84230202B01D002207047C2
:1017B00021B11AB10023036300F0EEBF012070478E
:1017C00000680349884201D102F0C8BB704700009D
:1017D000004400402DE9F843044690F841001F46BC
:1017E00016460D46202802D00220BDE8F8837DB1C0
:1017F00076B100206064212084F84100FEF7EAFF02
:10180000A6848046E684A068B0F5805F02D003E03D
:101810000120EAE7206910B12E4600250EE00026DF
:101820000CE08021204600F0D2FFA0B9AEB116F83E
:10183000010B21684860E08C401EE084E08C434648
:101840004FF0000200970028EBD14FF040012046F6
:1018500000F0BDFF30B10320C7E735F8020BC0F33D
:101860000800E6E7202084F841000020BDE770472B
:10187000FEE70000074910B5054808600846FEF776
:1018800015FE002803D0BDE81040FEF70DBE10BDC8
:10189000003002401400002010B50E4A00210E480E
:1018A00001F0EAFE0D4C0B4A0021606024320C4826
:1018B00001F0E2FE074AA06048320021094801F029
:1018C000DBFE044AE0606C320021074801F0D4FEE0
:1018D000206110BD58600008B924000800000020F5
:1018E000053400084D240008652800082DE9F0475C
:1018F00086B000242D4800940194029403948169D9
:1019000041F010018161816901F010010491816948
:1019100041F020018161816901F020010491816918
:1019200041F004018161816901F004010491816940
:1019300041F0080181618069DFF8748000F00800DF
:101940004FF400550490002229464046FEF73CFF24
:10195000DFF860904FF44567002239464846FEF7AD
:1019600033FFDFF854A0002203215046FEF72CFF7E
:101970000095022601250396CDE9015469464046AB
:10198000FEF72AFE00970396CDE9015469464846C2
:10199000FEF722FE0320CDE90005CDE902466946A7
:1019A0005046FEF719FE06B0BDE8F0870010024071
:1019B0000010014000080140000C01400D4810B526
:1019C0000B4901600C49416000214FF48042816065
:1019D000C0E9031241618161C1610162FEF700FF4C
:1019E000002803D0BDE81040FEF75EBD10BD00002A
:1019F00000540040B0000020A0860100104810B53F
:101A00000E4901604FF48271416000218160C16024
:101A10004FF400720161C0E905121022C0E90721EC
:101A2000416281620A21C162FFF7E0FA002803D017
:101A3000BDE81040FEF738BD10BD00000030014089
:101A400004010020104810B50E4901604FF4827166
:101A5000416000218160C1604FF400720161C0E902
:101A600005121022C0E90721416281620A21C16288
:101A7000FFF7BCFA002803D0BDE81040FEF714BD04
:101A800010BD0000003800405C01002010B58CB093
:101A900024216846FEF731FC0024164809941449B5
:101AA0000A94C0E900144FF6FF71C0E902410461D5
:101AB000446184610120CDE90004CDE9020404946D
:101AC000CDE90540079469460A480894FFF788FB6A
:101AD00008B1FEF7E9FC099409A906480A94FFF742
:101AE0004BFB002801D0FEF7DFFC0CB010BD00005E
:101AF000002C0140B401002010B58CB024216846B0
:101B0000FEF7FBFB0024154809944FF080410A942E
:101B1000C0E900144FF6FF71C0E90241046184611D
:101B20000120CDE90004CDE902040494CDE905408B
:101B30000794694609480894FFF752FB08B1FEF77D
:101B4000B3FC099409A905480A94FFF715FB00287E
:101B500001D0FEF7A9FC0CB010BD0000FC01002074
:101B60000C4810B50A4901604FF4E1314160002191
:101B700081600C22C160C0E904128161C161FFF77C
:101B800041FD002803D0BDE81040FEF78DBC10BD1C
:101B900000380140440200200C4810B50A49016099
:101BA0004FF4E1314160002181600C22C160C0E945
:101BB00004128161C161FFF725FD002803D0BDE853
:101BC0001040FEF771BC10BD004400408C020020A4
:101BD0000C4810B50A4901604FF4E1314160002121
:101BE00081600C22C160C0E904128161C161FFF70C
:101BF00009FD002803D0BDE81040FEF755BC10BD1C
:101C000000480040D4020020FEE7FEE72DE9F04F37
:101C1000FE48DFF8FCA3DFF8FC930068FE4EDFF817
:101C2000FC8387B0FE4DB0F17C5F05F110047CDAD7
:101C3000F64F10F1FF4F78D203F0D0FE3246434604
:101C400003F0F2FB012204F0C0F903F059F97860C7
:101C500003F0C4FE01F0F8FB0022F24B03F0E2FCBB
:101C60000022F14B03F0E0FB4FF0FF3204F0ADF93E
:101C70000022534603F076F903F042F9C5E9000962
:101C8000C5E90209786803F0A9FE02F0BBF98246B3
:101C90008B46786803F0A2FE814652465B4601916E
:101CA00003F0B2FD0022E14B03F0BEFB3246434697
:101CB00003F008FA0022DE4B03F054F903F020F998
:101CC00020604846019902F09DF983468A4678686B
:101CD00003F084FE81465A465346019103F094FD79
:101CE0000022D44B03F0A0FB3246434603F0EAF94E
:101CF0000022D14B03F036F903F002F96060484648
:101D0000019902F07FF983468A46786803F066FEFF
:101D100081465A465346019103F076FD0022C34B9B
:101D200003F082FB3246434600E020E003F0CAF9AC
:101D30000022C24B03F016F903F0E2F8A060484617
:101D4000019902F05FF981468A46786803F046FE01
:101D50004A46534603F058FD0022B64B03F064FB9D
:101D60003246434603F0AEF90022B54BA5E06FF0D2
:101D70007C51B44AA54F014491427DD203F02EFE1E
:101D80000022B14B03F040FD3246434603F04CFBCA
:101D9000012204F01AF903F0B3F87860C5F8009056
:101DA00003F01CFE01F050FB00229E4B03F03AFCB6
:101DB00000229D4B03F038FB4FF0FF3204F005F991
:101DC0000022534603F0CEF803F09AF8C5E9010962
:101DD000E860786803F002FE02F014F982468B4650
:101DE000786803F0FBFD814652465B46019103F0A3
:101DF0000BFD00228F4B03F017FB3246434603F0E6
:101E000061F900228C4B03F0ADF803F079F8206003
:101E10004846019902F0F6F882468B46786803F04E
:101E2000DDFD814652465B46019103F0EDFC002248
:101E30007E4B03F0F9FA3246434603F043F90022A1
:101E40007B4B03F08FF803F05BF860604846019924
:101E500002F0D8F882468B46786803F0BFFD8146D1
:101E600052465B46019103F0CFFC0022714B03F018
:101E7000DBFA3246434600E024E003F023F9002277
:101E80006F4B03F06FF803F03BF8A06048460199F0
:101E900002F0B8F881468A46786803F09FFD4A460A
:101EA000534603F0B1FC0022604B03F0BDFA32460A
:101EB000434603F007F90022604B03F053F803F0A8
:101EC0001FF8E0602868014603F00CFF0746206811
:101ED000014603F007FF394603F0ACFD03F07EFD39
:101EE00002F0F0F8594A5A4B03F09EFA0746286868
:101EF0008946014603F0F6FE82462068014603F05B
:101F0000F1FE514603F096FD03F068FD514A524B35
:101F100003F028F80022514B03F076FC3A464B467A
:101F200003F0D0F800F0FCFF02F0EAFF3C4F303F36
:101F300038602868014603F0D5FE814620680146D6
:101F400003F0D0FE494603F075FD03F047FD414A1A
:101F5000414B03F059FC0022404B03F055FC4FF07D
:101F600033323F4B03F0AEF800F0DAFF324643461F
:101F700003F058FB02F0C4FF07F110010860386855
:101F800003F02CFD81468A462168286803F0B4FDE1
:101F900003F024FD01F002F902F0B2FF00F0B8FFF7
:101FA00003F01CFD1C4A2F4B03F03CFB4A465346F2
:101FB00003F02AFC02F0A4FF07F1200BCBF800008D
:101FC00003F00CFD284A294B03F02EFA02F098FF8B
:101FD00007F15009C9F8000007F11000006803F08C
:101FE000FDFC214A214B03F01FFA0022204B03F095
:101FF00019FB02F085FF07F1600ACAF80000686863
:10200000014603F06FFE0090606833E0A8000020F6
:1020100000C05CC00000E6C2A7E8482EFF211940BE
:10202000901C00200000F03F000044400080514020
:10203000000054C0008051C0000024C000002440B3
:1020400000005440FFFF7F000000E03F1F85EB5180
:10205000B8DE5E4057EC2FBBA7C7AD400000B940CB
:10206000334BC340FF21094085EB51B81EA54C40BE
:1020700000807640014603F035FE009903F0DAFC5B
:1020800003F0ACFC02F01EF8E24AE34B03F0CCF99B
:10209000009102906868014603F024FE0390606896
:1020A000014603F01FFE039903F0C4FC03F096FC05
:1020B000DA4ADB4B02F056FF0022DA4B03F0A4FBB6
:1020C000009B029A02F0FEFF00F02AFF02F018FFC8
:1020D00078606868014603F005FE074660680146BF
:1020E00003F000FE394603F0A5FC03F077FCCB4A71
:1020F000CB4B03F089FB0022CA4B03F085FB4FF06A
:102100003332C94B02F0DEFF00F00AFFC74AC84B6A
:1021100003F088FA02F0F4FEA9F140067060A6F11F
:102120001000406803F05AFC0746884661686868FA
:1021300003F0E2FC03F052FC01F030F802F0E0FEA4
:1021400000F0E6FE03F04AFCB84ABA4B03F06AFA24
:102150003A46434603F058FB02F0D2FECBF80400A7
:1021600003F03CFCB44AB54B03F05EF90022B44BDB
:1021700003F058FA02F0C4FEC9F80400706803F0D6
:102180002DFCAD4AAD4B03F04FF90022AC4B03F0F0
:102190003BFB02F0B5FECAF80400A868014603F054
:1021A000A1FD0746A068014603F09CFD394603F0F7
:1021B00041FC03F013FC01F085FF964A964B03F0B7
:1021C00033F90746A8688846014603F08BFD039063
:1021D000A068014603F086FD039903F02BFC03F091
:1021E000FDFB8E4A8E4B02F0BDFE00228D4B03F0AC
:1021F0000BFB3A46434602F065FF00F091FE02F009
:102200007FFEA6F110018860A868014603F06AFD10
:102210000746A068014603F065FD394603F00AFC55
:1022200003F0DCFB7D4A7E4B03F0EEFA00227D4B8F
:1022300003F0EAFA4FF033327B4B02F043FF00F039
:102240006FFE7A4A7A4B03F0EDF902F059FEB06066
:10225000A168A86803F050FC03F0C0FB00F09EFFEB
:1022600002F04EFE00F054FEA6F11008D8F8081057
:1022700003F0E0FBCBF8080003F0B0FB6E4A6F4BB5
:1022800003F0D2F800226E4B03F0CCF902F038FED6
:102290004E46C9F8080008F11009D9F8080003F003
:1022A0009DFB654A654B03F0BFF80022654B03F0C8
:1022B000B9F902F025FECAF80800E8685746014659
:1022C00003F010FD8246E068014603F00BFD514625
:1022D00003F0B0FB03F082FB01F0F4FE4D4A4E4BDD
:1022E00003F0A2F88246E8688B46014603F0FAFC48
:1022F0000390E068014603F0F5FC039903F09AFBB4
:1023000003F06CFB454A464B02F02CFE0022454B85
:1023100003F07AFA52465B4602F0D4FE00F000FE6B
:1023200002F0EEFDC8F80C00E868014603F0DAFCA4
:102330008246E068014603F0D5FC514603F07AFB83
:1023400003F04CFB354A364B03F05EFA0022354B66
:1023500003F05AFA4FF03332334B02F0B3FE00F081
:10236000DFFD324A324B03F05DF902F0C9FDC9F8D6
:102370000C00E168E86803F0BFFB03F02FFB00F0FE
:102380000DFF02F0BDFD00F0C3FDD8F80C1003F006
:1023900051FB08F12001C86003F020FB264A274BBF
:1023A00003F042F802F0ACFD8046F060D9F80C0072
:1023B00003F014FB204A214B03F036F80022204B97
:1023C00003F022FA02F09CFD0546F860306803F045
:1023D00055FC1D4C6070386803F050FCA0707068AC
:1023E00003F04CFCE070786803F048FC2071B068A2
:1023F00003F044FC6071B86803F040FCA0714046F3
:1024000003F03CFCE071284603F038FC207207B072
:10241000BDE8F08F1F85EB51B8DE5E4057EC2FBB57
:10242000A7C7AD400000B940334BC340A7E8482ED2
:10243000FF211940FF21094085EB51B81EA54C40F2
:102440000080664000807640501C002001F0B0FD06
:10245000154D00244FF4FA774FF4005631462846C4
:10246000FEF7AAF9384601F0B1F8641CE4B2062C74
:10247000F4D30E4F01F074F8387808B101F032F857
:1024800003230F220A490B48FFF7A4F9322001F079
:102490009DF8641CE4B20A2CECD100243146284695
:1024A000FEF78AF9E6E7000000100140A5000020D1
:1024B000501C0020D4020020012001F087F8FBE727
:1024C00010B5FEF789FA02F065FB012803D0BDE8DC
:1024D000104002F095B810BD30B58FB02821684685
:1024E000FDF70BFF14210AA8FDF707FF01210804DF
:1024F000CDE900100024029402250491CDE9075093
:102500004FF4E01009906846FEF7E0FB08B172B6A0
:10251000FEE70F20CDE90A054FF48060CDE90C40BD
:1025200002210AA80E94FEF7F5FA002801D072B62F
:10253000FEE70FB030BD7047F0B50268164B174C80
:10254000174D4FF08047984205D0B84203D0A042C3
:1025500001D0A84203D122F070064A683243984263
:1025600005D0B84203D0A04201D0A84203D122F442
:102570004074CA6822434C6922F080022243026000
:102580008A68C2620A688262984201D1096901635D
:1025900001214161F0BD0000002C01400004004019
:1025A0000008004010B501F01F030121046A9940A2
:1025B0008C430462016A9A401143016210BD10B558
:1025C000406A0021C185C184FEF7E4FE10BD0168A8
:1025D0000C3151E8002F22F4907241E80023002BC7
:1025E000F5D10168143151E8002F22F0010241E8D1
:1025F0000023002BF5D1016B012909D101680C31B1
:1026000051E8002F22F0100241E80023002BF5D101
:10261000202180F8421000210163704708B590F82E
:102620004210222901D0022008BD82684FF4805355
:102630009A4201D1016921B1816A9A421BD04AB103
:102640000AE00268816A5268C2F308020A80816A5D
:10265000891C08E0026972B10268526802F07F02C8
:102660000A70816A491C8162C18D491E0904090CE6
:10267000C18503D01BE002685268F1E70168CA68AF
:1026800022F02002CA600168CA6822F48072CA601F
:1026900001684A6922F001024A61202180F8421053
:1026A00000214163026B012A03D0FFF789F8002063
:1026B00008BD016301680C3151E8002F22F01002BF
:1026C00041E80023002BF5D101680A68D20602D543
:1026D0000A6849680091818DFEF75BFEE7E700001C
:1026E00070B5044600680169E26821F44051114365
:1026F00001612169A0680843616908432168CA68CB
:1027000041F20C639A430243CA6020684169A2699E
:1027100021F44071114341611E492068884202D171
:10272000FEF79EFA01E0FEF78BFA00EBC00101EB29
:102730000012606864218000B2FBF0F3B3FBF1F398
:102740006FF018067343B2FBF0F5B2FBF0F605EB41
:102750008305322303EB0515B5FBF1F5B6FBF1F666
:1027600005F0F00505EB0615B2FBF0F6B2FBF0F054
:10277000B0FBF1F06FF01802504306EB800003EB62
:102780000010B0FBF1F0216800F00F0028448860D1
:1027900070BD00000038014081628285C285002141
:1027A0004164222180F84210016921B10168CA68A0
:1027B00042F48072CA6001684A6942F001024A61CB
:1027C0000068C16841F02001C160002070472DE918
:1027D000F041984617460E460446069D27E0681CC1
:1027E00025D02DB1FDF7F6FFA0EB0800A8421ED9B9
:1027F00020680C3050E8001F21F4D07140E800122E
:10280000002AF5D12068143050E8001F21F00101A2
:1028100040E80012002AF5D1202084F8410084F815
:102820004200002084F840000320BDE8F0812068C9
:10283000006836EA000004D00020B842CFD0002063
:10284000F3E70120F9E700000148FEF7A5BD00000D
:102850008C0200200148FEF79FBD0000D40200203A
:10286000FEE70000064D074C2068A84203DD01F09A
:1028700065FEFFF7CBF91E2000F0A8FEF4E700008C
:1028800017B7D13800000020490050EAC12018BF16
:1028900004204A0D18BF40F0010040F2FF72B2EB75
:1028A000515F08BF40F00200012808BF05207047B3
:1028B0000907090E002804DB00F1E02080F800146D
:1028C000704700F00F0000F1E02080F8141D704701
:1028D0002DE9F74F144694B00021C4E9021115996F
:1028E000079121F00045C9498D4206DC1599C4E9DC
:1028F000000117B00020BDE8F08FC549DFF814A330
:10290000A9423CDD0799C44E0029C44FC44A159919
:10291000534619DD02F078FF554506D0C14AC24B37
:1029200002F072FFC4E900010AE04FF0D352BE4B3F
:1029300002F06AFF32463B4602F066FFC4E900013E
:1029400017B00120BDE8F08F02F00CFB554506D012
:10295000B44AB54B02F006FBC4E900010AE04FF0AF
:10296000D352B14B02F0FEFA32463B4602F0FAFA7D
:10297000C4E9000117B04FF0FF30BDE8F08FAB495C
:10298000A942159978DB21F0004183468846A84A80
:10299000A84B02F049FD0022A74B02F0E3FA02F037
:1029A000E9FC099002F015FD06460F469C4A534685
:1029B00002F03AFD43465A4602F034FE80468A460B
:1029C000984A994B3046394602F02EFD2A0D0125D2
:1029D0000B924246534602F025FE032DC4E9000146
:1029E00039D00B98C1F30A51401A05EB4511113942
:1029F000814230DA9148C346784400EB0510CDF8A7
:102A00000CA00C90D0E900233046394602F00CFDB2
:102A100002460B46049106905846039902F0F4FED4
:102A200080468A4602460B465846039902F0ECFE61
:102A3000049B069A02F0E8FE83460C9803913946FF
:102A4000D0E90223304602F0EFFC5A46039B02F025
:102A5000DBFE6D1CBDE707980028A2BF099817B0E0
:102A6000BDE8F08F616881F000416160099817B09E
:102A70004042BDE8F08FFFE784461598C1F313018B
:102A8000C0F30A50A0F2F5304FEA601800F01F06BC
:102A9000C6F12000139000200690079041F4801E9C
:102AA00005206D4676B1664A08EB00017A4452F87B
:102AB000213002EB8101B3404A68139922FA01F1F7
:102AC000194305E05F4908EB0002794451F82210F0
:102AD000A1FB0E27A1FB0C131A449A4234BF012319
:102AE000002303EB070A05EB8003D3E901B70F448A
:102AF0008F4234BF0121002193448B4411B193458F
:102B000002D903E0934501D2012100E00021C3E98D
:102B100001B7514445F82010011EA0F10100C1DCAD
:102B20000298059F00F10050800F12900298DDE995
:102B30000356800002F04DFC834628460D9102F0BA
:102B40005FFC6FF01D0203F040FACDE90E01304644
:102B500002F056FC6FF03D0203F037FA80468A46D9
:102B6000384602F04DFC6FF05D0203F02EFA074686
:102B700042465346119102F0F5F9DDE90E2302F0C9
:102B8000F1F95A460D9B02F0EDF900250E465A4622
:102B900028460D9B02F038FEDDE90E2302F034FEDC
:102BA0004246534602F030FE3A46119B02F03AFD8F
:102BB000DFF898A0244A534602F036FC07468846C0
:102BC000234A244B3146284602F02EFC3A4643461F
:102BD00002F0C8F9074688464FF0A84253463146EE
:102BE000284602F021FC3A46434602F0BBF9159A0A
:102BF00012F0004F04D0129A81F00041524212921A
:102C0000C4E90001129817B0BDE8F08FFB21E93F3D
:102C10007CD90240FB21F93F7370032E8A19A33B34
:102C2000000040543163621A61B4D03DFB21394148
:102C300083C8C96D305FE43F0000E03F34380000D6
:102C4000B037000092370000182D4454FB21F93DA5
:102C50003326A611460B113C2DE9FF4D21F000480B
:102C600007460C46B8F1795F08DA02F083FB0028CA
:102C700001BF0020324904B0BDE8F08D3A4623463A
:102C80001046194602F0D0FB054602462D480E4676
:102C90000B460621784400F05DF82A46334602F0E0
:102CA000C3FBDDE9022382468B463846214602F00B
:102CB000BBFB04460F4652465B462846314602F0AF
:102CC000B3FB22463B4602F09FFD07468A464FF083
:102CD000FF322846314603F078F91B4A90450ADA5C
:102CE0003A46534602F090FD04B00022BDE8F04D94
:102CF000134B02F097BC154A4245A8BFA8F5001532
:102D00004FF00004B8BF124D22462B4602F07CFD66
:102D10000646884622462B460020094902F074FDEB
:102D200004460D463A4653463046414602F06CFD95
:102D300004B022462B46BDE8F04D02F073BC000003
:102D40000000F03F683500003333D33F0000E93F17
:102D50000000D23F2DE9F0414F1E00EBC7010446B1
:102D6000D1E9000115461E4637F006020DD02A466D
:102D7000334602F059FB7F1E04EBC703D3E900235F
:102D800002F0F0F837F00602F1D1022F25D0042F1F
:102D900013D0062F18BFBDE8F0812A46334602F053
:102DA00043FBD4E90A2302F0DDF82A46334602F059
:102DB0003BFBD4E9082302F0D5F82A46334602F05B
:102DC00033FBD4E9062302F0CDF82A46334602F05D
:102DD0002BFBD4E9042302F0C5F82A46334602F05F
:102DE00023FBD4E9022302F0BDF82A46334602F061
:102DF0001BFBD4E90023BDE8F04102F0B3B80000AA
:102E00002DE9FF4D054621F0004084B00C46B0F19D
:102E1000795F0BDA2846FFF737FD042808BF00F07A
:102E20006FF8284608B02146BDE8F08D2A460B46CB
:102E3000104602F0F9FA06460F462A46234602F0EB
:102E4000F3FA804626488A4632463B4605217844B6
:102E5000FFF780FF83461098029160B3214A224B0E
:102E60004046514602F0E0FACDE900015A4640469C
:102E70005146029B02F0D8FA82468846DDE90601F7
:102E80004FF0FF3203F0A1F85246434602F0BCFC7B
:102E900032463B4602F0C8FADDE9062302F0B4FCF4
:102EA000DDE9002302F0B0FC08B02A462346BDE865
:102EB000F04D02F0B7BB0B465A463046394602F099
:102EC000B3FA084A084B02F04DF84246534602F066
:102ED000ABFA08B02A462346BDE8F04D02F042B8EE
:102EE000A6340000495555555555C5BF012203F07C
:102EF0006CB8002213461046114602F0E3B80000F9
:102F0000024A0020110703F060B8000001FDFFFF36
:102F10000249884201D380F000407047ACC527B712
:102F20002DE9F04D0546DFF8388221F000408D4F45
:102F300082B00C46404520DBA0EB080129430BD0B2
:102F40008949884201DC10D17DB102B02846214672
:102F5000BDE8F04DFFF7CABF002CC7BF00200146F7
:102F60008248394602B0BDE8F08D0120FDF7F4F942
:102F700002B0BDE8F04DFFF7BCBF7D49884244DA9E
:102F80007C498142A1BF79487B4902B0BDE8F08D00
:102F90002A4623461046194602F046FA8346024660
:102FA00076480E460B4606217844FFF7D3FE5A4674
:102FB000334602F039FA074671488A465A46334684
:102FC00004217844FFF7C6FE5A46334602F02CFA35
:102FD0000022434601F0C6FF02460B4638465146E2
:102FE00002F070F82A46234602F01EFA654A664B44
:102FF00002F018FB2A46234602F014FB02B05B4A9B
:10300000BDE8F04D5C4B02F00DBB002C4FF0000210
:103010004BDA464643462846214601F0A3FF4FF0CF
:10302000FF3202F0D2FF0446024658480D460B46D6
:1030300006217844FFF78EFE22462B4602F0F4F973
:10304000804653488A4622462B4604217844FFF79F
:1030500081FE22462B4602F0E7F90022334601F0BA
:1030600081FF06468B462046294601F02BF8044690
:103070000D4632465B464046514602F023F8224652
:103080002B4602F0D1F93F4A3F4B02F0BDFB2246EE
:103090002B4601F067FF012202F097FF02B03B468A
:1030A000BDE8F04D314A02F0BDBA2D4B284621460D
:1030B00002F0B8FA4FF0FF3202F087FF05460E46E5
:1030C00001F000F800270C4680463A460B4601F016
:1030D00049FF82468B463A4623461046194602F07F
:1030E000A3F92A46334602F09DFA52465B4601F0A8
:1030F000E9FF824627488B462A4633460621784414
:10310000FFF728FE2A46334602F08EF9CDE900018A
:1031100021482A46334604217844FFF71BFE2A46FD
:10312000334602F081F900220D4B01F01BFF0246ED
:103130000B46DDE9000101F0C5FF4246234602F0DF
:1031400073F952465B4601F00DFF3A46234601F003
:1031500009FF02B00122BDE8F04D02F036BF0000C9
:103160000000F03FFB2109400000F07F182D44547F
:103170000000E03F0000603CFB21F93F6C310000A3
:1031800082310000075C143326A6913CE230000037
:10319000F8300000163000002C3000002DE9F84F08
:1031A00004460D4621F0004000917349814211DC34
:1031B0007249884201DC06D12CB120462946BDE87F
:1031C000F84FFFF793BE6E48002DCCBF6D496E4996
:1031D000BDE8F88F6D49814211DD6D498142D8BF4C
:1031E0004FF0FF366DDD20462946FFF74DFB0428E2
:1031F00008BFFFF785FE20462946BDE8F88F6549E0
:10320000654F25F00045814233DD6449814219DD77
:10321000002632464FF080432046294601F0A2FEA8
:1032200080468A4601222046294602F0CEFE002230
:103230003B4602F0E9FA4246534601F043FF04469A
:103240000D463EE001260022BA463B46204629466E
:1032500001F088FE80460F4600225346204629464C
:1032600002F0D2FA42463B4601F02CFF04460D46DE
:1032700027E04B4981421BDDDFF828A1022600220E
:1032800053462046294602F0CFF800223B4601F083
:1032900069FE80460F46002253462046294602F02A
:1032A000B3FA42463B4601F00DFF04460D4608E0E6
:1032B000032622462B4600203B4901F003FF04462B
:1032C0000D4622462B461046194602F0ADF88B46B5
:1032D000824602460B4602F0A7F8074602463348EC
:1032E00088460B4606217844FFF734FD52465B467C
:1032F00002F09AF882462E488B463A46434605210C
:103300007844FFF727FD3A46434602F08DF802461F
:103310000B46002E504659460CDA01F023FE224699
:103320002B4602F081F801B022462B46BDE8F04F53
:1033300002F078B901F016FE22462B4602F074F82E
:103340001C4A7A4402EBC603D3E9002302F05CFA7C
:1033500022462B4602F058FA174A7A4402EBC6037B
:10336000D3E9002302F05EF9009A002AB8BF81F089
:103370000041BDE8F88F0000000010440000F07F1D
:10338000182D4454FB21F93FFB21F9BF0000DC3F1D
:103390000000203E0000F33F0000F03F0000E63F49
:1033A000008003400000F83F0000F0BFE62E000060
:1033B000A42E0000422E00000A2E000010B50F4C73
:1033C0000F222146A079401CA071A1F14E00FCF70C
:1033D00047FF0F21A4F14E00FDF756F82074214657
:1033E0001222A1F14E00FCF73BFFA4F14E01042391
:1033F000BDE8104012220248FEF7ECB93E1C002046
:103400008C0200200C4C5120207000F0A7FD0B4DC9
:103410000B4800F07DF8404260800A4800F078F8E0
:103420004042A080E879401CE071FFF7C7FF0A2006
:1034300000F0CCF8ECE700003E1C00202C1C002023
:10344000FC010020B401002000B5244B21F0004213
:1034500087B09A42DCBF0022134629DD204B9A42F6
:1034600008D140B94FF00100FCF776FFFFF741FDAE
:1034700007B000BD03DBFFF739FD07B000BD02AAAE
:10348000FFF726FA10F0030104BF0DF1080C9CE8C9
:103490000F000DD0012001290ED0022914D00DF10A
:1034A000080C00909CE80F00FFF7AAFC07B000BDD5
:1034B000FFF7D2FB07B000BD0DF1080C00909CE8AF
:1034C0000F00FFF79DFC05E00DF1080C9CE80F00D4
:1034D000FFF7C2FB07B081F0004100BDFB21E93FCF
:1034E0000000F07F08485A214170C1704171C171DC
:1034F000064991F90010C1F12D02827087310171E6
:103500008271017270470000501C0020A50000204D
:103510000168486A002200B24A627047FDF764FA07
:10352000FEF7DAFFFEF7E2F9FEF748FAFEF766FA71
:10353000FEF788FAFEF7AAFAFEF7DEFAFEF710FBAE
:10354000FEF72AFBFEF744FBFEF794F900F0AAFD14
:1035500000F056F8FEF7A0F900F06EF8FEE7000064
:103560002DE9F0411448154F154DC079154C002632
:1035700058B1411E04290DD8267002F09FFB124954
:1035800002F0B0FB2860BDE8F08100F029FD2F605B
:103590002670F8E7A0F10A011E2908D8193840B2B0
:1035A0002F6020700028EED101202070EBE700F0A2
:1035B000FFFC26702F60E6E72C1C0020000080BF77
:1035C00000000020A50000200AD7A33B10B5EFF3B0
:1035D000058149B9EFF3108131B908490968022919
:1035E00005D1EFF3118111B16FF0050403E0002460
:1035F00008B100F0BDFE204610BD00007C00002098
:10360000EFF3058058B9EFF3108040B90949086815
:10361000022801D030B109E0EFF3118030B16FF032
:103620000500704701200860002070474FF0FF3010
:10363000704700007C00002010B5EFF3058060B9F2
:10364000EFF3108048B90B490868022802D001281E
:1036500006D00BE0EFF3118040B16FF0050010BD14
:103660000220086000F0ECFE002010BD4FF0FF309B
:1036700010BD00007C000020F0B585B04FEA0103CA
:103680004FF00004EFF305810394A1BBEFF3108129
:1036900089BB21490968022902D1EFF3118151BB8D
:1036A00048B3802618218DF8104004AD42B3176846
:1036B00007B13D4697691FB139467F1E382F02D2A8
:1036C0001779FF0702D0002005B0F0BD576907B198
:1036D000BE08D2F808C0BCF1000F0DD0D4685C2C35
:1036E00018D312693AB137B18DE80610324629462F
:1036F00001F025FA03900DE0D7685FB912694AB965
:1037000003AACDE90012B2B2294601F0EBF9012873
:1037100000D003940398D7E77C0000202DE9F04106
:10372000134C0F46054666692068001D00F0F0FC4A
:10373000681C07D137B12168BDE8F0410D48091D6B
:1037400000F036BD20683544B5424560216805D299
:10375000A068BDE8F041091D00F012BD6068091DB8
:1037600000F00EFD206B854200D22563BDE8F0819C
:103770002C0000200C0800202DE9F041054600F047
:1037800023FD2D4C2069401C206120682B4F10B177
:10379000E06930B32BE025602069012827D100269D
:1037A00006EB860007EB800000F0DCFC761C382E70
:1037B000F6D3234800F0D6FC2148143000F0D2FCA8
:1037C0001F48283000F0CEFC1D483C3000F0CAFCF9
:1037D0001B48503000F0C6FC194860601430A060EF
:1037E00005E02068E96AC06A884200D82560E06A7E
:1037F000401CE0626864E86AA169884200D9A0615F
:1038000000EB800007EB8000291D00F0D1FC00F0E8
:10381000FBFCE06900280CD02068E96AC06A884295
:1038200007D208494FF080500860BFF34F8FBFF3B5
:103830006F8FBDE8F08100002C0000205C030020A9
:10384000BC07002004ED00E038B500F0BDFC104CD2
:10385000A068C8B90F4800F085FC0E48143000F08D
:1038600081FC0C482060143060600A4B0020283333
:10387000009003F1500210210A2000F0D7FEA06052
:1038800010B105A100F03EFDBDE8384000F0BCBC21
:103890006800002020080020546D725100000000D4
:1038A00030B4026C0B46002A0BD0C1681144C160D1
:1038B0004468A14201D30168C16030BC1846FCF7DE
:1038C000CFBC30BC70472DE9F041856B17460446EC
:1038D0000026026C82B1C7B1E068FCF7C1FCE16868
:1038E000206C091AE1602268914202D26168081ACC
:1038F000E060022F16D017E02068A8B9606801F0D8
:10390000C1F90646002060600EE0A068FCF7A8FC44
:10391000216CA0680844A0606168884204D32068D4
:10392000A06001E005B16D1E6D1CA5633046BDE8C9
:10393000F08110B5044690F8590058B101280CD018
:1039400002280FD0502080F31188BFF34F8FBFF3B0
:103950006F8FFEE7206B00F06BFC2046BDE8104047
:1039600000F066BC10BD000010484FF440614207F3
:1039700006D0C01D0D4920F00700411AC1F5406175
:103980000B4A00230144C2E900030839103A21F030
:10399000070111604B600B600B1AC0E900139360C4
:1039A0004FF000405360D06070470000F00F0020DF
:1039B00090000020144E154CA6F29C474FF0805802
:1039C000DFF84C9012E000BF00F0FEFBF068C56825
:1039D000281D00F09DFB2069401E2061E068401E0C
:1039E000E06000F011FC2846FFF7A3FFE068002824
:1039F000EAD138680128F9D9C9F80080BFF34F8FA0
:103A0000BFF36F8FF2E70000F80700202C000020C2
:103A100004ED00E070B51D46049C51B1C4F80020CF
:103A2000C4E90F010121204600F034FE84F84C5017
:103A300070BD2460F4E72DE9F0470E46DDE9098406
:103A40001746824691009946089DA522206BFCF7F7
:103A50004CFC6FF00301206B01EB8701084420F060
:103A60000707780707D0502080F31188BFF34F8FE6
:103A7000BFF36F8FFEE72218315C82F83410315C9F
:103A800011B1401C1028F6D3002684F84360382D6D
:103A900000D33725E562C4E91356201D00F06DFB05
:103AA00004F1180000F069FB2461C5F1380064627C
:103AB000A061666584F858604A465146384600F071
:103AC0003BFA2060B8F1000F01D0C8F80040BDE813
:103AD000F087000030B5114900E011460A688242C3
:103AE000FBD34B685C18844203D14068184448609B
:103AF000084643681C18944209D1084C103C2468BD
:103B0000A24209D052681A4442600A6812680260F0
:103B1000814200D0086030BD0460F9E790000020C9
:103B200070B5002441600B4D0061914206D8D11A56
:103B30008269914206D2011D686807E09A4203D269
:103B4000994201D3012403E0011D286800F018FB0D
:103B5000204670BD6800002010B5044600F034FB1C
:103B6000A06B28B15FF0000400F04EFB204610BDB2
:103B70000124F9E730B589B0304D55E004980028AC
:103B800006DADDE90601059A9047049800284BDB28
:103B9000069C606910B1201D00F0BAFA02A800F07E
:103BA000B9F8024604980A283ED2DFE800F005057D
:103BB000053D263705053D260598A16903460144C4
:103BC0002046FFF7ADFF00B3616A20468847E069F1
:103BD000012829D1002000900598A16900234218EE
:103BE0001946204601F058F978B9502080F3118821
:103BF000BFF34F8FBFF36F8FFEE70598A06128B129
:103C0000811813462046FFF78BFF0DE0502080F30C
:103C10001188BFF34F8FBFF36F8FFEE794F82C002E
:103C200010B9204600F004FB002204A9A86800F0A7
:103C300083FE0028A2D109B030BD0000680000203A
:103C40002DE9FC410F46054600F03EFC01A800F0BE
:103C500061F80446019818B101F08CF8BDE8FC81C8
:103C6000224EAFB170680068A8B30027291B3A46FE
:103C7000B06800F05BFB01F07DF80028EED11C4934
:103C80004FF080500860BFF34F8FBFF36F8FE5E7B1
:103C9000A542EBD801F06EF830682746C068C468CA
:103CA000201D00F035FAE069012810D1A0692B46EB
:103CB00041193A462046FFF733FF40B10020034642
:103CC000014600902A46204601F0E6F820B1616ADC
:103CD00020468847C2E707E0502080F31188BFF3F1
:103CE0004F8FBFF36F8FFEE70127BFE7680000200B
:103CF00004ED00E006484168096829B14168C968D7
:103D0000C9684968016370474FF0FF31FAE7000066
:103D10002C00002070B5054600F04AFF064E044610
:103D20003069844203D200F009F8012000E000204D
:103D300028602046346170BD68000020F8B5194D38
:103D40001FE0C068C4680668201D00F0E1F9616AE0
:103D500020468847E069012813D1A0693044B04269
:103D600006D924616060211D286800F009FA08E086
:103D700000200346014600903246204601F08CF8B0
:103D800038B1286801680029DBD16968C5E90010ED
:103D9000F8BD502080F31188BFF34F8FBFF36F8FB2
:103DA000FEE700006800002008484068401C4FF013
:103DB000500080F3118804D0BFF34F8FBFF36F8F93
:103DC000FEE7BFF34F8FBFF36F8FFEE79800002031
:103DD000074C2068016841B1C0680021D0F800009C
:103DE000FFF72EFFFFF7C6FEF3E701210020F7E7FC
:103DF000680000202DE9F041044600F0E5F994F94F
:103E0000455004F1240609E0606A48B1304600F0EC
:103E100079FF08B100F0DAFA6D1E6DB2002DF3DC07
:103E20004FF0FF3684F8456000F0EEF900F0CCF971
:103E300094F9445004F1100709E0206948B138466C
:103E400000F060FF08B100F0C1FA6D1E6DB2002DE8
:103E5000F3DC84F84460BDE8F04100F0D5B900001F
:103E60002DE9F0410546002700F02EFB314E306869
:103E700008B9FFF779FDF06805424BD1C5B30835A5
:103E800068070ED005F00700C0F108000544680778
:103E900007D0502080F31188BFF34F8FBFF36F8F8F
:103EA000FEE72DB37068854234D8224810300146B1
:103EB0000C6801E020460C466168A94202D22168E4
:103EC0000029F7D131688C4224D00768216801604D
:103ED00060680837411B10290FD96019420708D0C4
:103EE000502080F31188BFF34F8FBFF36F8FFEE731
:103EF00010E041606560FFF7EDFD61687068401A91
:103F00007060B268904200D2B060F0680143002057
:103F1000C4E9000100F02EFF780707D0502080F39D
:103F20001188BFF34F8FBFF36F8FFEE73846BDE8B0
:103F3000F08100008000002010B5031F4FF0807456
:103F40001C601B1F21F001011960191F024B0B603F
:103F5000143940380A6010BDA93D000810B50F2182
:103F60001048FCF791FA04460E480078512805D114
:103F70000C49122201F11E00FCF772F909480A49A6
:103F80001E30027CA24202D10078512808D00020C5
:103F90000870BDE81040122202490448FDF702BC37
:103FA0000120F5E70E1C0020A40000208C02002058
:103FB00000210A485A224318491CC9B25A700C29D8
:103FC000F9D32D21817087220271817102725121F2
:103FD000017000214173502181737047501C0020F3
:103FE000002007495A220B18401CC0B25A700828FA
:103FF000F9D351200870002048735020887370470F
:10400000501C002000B5254B21F0004287B09A4299
:1040100003DC0022134600922BE0214B9A4208D188
:1040200040B94FF00100FCF797F9FEF762FF07B0C7
:1040300000BD03DBFEF75AFF07B000BD02AAFEF782
:1040400047FC10F003014FF001000DD0012914D0FE
:1040500002291AD00DF1080C9CE80F00FEF7FCFDB8
:1040600007B081F0004100BD0DF1080C00909CE804
:104070000F00FEF7C5FE07B000BD0DF1080C9CE86F
:104080000F00FEF7E9FD07B000BD0DF1080C009030
:104090009CE80F00FEF7B4FEE2E70000FB21E93FD9
:1040A0000000F07F10B53C210448FDF72BF9BDE876
:1040B00010403C210248FDF725B90000B401002062
:1040C000FC0100202DE9F04106460F4601F0B6FA4A
:1040D000041E0D4618BF0120284320F00040C0F107
:1040E0007F6000F1E040C00F0ED0301C18BF0120EF
:1040F000384320F00040C0F17F6000F1E040C00F85
:1041000004BF0120FCF728F920462946BDE8F081CC
:10411000D0E9013201699A60D0E901235A604A6806
:10412000824201D182684A60002202610868401E12
:104130000860086870470000034B036003F15C00EF
:10414000086080201060704738090020044B03602D
:1041500003F15C0008604FF480701060704700004D
:10416000940B002000F108014FF0FF32C0E901126A
:10417000C160016100210160704700210161704749
:1041800030B50B685A1C02D000F1080202E0026947
:1041900004E02246546825689D42FAD953684B6072
:1041A00099608A60516008610168491C016030BDF6
:1041B00042684A6093688B609368596091600861B7
:1041C0000168491C01607047502080F31188BFF3DB
:1041D0004F8FBFF36F8F0A494868401C4860012821
:1041E0000CD10848006810F0FF0F07D0502080F372
:1041F0001188BFF34F8FBFF36F8FFEE7704700004A
:104200009800002004ED00E00849486828B1401EED
:10421000486001D180F311887047502080F31188E5
:10422000BFF34F8FBFF36F8FFEE7000098000020B1
:1042300070B5002827D0144DA0F108046168E86823
:10424000014207D1502080F31188BFF34F8FBFF395
:104250006F8FFEE722683AB1502080F31188BFF3D8
:104260004F8FBFF36F8FFEE78143616000F02CF941
:1042700060686968084468602046FFF72BFCBDE869
:10428000704000F077BD70BD800000204FF0E0204E
:1042900000210161816105494FF47A720968B1FB1F
:1042A000F2F1491E41610721016170472800002099
:1042B00010B5FBF7B1FF114910280ED300F1E02033
:1042C00090F8F0030A78904207D2502080F31188CA
:1042D000BFF34F8FBFF36F8FFEE70948006889680F
:1042E00000F4E060884207D9502080F31188BFF3C2
:1042F0004F8FBFF36F8FFEE710BD000098000020C6
:104300000CED00E010B5084B002200BF53F832401E
:104310001CB1521C082AF9D310BD43F8321003EB2C
:10432000C201486010BD00001C03002070B5154696
:104330000E460446FFF748FF94F944100020491C3C
:1043400001D184F8440094F94510491C01D184F846
:104350004500FFF759FFA06B28B92A46314604F102
:10436000240000F051F82046BDE87040FFF742BD40
:1043700010B5020014D00F48806B38B1502080F384
:104380001188BFF34F8FBFF36F8FFEE700F09CF8EB
:1043900000211046FFF7C2F900F0ECFC002807D11D
:1043A00005494FF080500860BFF34F8FBFF36F8F08
:1043B00010BD00002C00002004ED00E002498A6AD4
:1043C00002604969416070472C00002001490120CA
:1043D000486270472C00002010B50C4650B10949C6
:1043E00009681831FFF7CCFE2046BDE810400121D6
:1043F000FFF794B9502080F31188BFF34F8FBFF3BC
:104400006F8FFEE72C00002070B514460D4668B192
:104410000A4909681831FFF7CBFE0CB14FF0FF35A0
:1044200021462846BDE87040FFF778B9502080F358
:104430001188BFF34F8FBFF36F8FFEE72C00002072
:1044400030B587B00024039405AA04A903A80494F6
:10445000FFF772FEDDE903010094CDE901100023AE
:1044600015A11748059A00F06AFB164D00286863ED
:104470001FD000F0E1FC012809D0401C19D15020C8
:1044800080F31188BFF34F8FBFF36F8FFEE750208B
:1044900080F31188BFF34F8FBFF36F8F4FF0FF3062
:1044A00028630120E8616C6107B0BDE8304000F08E
:1044B00053B807B030BD000049444C45000000002F
:1044C000B53900082C0000200248816B491C81632B
:1044D000704700002C000020164810B5816B11B108
:1044E0000121416210BD002141628169124A01E04F
:1044F000B9B1491E01EB810352F82330002BF7D0EC
:1045000001EB810302EB830202F1080453685B684C
:104510005360A34201D15B685360DA680260816135
:1045200010BD502080F31188BFF34F8FBFF36F8F02
:10453000FEE700002C0000205C03002010B5054CB5
:10454000216801F077FA2060B0F17E5F01DB002086
:10455000206010BDA80000201CB5264908780190F5
:10456000FF20087008788DF800009DF800009DF885
:10457000002000F0F000904207D0502080F3118816
:10458000BFF34F8FBFF36F8FFEE79DF800001A4B0C
:1045900000F0500018700720986005E09DF800209A
:1045A00052008DF80020401E9DF800201206F5D420
:1045B0009860032807D0502080F31188BFF34F8FF5
:1045C000BFF36F8FFEE74FF440709860019808705A
:1045D0000A48016841F470010160016841F07041CE
:1045E0000160FFF753FE00205860FBF7DFFD00205D
:1045F0001CBD000000E400E09800002020ED00E079
:1046000010B5502080F31188BFF34F8FBFF36F8F29
:1046100000F0D4FA18B104494FF08050086000202F
:1046200080F3118810BD000004ED00E038B5049D52
:1046300018B153B1CAB181B120E0502080F3118884
:10464000BFF34F8FBFF36F8FFEE7502080F31188C9
:10465000BFF34F8FBFF36F8FFEE7502080F31188B9
:10466000BFF34F8FBFF36F8FFEE739B1502080F358
:104670001188BFF34F8FBFF36F8FFEE750241C46A6
:10468000012384F846302B460094FFF7C3F92046F7
:1046900038BD000070B50D46040025D0FFF794FD2D
:1046A000D4E90F20216802FB001161600021A163A1
:1046B0002168A1600A46D4E90F01401E00FB0121D8
:1046C000E16021464FF0FF3001F8440F487004F1DB
:1046D00010008DB1FFF746FD04F12400FFF742FD05
:1046E000FFF792FD012070BD502080F31188BFF3C9
:1046F0004F8FBFF36F8FFEE721690029F0D000F0E4
:1047000001FB0028ECD004494FF080500860BFF353
:104710004F8FBFF36F8FE3E704ED00E02DE9FF4714
:1047200082B01D468A464FF00008040003D0BAF15B
:10473000000F08D011E0502080F31188BFF34F8F95
:10474000BFF36F8FFEE7206C38B1502080F31188E3
:10475000BFF34F8FBFF36F8FFEE7022D0AD1E06BDF
:10476000012807D0502080F31188BFF34F8FBFF38B
:104770006F8FFEE700F00EFA3F4F4FF000094FF049
:10478000805648B9049838B1502080F31188BFF39F
:104790004F8FBFF36F8FFEE7FFF716FDA06BE16B46
:1047A000884207D3022D05D00498D0B1B8F1000F8C
:1047B0001AD01EE02A4651462046FFF784F8616A67
:1047C00019B104F1240000F09DFA20B13E60BFF35E
:1047D0004F8FBFF36F8FFFF717FD012006B0BDE8C5
:1047E000F087FFF711FD22E06846FFF7E7FD4FF085
:1047F0000108FFF709FDFFF767FEFFF7E5FC94F9F5
:104800004400401C01D184F8449094F94500401CB8
:1048100001D184F84590FFF7F7FC04A9684600F041
:1048200027F930B12046FFF7E5FA00F0A3FA00209F
:10483000D4E7FFF7C9FCA06BE16B884213D1FFF707
:10484000E3FC04F110000499FFF7C6FD2046FFF7D2
:10485000D1FA00F08FFA00289ED13E60BFF34F8F4F
:10486000BFF36F8F98E7FFF7CFFC2046FFF7C2FA40
:1048700000F080FA90E7000004ED00E02DE9F04739
:104880001F4690468946040003D0B9F1000F08D0B6
:1048900011E0502080F31188BFF34F8FBFF36F8F6B
:1048A000FEE7206C38B1502080F31188BFF34F8FA2
:1048B000BFF36F8FFEE7022F0AD1E06B012807D00C
:1048C000502080F31188BFF34F8FBFF36F8FFEE747
:1048D000FFF7EEFC5020EFF3118680F31188BFF351
:1048E0004F8FBFF36F8FA06BE16B884206D3022F0F
:1048F00004D0002086F31188BDE8F08794F9455074
:104900003A4649462046FEF7DEFF681C04D06D1C7F
:1049100084F845500120EDE7606A0028FAD004F1E0
:10492000240000F0EFF90028F4D0B8F1000FF1D026
:104930000121C8F80010EDE72DE9F747002683B004
:104940008A46040003D0BAF1000F08D011E05020CD
:1049500080F31188BFF34F8FBFF36F8FFEE7206C9A
:1049600038B1502080F31188BFF34F8FBFF36F8FA2
:10497000FEE700F00FF9DFF8F4804FF000094FF088
:10498000805748B9059838B1502080F31188BFF39B
:104990004F8FBFF36F8FFEE7FFF716FCA56BC5B116
:1049A00051462046FEF77CFF6D1EA563206950B17D
:1049B00004F1100000F0A6F928B1C8F80070BFF3A8
:1049C0004F8FBFF36F8FFFF71FFC012006B0BDE8CC
:1049D000F087059808B11EB106E0FFF715FC27E047
:1049E0006846FFF7EBFC0126FFF70EFCFFF76CFDB6
:1049F000FFF7EAFB94F94400401C01D184F844908D
:104A000094F94500401C01D184F84590FFF7FCFB68
:104A100005A9684600F02CF8002820460AD0FFF7C8
:104A2000E9F900F0A7F92046FFF796F80028B3D07F
:104A30000020CBE7FFF790F890B104F1240005992E
:104A4000FFF7CAFC2046FFF7D5F900F093F90028DC
:104A5000A2D1C8F80070BFF34F8FBFF36F8F9BE7F1
:104A60002046FFF7C7F900F085F995E704ED00E06F
:104A70002DE9F0410C46050011D0C4B1FFF7A4FBAD
:104A8000174B5A696E682068911B471C17D02F6816
:104A90009B6A9F4219D0964217D8012410E05020FB
:104AA00080F31188BFF34F8FBFF36F8FFEE7502065
:104AB00080F31188BFF34F8FBFF36F8FFEE70024A1
:104AC000FFF7A2FB2046BDE8F081884205D9401AD5
:104AD00020602846FFF772FCF1E700202060DCE749
:104AE0002C0000202DE9FF5F8346DDE90E87994603
:104AF00016468A469000FFF7B3F905001CD05C20EB
:104B0000FFF7AEF9040014D00020256384F85900A3
:104B1000CDE90240CDE900874B4632465146584622
:104B2000FEF789FF2046FEF727FE012004B0BDE80E
:104B3000F09F2846FFF77CFB4FF0FF30F6E7F0B51B
:104B400085B0DDE90B640A9DA6B1DCB15C27009756
:104B50002663022684F85960002604AFCDE9024698
:104B6000CDE90057FEF767FF2046FEF705FE0498E3
:104B700005B0F0BD502080F31188BFF34F8FBFF315
:104B80006F8FFEE7502080F31188BFF34F8FBFF384
:104B90006F8FFEE70548C16919B1806B18B100201D
:104BA0007047012070470220704700002C00002051
:104BB00001484069704700002C0000202DE9F041B9
:104BC0002E4C0027A06B40B1206A401C2062606A16
:104BD00000B101273846BDE8F0816669761C666140
:104BE00013D16068006838B1502080F31188BFF39A
:104BF0004F8FBFF36F8FFEE76068A1686160A060B0
:104C0000A06A401CA062FFF775F8206BDFF8708087
:104C1000864209D36068006880B16068C068C56872
:104C2000686886420DD220632068C06A00EB80016C
:104C300058F821000128CAD90127C8E74FF0FF30F2
:104C4000F1E7281DFFF764FAA86A18B105F118000A
:104C5000FFF75EFAE86AA169884200D9A06100EB1B
:104C6000800108EB8100291DFFF7A2FAE86A21689C
:104C7000C96A8842CED30127CCE700002C0000206F
:104C80005C03002070B504004FF0000133D01B4DD1
:104C90002868844207D0502080F31188BFF34F8FDB
:104CA000BFF36F8FFEE7206D38B1401E2065E36CC7
:104CB000E26A9A421FD040B11DE0502080F3118873
:104CC000BFF34F8FBFF36F8FFEE7201DFFF720FA72
:104CD000E06CE062C0F13800A061E06AA969884236
:104CE00000D9A861064900EB800001EB8000211D7E
:104CF000FFF75EFA0121084670BD00002C0000207D
:104D00005C03002070B5C068C46854B104F1180099
:104D10000646FFF7FDF9144DA86B50B13146134814
:104D200015E0502080F31188BFF34F8FBFF36F8FD2
:104D3000FEE7201DFFF7ECF9E06AA969884200D977
:104D4000A8610B4900EB800001EB8000211DFFF7FB
:104D50002FFAE06A2968C96A884202D9012068628C
:104D600070BD002070BD00002C000020E407002072
:104D70005C0300202DE9F0472C4D00242746A86B4A
:104D800038B1FFF721FAA86B401EA863A86B40B1A9
:104D900046E0502080F31188BFF34F8FBFF36F8F31
:104DA000FEE72969224E0120D1B3A6F5916980461C
:104DB0003068E0B1F068C46804F11800FFF7A8F9A2
:104DC000201DFFF7A5F9E06AA969884200D9A8610A
:104DD00000EB800109EB8100211DFFF7E9F9E06A92
:104DE0002968C96A8842E3D3C5F82480E0E70CB19A
:104DF000FEF780FF2C6A4CB14FEA0806FFF7DEFE93
:104E000000B16E62641EF9D100202862686A38B170
:104E10000849012738070860BFF34F8FBFF36F8F32
:104E2000FFF7F2F93846BDE8F08700002C000020BB
:104E3000E407002004ED00E010B586B0FEF704FDA5
:104E4000114CA068B8B100200390049005AA04A9F1
:104E500003A8FFF77BF9DDE9032102208DE80700B5
:104E600000230AA10B48059AFFF769FEE06010B124
:104E700006B0012010BD502080F31188BFF34F8F82
:104E8000BFF36F8FFEE7000068000020546D7220B2
:104E900053766300D13D00082DE9FF411E461346BD
:104EA00002000A9D4FF0000016D0144CA768002F96
:104EB0000FD0CDE900130292062917DAFFF76AFE38
:104EC00002284FF000030FD000226946A068FFF7C8
:104ED00025FC04B0BDE8F081502080F31188BFF3B9
:104EE0004F8FBFF36F8FFEE72A46EEE7002332466F
:104EF00069463846FFF7C2FCEBE700006800002077
:104F000021F00042A2F16052B2F5801F01F000438F
:104F100028BFD2F17F6C0BD95FEA001C43EAC202C2
:104F200042EB507018BF704728BF20F00100704757
:104F3000B2F5801FBCBF184670474FEA410C1CF504
:104F4000001F02D2084600F094BF70B500F016FBB7
:104F500000000089FFF7F6BF4FF00040A0F5800089
:104F60007047000010B591EA030F48BF83F000437B
:104F700000F15284841A71EB030C05D2121943EB31
:104F80000C03001B61EB0C01DFF824E14FEA115424
:104F9000A4EB135C1EEA430F18BF9EEA445F73D074
:104FA00023EA0E03DCF1200E21EA045143F48013BE
:104FB00032D322FA0CFE10EB0E0023FA0CFE41EB6A
:104FC0000E01CCF1200E03FA0EFE10EB0E0051F193
:104FD0000001B1F5801FCCF1200E32D201EB04515B
:104FE00012FA0EF2BDE8104058BF7047401C38BF9F
:104FF0005FEA420218BF7047002814BF20F001008A
:1050000041F100014FEA410313F5001F38BF70471B
:10501000A1F1C04100F000BB012A43EB0302ACF157
:10502000200CDCF11F0E32BF4FF0000E23FA0CF300
:1050300010EB030041EB0451B4EB115FD0D0A1EBB6
:10504000045101F5801149085FEA300001EB045179
:105050000ED350F1000038BF12FA0EFE08D1BDE8A1
:105060001040C9E7401C38BF5FEA4202CAD1C3E71B
:10507000BDE810404FEA410313F5001F38BF7047E9
:10508000A1F1C04100F0C8BA9EEA445F08D011EA1D
:105090005E0FBDE8104004BF01F0004100207047E2
:1050A000BDE8104070B500F069FA00BF64FBBE3E79
:1050B0000000E0FF02494FF0000000F054BF00BFC5
:1050C0000000F87F2DE9C04130B4DFF8A0C23CEA0F
:1050D000111418BF3CEA131400F0EC8081EA0305B8
:1050E0001CEA111444EAD57418BF1CEA131500F029
:1050F000C780A4EB05044FF0004545EAC12145EA0D
:10510000C32341EA505143EA525304F17F74994258
:1051100004F500344FEAC0204FEAC22208BF904293
:1051200000F09C804FEA13650FF24016765D4FEA5F
:10513000134506FB05F7C7F1807706FB07F74FEA33
:10514000D737A7FB03687642C8F58038A7FB06CEA1
:1051500038BFA8F1010807FB08E64FF0000EA6FBD8
:10516000028CE6FB03CEDCF1000CCEF1004E38BF22
:10517000AEF1010EA6FB0C584FF000074FF00005F2
:10518000E6FB0E87A1FB08C6A0FB07CE16EB0E06BA
:1051900045F10005E1FB076515F1E04E7EBFA4F582
:1051A00080345FEA46066D4116F1800745F100053F
:1051B0004FEA17274FEA066647EA0567A6F1DE467B
:1051C000B6F1805F4FEA15251FD9384624F0010C4F
:1051D00005EBC471BCF1FE6F01EB0C1102D8F0BC01
:1051E000BDE8008124425CBF01F5801E9EEAC47FB9
:1051F00002D4F0BCBDE80081244238D4F0BCA1F157
:10520000C041BDE8004100F007BA4FEAD22242EAAD
:1052100043524FEAD323A7FB02864FEAD02040EA4D
:10522000415007FB03661EEA0E0F4FEAD12105FB32
:10523000026658BFA6EB0056B6EB00564FEA520E78
:105240004EEAC37E18EB0E0E56EB530EBDD518EB8F
:1052500002085E417F1C55F10005B6E74FF480154A
:105260004FF000074FF000064FF00008ADE7F0BC2C
:105270004FF0000001F1C04101F00041BDE80081A4
:1052800011EA0C1F0CEA131500D00CE013EA0C1FF6
:1052900000F025804FF00000F0BC81EA030101F02E
:1052A0000041BDE80081F0BCBDE8004181EA030196
:1052B00000F0B2B9F0BCBDE8004170B500F05EF995
:1052C000097EFC3E00F007B881EA03014FF00000C0
:1052D00001F00041704781EA030100F09DB9F0BC84
:1052E000BDE800414FF0000021497047FFFDFBF988
:1052F000F7F5F4F2F0EEEDEBE9E8E6E4E3E1E0DE09
:10530000DDDBDAD8D7D5D4D3D1D0CFCDCCCBCAC87A
:10531000C7C6C5C4C2C1C0BFBEBDBCBBBAB9B8B7A1
:10532000B6B5B4B3B2B1B0AFAEADACABAAA9A8A894
:10533000A7A6A5A4A3A3A2A1A09F9F9E9D9C9C9B62
:105340009A9999989797969595949393929191900D
:105350008F8F8E8E8D8C8C8B8B8A8989888887879E
:105360008685858484838382828181800000FF0713
:105370000000F87F4FEA41034FEA5353A3F58063DF
:10538000D3F11E03C8BFD3F1210C0CDD4FF0004256
:1053900042EAC12242EA505232FA03FC8CEAE17C32
:1053A000ACEBE1707047102BC4BF0020704703F5D1
:1053B000787CBCF1FF3F04D06FF0004282EA21000C
:1053C000704770B500F0DAF84992248000207047E9
:1053D000F2E710F0004248BF4042B0FA80F310FA02
:1053E00003F10AD0C3F11D0303F580634FEA415076
:1053F00002EB035202EBD12170474FF000007047DF
:10540000B0FA80F310FA03F10AD0C3F11D0303F5DB
:1054100080634FEA41504FEA035202EBD1217047BB
:105420004FF0000070470000DFF848C170B51CEA7B
:10543000111E1EBF1CEA13159EEA0C0F95EA0C0FF5
:1054400000F06F8081EA030423EA4C134EEAD47E15
:1054500021EA4C1141F4801143F48013AE44A1FBC6
:10546000024CA0FB0365AEF17F7E361955EB0C05AF
:10547000A1FB034C4CF10003A0FB021C16EB0C0635
:10548000654153F10003094218BF46F0010613F4C9
:10549000007F0BD14FEA03314FEA0530340341EA74
:1054A000155140EA16506FF003020AE04FEAC3219B
:1054B0004FEAC520F40241EA555140EA56506FF0D8
:1054C000020202EB2E4201EB025585EACE710AD0B0
:1054D0005FEA440C18BF24F0004450F1000041F191
:1054E000000120EAD47040F2FE7C624500D270BD1B
:1054F000A84214BF4FF080444FF04044002E08BF34
:105500000024BEF1806FA8BFA1F1C041BDE870408A
:1055100080F282804FF0000001F1C04101F00041B3
:1055200070479EEA0C0F0CEA131518BF95EA0C0F92
:1055300006D04FF0000081EA030E0EF0004170BD6E
:1055400000F01CF88900013E00F007B800F009B82F
:105550004FEA430C5FEA5C5C08D081EA030100F08B
:105560005BB84FEA410C5FEA5C5CF6D14FF000009B
:10557000014970470000FF070000F87F0EF1020E9E
:105580002EF0030E5EF8046B364205D4012A43EB7D
:10559000030515F5001F12D8012841EB010C1CF57D
:1055A000001F0CD80ED14FEAD17C15F5001F0CEB73
:1055B0004C0C0CF1020C08BF4CEBD37C04E04FF018
:1055C000080C01E04FEAD37C0CEB4C0526FA05F6FB
:1055D00006F00706B6F1040C06D20EEB860CBDE809
:1055E00070404CF0010C6047DFE80CF0090B020240
:1055F0004FF000414FF00000A1F5002170BD1946A9
:105600001046012851EB010418BFD4F5001484BFE3
:10561000002001F0004170BD0808A0F500114FEA1C
:105620003101704791EA030F10B581F000413FF559
:10563000A1AC83F0004300F0EFB800002DE9F04189
:1056400001F5801CBCF5001FC0F2C3804FEA115C5D
:1056500021EA0C510CF1FD0C41F480115FEA5C0C65
:105660000CF5C07C01D3400049413DA4890241EAC8
:10567000905187028E0E0A0CA45D04FB04F602FB17
:1056800006F6C6F14046A4FB0662F60D46EA42263F
:1056900006FB06F4A4FB01235242C3F1404338BF8A
:1056A0005B1EA6FB02420024E6FB0324D20B42EA67
:1056B0004446A6FB0623A1FB02E2A3FB07E4A418D1
:1056C0004FF0000252F10002E3FB01426442C2F1DA
:1056D000404E38BFAEF1010EA6FB04234FF000028E
:1056E000E6FB0E32A2FB03464FF00004B61954F15C
:1056F0000004E2FB0264A1FB06E6A4FB07E816EB4C
:1057000008064FF0000858F10008E4FB01687642F3
:10571000C8F1405838BFA8F10108A2FB06E4A3FB7A
:1057200008E52D194FF0000454F10004E2FB085481
:10573000A1FB05E6A7FB04E818EB06084FF00006FE
:1057400056F10006E1FB048618F1200556F100062B
:10575000A809A8F11B08B10908F03F08B8F10A0F21
:1057600040EA86601CD901EB0C51BDE8F08100BF16
:10577000FCF5EEE8E2DDD8D3CFCBC7C3C0BDB9B6E8
:10578000B4B1AEACA9A7A5A3A19F9D9B9A989695ED
:105790009392908F8D8C8B89888786858483828174
:1057A000A0FB006800FB01F208EB4208B8EB872879
:1057B00007D5341858EB0104D5D5401C51F1000130
:1057C000D1E7341A78EB0104CDD4401E71F1000109
:1057D000C9E75FEA4C0C5FEA9C5C0DD105D34FF042
:1057E000000001F00041BDE8F081BDE8F04170B576
:1057F000FFF7C4FE6DDBFFBEBDE8F0414FF00000D7
:10580000004970470000F87F10B591EA030F48BFC8
:1058100083F000433FF5AEAB841A71EB030C07D263
:1058200012198CF0004C43EB0C03001B61EB0C01D4
:10583000DFF8A4E14FEA1154A4EB135C1EEA430F16
:1058400018BF9EEA445F00F0B08023EA6E03524224
:1058500021EA0451C3EB6E0338BF5B1EDCF1200E5E
:1058600025D322FA0CFE10EB0E0043FA0CFE41EB9E
:105870000E01CCF1200E03FA0EFE10EB0E0051F1DA
:105880000001CCF1200E29D412FA0EF201EB0451E2
:10589000BDE8104058BF7047401C1CBFB2F1004F1C
:1058A000704700280CBF491C20F00100704712EB24
:1058B000020E43EB030218BF4FF0010E4EEA420204
:1058C000ACF1200CDCF11E0E54D943FA0CFE10EBA7
:1058D0000E0051F1FF31CCF11E0ED5D50EF1010EA7
:1058E00012FA0EFE404141EB010101EB445C5FEA1C
:1058F0005C5C10D910EBDE7001EB045138BFBEF1D7
:10590000004FBDE8104018BF704700280CBF491C6D
:1059100020F00100704730D24FEAD42C11F500116D
:1059200024F400641BD0B1FA81F20B3AA41AA41E2D
:10593000D2F12003914030FA03F31943904001EB78
:10594000CC71002C01EB0451BDE81040A8BF70479A
:1059500001F1C0414FF0000001F000417047B0FA82
:1059600080F310FA03F100D110BDE41A173C48058A
:10597000C90AE4E701EB045110BD491001EB0451E1
:10598000BDE810404FEA300002E04FF000017047E0
:105990004A0008BF0042F8D0B2F5001F28BF704788
:1059A00001F000414FF0000070479EEA445F07D0CD
:1059B00011EA5E0FBDE8104004BF002100207047CF
:1059C000BDE8104070B5FFF7D9FD00BF40DFF63EDF
:1059D00083F00041104670470000E0FF43004FEAAB
:1059E000D30C4FEA3C0C43401FBF40070CF1605101
:1059F00013F0FE4F70471CF0006F03D100200CF035
:105A0000004170470CF0004343EA507010B540EA83
:105A1000CC0000F0E8F900BF000000924FEA00015E
:105A2000FFF7FABD4FF000414FF00000A1F5002153
:105A30007047000090EA010F48BF81F0004100F17B
:105A40002482421A3CBF801A89184FEAD0524FF084
:105A50007F4C1CEA410FA2EBD15318BF9CEA026FA6
:105A600000F03B804FF0004C4CEA00204CEA012152
:105A700021FA03FC10EB0C0C1ED202F1FF325FEA9C
:105A80001C2040EBC25038BF70471CF07F0F4FEA1C
:105A9000400C18BFBCF17F4F38BF7047C3F12003E3
:105AA000994008BF20F00100BCF17F4F38BF70471C
:105AB000A0F1C04000F0DDB94FEA3C00000A40EB25
:105AC000C25028BF1CF0FF0F4FEA400CE6D018BFB1
:105AD000BCF17F4F38BF7047EAE79CEA026F05D000
