:020000040800F2
:100000001823002021020008EF250008192200080B
:10001000ED250008C3040008DD2F000800000000E3
:10002000000000000000000000000000890100083E
:10003000E304000800000000CD010008C92A000800
:100040003B0200083B0200083B0200083B0200089C
:100050003B0200083B0200083B0200083B0200088C
:100060003B0200083B0200083B0200083B0200087C
:100070003B0200083B0200083B0200083B0200086C
:100080003B0200083B0200083B0200083B0200085C
:100090003B0200083B0200083B0200083B0200084C
:1000A0003B0200083B0200083B0200083B0200083C
:1000B0003B0200083B020008712B00083B020008CD
:1000C0003B0200083B0200083B0200083B0200081C
:1000D0003B0200083B020008D12F00083B02000849
:1000E0003B0200083B0200083B02000800F002F857
:1000F00000F03AF80AA090E8000C82448344AAF188
:100100000107DA4501D100F02FF8AFF2090EBAE885
:100110000F0013F0010F18BFFB1A43F0010318473B
:1001200088560000A8560000103A24BF78C878C14D
:10013000FAD8520724BF30C830C144BF04680C60ED
:10014000704700000023002400250026103A28BF35
:1001500078C1FBD8520728BF30C148BF0B60704739
:100160001FB51FBD10B510BD00F04AF91146FFF7CD
:10017000F7FF02F07DFF00F068F903B4FFF7F2FF2C
:1001800003BC00F06BF90000224B19680868B0E866
:10019000F00F80F30988BFF36F8F4FF0000080F3FA
:1001A00011884EF00D0E70470000000006480068F0
:1001B000006880F3088862B661B6BFF34F8FBFF363
:1001C0006F8F00DF00BF00BF08ED00E0EFF3098094
:1001D000BFF36F8F0F4B1A6820E9F00F106008B55E
:1001E0004FF0500080F31188BFF34F8FBFF36F8F34
:1001F00003F0CCFF4FF0000080F31188BDE8084009
:1002000019680868B0E8F00F80F30988BFF36F8FB2
:10021000704700BF58000020EFF3058070470000D2
:100220000948804709480047FEE7FEE7FEE7FEE78A
:10023000FEE7FEE7FEE7FEE7FEE7FEE704480549C6
:10024000054A064B704700006D2B0008ED000008C2
:10025000181D002018230020181F0020181F002040
:10026000032A40F2308010F0030C00F0158011F8E2
:10027000013BBCF1020F624498BF11F801CB00F8BA
:10028000013B38BF11F8013BA2F1040298BF00F80E
:1002900001CB38BF00F8013B11F0030300F0578099
:1002A000083AC0F0088051F8043B083A51F804CBF2
:1002B000A0E80810F5E7121D5CBF51F8043B40F8B8
:1002C000043BAFF30080D20724BF11F8013B11F8C3
:1002D00001CB48BF11F8012B24BF00F8013B00F807
:1002E00001CB48BF00F8012B704702F0FF0343EA3F
:1002F000032242EA024200F05EB84FF0000200B56D
:10030000134694469646203922BFA0E80C50A0E838
:100310000C50B1F12001BFF4F7AF090728BFA0E8E6
:100320000C5048BF0CC05DF804EB890028BF40F8B2
:10033000042B08BF704748BF20F8022B11F0804FF4
:1003400018BF00F8012B704770477047704710B511
:10035000203AC0F00B80B1E81850203AA0E81850BD
:10036000B1E81850A0E81850BFF4F5AF5FEA027C7E
:1003700024BFB1E81850A0E8185044BF18C918C0ED
:10038000BDE810405FEA827C24BF51F8043B40F88E
:10039000043B08BF7047D20728BF31F8023B48BF73
:1003A00011F8012B28BF20F8023B48BF00F8012BB1
:1003B00070474FF000020429C0F0128010F0030CC7
:1003C0003FF49DAFCCF1040CBCF1020F18BF00F854
:1003D000012BA8BF20F8022BA1EB0C01FFF78FBF68
:1003E0005FEAC17C24BF00F8012B00F8012B48BF55
:1003F00000F8012B7047000000487047B81C00202F
:100400007546FFF7F9FFAE4605006946534620F0F2
:100410000700854618B020B5FFF710FFBDE8204063
:100420004FF000064FF000074FF000084FF0000BB0
:1004300021F00701AC46ACE8C009ACE8C009ACE863
:10044000C009ACE8C0098D46704710B50446AFF34B
:1004500000802046BDE81040FFF78FBE01491820FC
:10046000ABBEFEE7260002007047000070B50446F0
:1004700000688168C943C90717D1816821F001016B
:10048000816000F007FB05460AE000BF00F002FBB8
:10049000401B022804D920688068C043C00706D0EA
:1004A00020688068C043C007F0D0002070BDA06AFB
:1004B00040F01000A062E06A40F00100E06201201C
:1004C00070BDFEE710B503460022104606E000BFEF
:1004D00013F8014B521C2044C0B2D2B28A42F7D367
:1004E00010BD704772B6FEE7F8B50024009490F88E
:1004F00024202546012A12D0012280F824204A68AF
:100500001F23072A0DD20668776B521E02EB820268
:1005100093409F430B6893401F43776319E0022089
:10052000F8BD06680D2A0AD2376BD21F02EB820291
:1005300093409F430B6893401F43376309E0F76A7A
:100540000D3A02EB820293409F430B6893401F4396
:10055000F7620A68072306680A2A0AD3F7680A3A84
:1005600002EB420293409F438B6893401F43F76026
:1005700008E0376902EB420293409F438B68934047
:100580001F4337610A68102A01D0112A20D1124B6B
:1005900002689A4217D193681B0219D4936843F4F6
:1005A000000393600968102912D10C490C4A0968AC
:1005B000B1FBF2F101EB8101490000E0491E00911D
:1005C0000029FBD104E0816A41F02001816201240D
:1005D00080F824502046F8BD002401402800002067
:1005E00040420F002DE9F0414FF0000704003D4666
:1005F0007ED0A06A002628B9E66284F824602046EE
:1006000000F07EF82046FFF731FFA16AC90600D44A
:1006100020B1A06A40F01000A06269E0A16A21F454
:10062000885141F00201A1626268E169237B0A43BB
:1006300047EA43010A43A1684FF48077B94209D0E1
:10064000012907D05FF0000194F814C0BCF1010F3C
:1006500002D00AE03946F7E7F3B1A36A43F020037A
:10066000A362E36A43F00103E3622368D3F804C0A2
:100670002CF4694C4CEA010CC3F804C021688B6867
:10068000DFF870C003EA0C0313438B60A168B94222
:100690000BD0012909D00CE0DFF85CC0A3690CEB9A
:1006A00043330B4343F40061DFE7218A0D05A5F5D1
:1006B00080152168CB6A23F470032B43CB62216839
:1006C00089680E4B1940914208D1E662A16A21F077
:1006D000020141F00101A162BDE8F081A06A20F0B1
:1006E000020040F01000A062E06A40F00100E06209
:1006F0000120F1E7FDF7E1FF00E0FFFFFE0E1FFF25
:1007000000B585B00021009101910291039100682C
:100710000E49884218D10E48816941F40071816107
:10072000816901F400710491816941F004018161E2
:100730008069694600F004000490102000900320B6
:100740000190044800F0B0F805B000BD002401405D
:10075000001002400008014010B5040002D060798A
:1007600010B106E0012010BD00202071204600F0ED
:1007700005F801206071002010BD000008B5006878
:100780000649884208D10648416941F0400141616B
:10079000406900F04000009008BD000000300240B9
:1007A0000010024010B590F821100022022905D057
:1007B0000421816380F82020012010BD01680B68AE
:1007C00023F00E030B6001680B6823F001030B603C
:1007D00090F84030C46B012101FA03F3636080F8A4
:1007E000211080F82020104610BD000010B590F8B0
:1007F00021100024022903D00421816301243DE05B
:1008000001680A6822F00E020A6001680A6822F094
:1008100001020A601A4A0168914201D1012121E0D6
:10082000174A1432914201D110211BE0144A283298
:10083000914201D1891515E0114A3C32914201D112
:1008400089140FE00E4A5032914202D14FF48031A8
:1008500008E00B4A6432914202D14FF4801101E06A
:100860004FF08071064A083A5160012180F821104A
:10087000002180F82010416B01B18847204610BD4F
:100880000800024070B5044600F004F90546601CFB
:1008900002D004480078044400F0FCF8401BA04259
:1008A000FAD370BD1C0000202DE9F84FDFF8B89195
:1008B0000024A9F1040B23460F2709F1040AABF128
:1008C000040EC9E00125A5402A40AA427DD1674E09
:1008D000D1F804C0ACEB0608B44532D014DCBCF14E
:1008E000030F3AD009DCBCF1000F2AD0BCF1010F94
:1008F0001CD0BCF1020F31D11DE0BCF1110F17D09B
:10090000BCF1120F2AD119E0B8F5881F19D006DC06
:10091000B8F5803F15D0B8F5801F1FD111E0B8F5AC
:10092000001F0ED0B8F5041F18D10AE0CB6815E0FF
:10093000CB681B1D12E0CB6808330FE0CB680C338B
:100940000CE08B682BB1012B4FF0080303D04561FD
:1009500004E0042302E0056100E00023FF2A01D83F
:10096000064601E000F104064FEA840501D9A5F12D
:100970002005D6F8008007FA05FC28EA0C0803FADF
:1009800005F548EA0508C6F800804D68ED0062D517
:10099000374DAE6946F00106AE61AD6924F003063D
:1009A00005F001050095334D06EB050CDCF8085009
:1009B000A607360F07FA06F825EA0805DFF8B8801B
:1009C000404503D14FF0000817E044E0DFF8AC8069
:1009D000404502D14FF001080FE0DFF8A480404508
:1009E00002D14FF0020808E0DFF89880404502D1BC
:1009F0004FF0030801E04FF0040808FA06F848EA4F
:100A00000508CCF808804D68D9F80060ED024D4625
:100A100001D5164300E096432E604D68DAF8006079
:100A2000AD02554601D5164300E096432E604D6851
:100A3000DBF80060AD035D4601D5164300E0964348
:100A40002E604D68DEF80060ED03754601D5164353
:100A500000E096432E60641C0D682A46E5407FF452
:100A600031AFBDE8F88F000008040140000011100C
:100A7000001002400000014000080140000C01404D
:100A800000100140001401400AB1016170470904DF
:100A9000FBE7000001488068704700001C00002050
:100AA00070B5040025D094F83D00002520B984F8E5
:100AB0003C50204600F0B8F8242084F83D0020681F
:100AC000016821F0010101602068016841F40041E2
:100AD00001602068016821F40041016000F0CAFA59
:100AE0004D4A6168914201D84C4900E04C49884226
:100AF00001D2012070BD4B492368B0FBF1F15E6863
:100B000026F03F060E435E606368934206D94FF4B9
:100B1000967359434FF47A73B1FBF3F12368491C80
:100B20001E6A26F03F06314319626168914210D86F
:100B30004900401EB0FBF1F2521CC2F30B02042A22
:100B400001D2042022E0B0FBF1F0401CC0F30B0006
:100B50001CE0A268F2B301EBC10303EB0116431ED4
:100B6000B3FBF6F35B1C43F480431B0549D092B3FF
:100B700001EBC10202EB0111401EB0FBF1F0401C81
:100B8000C0F30B0040F4804040F400402168CA6983
:100B90004CF6FF739A431043C861D4E90710014330
:100BA0002068026822F0C00211430160D4E9030109
:100BB00001432068826848F2FF339A431143816001
:100BC000D4E9050108432168CA6822F0FF021043F6
:100BD000C86001E00EE016E02068016841F0010104
:100BE00001602564202084F83D00256384F83E5090
:100BF000002070BD01EB4106431EB3FBF6F35B1C06
:100C0000B3E70120C2E701EB4101401EB0FBF1F068
:100C1000401CC0F30B00B7E7A086010080841E00D3
:100C200000093D0040420F0010B586B00021009140
:100C30000191029103910068104988421BD1104C28
:100C4000A06940F00800A061A069694600F00800B2
:100C500004904FF440600090122001900320039014
:100C60000848FFF721FEE06940F48000E061E06998
:100C700000F48000049006B010BD00000058004051
:100C800000100240000C01400248816802781144C3
:100C9000816070471C000020074810B5016841F0D2
:100CA00010010160032000F0A7F80F2000F006F803
:100CB00000F050F8002010BD0020024030B505467D
:100CC0001F4887B0C16941F00401C161C06906A92C
:100CD00000F00400009001A800F0ACF90498B0B155
:100CE00000F0C8F940001749174AB0FBF1F1174866
:100CF000491E0260416040F2E7320021C0E9032151
:100D00008160816100F054FD040003D015E000F023
:100D1000B1F9E8E70D4800F079FD04000DD11E207F
:100D200000F03CF8102D07D2002229461E2000F0CA
:100D300043F80748056000E0012407B0204630BDB5
:100D40000010024040420F0000080040F002002066
:100D5000200000200F4808B5816941F00101816140
:100D6000816901F001010091C16941F08051C161C7
:100D7000C069002200F0805000900F21901E00F00A
:100D80001BF80548416821F0E06141F000714160C5
:100D900008BD00000010024000000140002809DBEF
:100DA00000F01F02012191404009800000F1E02085
:100DB000C0F8001170470000F0B40E4B1B680C46E1
:100DC000C3F30223C3F10705042D00D90425191D1F
:100DD000072901D2002300E0DB1E012606FA05F1F7
:100DE000491E214099409E40761E16403143F0BC7A
:100DF00002F0F5B80CED00E0064900F007020868C3
:100E00004FF6FF03184040EA0220034A10430860EF
:100E1000704700000CED00E00000FA052DE9F843F2
:100E200005460078354CC00754D0E0690026C00064
:100E300008D4E06940F08050E061E069012600F0EC
:100E4000805000902E480168C90512D40168804680
:100E500041F480710160FFF71DFE074605E000BF09
:100E6000FFF718FEC01B642823D8D8F80000C0057F
:100E7000F6D5206A10F4407021D0A98801F44071A1
:100E800081421CD0206A1F49012220F440700A6070
:100E900000220A602062C00711D0FFF7FBFD074661
:100EA00041F2883808E000BFFFF7F4FDC11B41455F
:100EB00002D90320BDE8F883206A8007F4D5206AB0
:100EC000696820F44070084320621EB1E06920F098
:100ED0008050E0612878800705D56068A96820F413
:100EE0004040084360602878C00605D56068E9681E
:100EF00020F48000084360600020DBE7001002401F
:100F000000700040400442422DE9F0470F460500C2
:100F100061D0434E306800F00700B84209D2306813
:100F200020F0070038433060306800F00700B84216
:100F300051D128683B4C810712D5400703D5606822
:100F400040F4E06060602878000703D5606840F4F2
:100F5000605060606068A96820F0F000084360603D
:100F60002878C00728D06868012810D02168022896
:100F700010D0890700292EDA616821F003010143AE
:100F80006160FFF787FD804641F288390DE02168F6
:100F90008903EFE78901EDE7FFF77CFDA0EB08018E
:100FA000494502D90320BDE8F0876068696800F010
:100FB0000C00B0EB810FEFD1306800F00700B842B1
:100FC0000BD9306820F0070038433060306800F0FB
:100FD0000700B84201D00120E5E72878400705D591
:100FE0006068E96820F4E0600843606028780007E2
:100FF00006D56068296920F4605040EAC10060604D
:1010000000F058F86168084AC1F30311515CC84008
:101010000649086006480068FFF750FE0020C2E756
:101020000020024000100240525700082800002013
:10103000200000200F2202600C4A536803F00303D3
:101040004360536803F0F0038360536803F4E06384
:10105000C36052684FF4E06303EAD20202610448BD
:10106000006800F0070008607047000000100240B0
:10107000002002400448054900684968044AC1F359
:101080000221515CC8407047280000200010024037
:10109000625700080448054900684968044AC1F3DA
:1010A000C221515CC8407047280000200010024057
:1010B000625700080E4A51680E4801F00C03042BD9
:1010C00011D0082B0FD10C48C1F38343C903C05C76
:1010D0000AD55168084AC1F34041921E515C054A45
:1010E0005043B0FBF1F0704704494843704700009B
:1010F0000010024000127A004257000800093D002B
:101100002DE9F84F040070D02078C04DC00749D0B9
:101110006868C0F38100012807D06868C0F38100C7
:10112000022809D16868C00306D52868800339D52C
:1011300060680028E7D035E06068B0F5803F0BD0EC
:1011400010B1B0F5A02F11D0286820F480302860AD
:10115000286820F4802002E0286840F4803028606D
:10116000606890B1FFF796FC06460AE0286840F4F4
:1011700080202860F0E700BFFFF78CFC801B64280C
:1011800073D828688003F7D50CE0FFF783FC064688
:1011900005E000BFFFF77EFC801B6428F0D82868BC
:1011A0008003F7D420789A4E80074FF001094FF062
:1011B000000839D5686810F00C0F07D06868C0F3D4
:1011C0008100022809D16868C00306D42868800716
:1011D00014D52069012808D110E02069B0B1C6F803
:1011E0000090FFF757FC074605E00AE1FFF752FCC5
:1011F000C01B0228C4D828688007F7D52868616911
:1012000020F0F80040EAC10028600DE0C6F8008038
:10121000FFF740FC074604E0FFF73CFCC01B022838
:1012200023D828688007F7D4207800072CD5794880
:10123000A169D9B1C0F80090FFF72CFC074604E083
:10124000FFF728FCC01B02280FD8686A8007F7D573
:1012500071484FF4FA510068B0FBF1F0009000BF04
:101260000098411E0091FAD20EE080E0C0F80080A4
:10127000FFF710FC074604E0FFF70CFCC01B022838
:1012800075D8686A8007F7D42078400760D5E86988
:101290000027C00008D4E86940F08050E861E869A0
:1012A000012700F0805000905C480168C90513D404
:1012B0000168834641F480710160FFF7EBFB8246D1
:1012C00006E000BFFFF7E6FBA0EB0A0064284ED85B
:1012D000DBF80000C005F5D5E06801280AD008B1A8
:1012E000052813D0286A20F001002862286A20F01F
:1012F000040002E0286A40F001002862E06841F240
:10130000883B98B1FFF7C6FB82460BE0286A40F0A5
:1013100004002862EEE700BFFFF7BCFBA0EB0A0168
:1013200059455AD8286A8007F6D50CE0FFF7B2FB7A
:10133000824605E0FFF7AEFBA0EB0A0159454CD809
:10134000286A8007F6D41FB1E86920F08050E86170
:10135000E06988B36968C1F38101022944D0022899
:10136000C6F8608004D0FFF795FB044638E034E00F
:10137000FFF790FB074604E0FFF78CFBC01B022839
:101380002BD828688001F7D4206AB0F5803F05D1BA
:101390006868A16820F4003008436860D4E9080157
:1013A0000843696821F4741108436860C6F86090C6
:1013B000FFF770FB044606E025E000BFFFF76AFB7D
:1013C000001B022809D828688001F7D51BE000BF60
:1013D000FFF760FB001B022802D90320BDE8F88F4D
:1013E00028688001F4D40EE00128F7D06868226AEA
:1013F00000F48031914204D1616A00F47010884297
:1014000001D00120EAE70020E8E7000000100240D8
:101410000000424280044242280000200070004048
:1014200070B5040009D0606A002540B1256165618E
:10143000A56294F8510040B10CE0012070BD6068D5
:10144000B0F5827FF4D0E561F2E784F85050204691
:1014500000F040F8022084F851002068016821F073
:1014600040010160A088218900F4827001F40441E8
:101470000843A18901F400610843217C01F00201C5
:101480000843217D01F001010843218B01F4007123
:101490000843217F01F03801084394F8201001F03F
:1014A00080010843218D01F4005108432168086040
:1014B000A069042101EA1040216848602068C169E0
:1014C00021F40061C1616565012084F851000020AC
:1014D00070BD000030B585B00024009401940294E2
:1014E00003940068174988422AD11748816941F45A
:1014F00080518161816901F480510491816941F0D9
:10150000080181618069114D00F0080004902820D5
:101510000090022001900320039069462846FFF7BF
:10152000C3F91020CDE90004694628460294FFF76C
:10153000BBF90748416841F0E06141F001014160B9
:1015400005B030BD0030014000100240000C0140E9
:10155000000001402DE9FF4F81B0044690F8500093
:1015600000260E9F1D4693464FF0010901280FD01B
:101570004FF0010A84F850A0FFF78CFA804694F8E7
:101580005100616801280DD0B1F5827F08D103E0D8
:10159000022005B0BDE8F08FA16809B9042801D088
:1015A0000226C9E00298002865D0BBF1000FFBD0ED
:1015B000002DF9D094F85100042802D0052084F8B9
:1015C000510000206065C4F838B0E587A58702990E
:1015D0002163E586A5862064606420680168490669
:1015E00003D4016841F040010160E068B0F5006F8C
:1015F000606803D0F0B3012D47D081E008B1012D20
:101600003CD1206B21680088C860206B801C20635F
:10161000E08E401EE08631E02068816889070FD5A2
:10162000E18E69B1B9F1010F0AD1216B0988C1605E
:10163000206B801C2063E08E401EE0864FF0000986
:1016400020688168C9070CD0E18F51B1C068A16BD7
:101650000880A06B801CA063E08F401EE0874FF0E5
:101660000109FFF717FAA0EB0800B84206D3781C6F
:1016700004D001E009E05BE003265BE0E08E002897
:10168000CAD1E08F0028C7D140E0206B21680078E4
:101690000873206B401C2063E08E401EE0862FE024
:1016A0002068816889070FD5E18E69B1B9F1010F12
:1016B0000AD1216B09780173206B401C2063E08EF6
:1016C000401EE0864FF0000920688168C9070CD0F1
:1016D000E18F51B1C068A16B0870A06B401CA06382
:1016E000E08F401EE0874FF00109FFF7D3F9A0EB30
:1016F0000800B84202D3781C02D0BAE7002FB8D055
:10170000E08E0028CCD1E08F0028C9D1424639466E
:10171000204601F045F918B10126202060650BE054
:10172000A06818B92068C16880680090606D08B131
:10173000012601E084F851A0002084F850003046D2
:1017400027E770477047000070B590F83C20012AE9
:1017500026D0012480F83C40022280F83D20036816
:101760005A689D6822F070060A6832435A600D4B31
:1017700002689A4208D0B2F1804F05D00A4B9A42D3
:1017800002D00A4B9A4204D1496825F080031943DC
:10179000916080F83D40002180F83C10084670BD03
:1017A000022070BD002C01400004004000080040F1
:1017B00010B5040003D094F83D0010B107E00120FB
:1017C00010BD002084F83C00204600F01EF80220E6
:1017D00084F83D00211D206801F0D0F9012084F833
:1017E000460084F83E0084F83F0084F8400084F806
:1017F000410084F8420084F8430084F8440084F8EF
:10180000450084F83D00002010BD704790F83D1061
:10181000012901D001207047022180F83D100168A4
:10182000CA6842F00102CA6000680B49884208D0C9
:10183000B0F1804F05D00949884202D0084988425A
:1018400004D1816801F00701062903D0016841F045
:101850000101016000207047002C0140000400409D
:10186000000800402DE9F0410D46040003D094F833
:101870003D0018B108E00120BDE8F081002084F8A7
:101880003C00204600F040F8022084F83D0020682B
:10189000816844F2070291438160211D206801F0B4
:1018A0006DF9226890689169166A2B68AF690343E5
:1018B00040F20330814341EA0721A868EF690843F9
:1018C0004FF6FC418843E96840EA07200143286954
:1018D0002F6A000140EA0730084369686D6926F005
:1018E000220646EA0515294393602268906154F860
:1018F000460B0162012004F81F09E0752076E076AE
:101900002077A0750020B7E700B585B000210091D1
:10191000019102910391194B0268194919489A42A1
:1019200012D18A6942F400628A618A6902F4006213
:1019300004928A6942F004028A61896901F0040113
:1019400004914FF4407113E0B2F1804F14D1CA6991
:1019500042F00102CA61CA6902F0010204928A6976
:1019600042F004028A61896901F0040104910321B3
:1019700000916946FEF798FF05B000BD002C0140BC
:10198000001002400008014070B590F83E60044627
:1019900090F83F5090F8423090F84320022021B157
:1019A00004290ED0012E1BD114E0012E18D1012BD9
:1019B00016D184F83E0084F84200012200212068FC
:1019C00020E0012D0CD1012A0AD184F83F0084F8CF
:1019D000430014E0012D03D1012B01D1012A01D0D4
:1019E000012070BD84F83E0084F83F0084F8420076
:1019F00084F8430001220021206801F0F5F801225B
:101A00000421206801F0F0F82068016841F001012C
:101A10000160002070BD704770B504460068016920
:101A20004FF00005C943890715D4C168C943890728
:101A300011D4E91E016101202077206880698007A8
:101A4000204602D0FFF7E7FF04E000F0D1F820467F
:101A500000F076F9257720680169C943490717D452
:101A6000C168C943490713D46FF004010161022022
:101A700020772068806910F4407F204602D0FFF76D
:101A8000CAFF04E000F0B4F8204600F059F92577C9
:101A900020680169C943090716D4C168C943090709
:101AA00012D46FF008010161042020772068C0691A
:101AB0008007204602D0FFF7AEFF04E000F098F860
:101AC000204600F03DF9257720680169C943C90621
:101AD00017D4C168C943C90613D46FF0100101615E
:101AE000082020772068C06910F4407F204602D08B
:101AF000FFF791FF04E000F07BF8204600F020F9AA
:101B0000257720680169C943C90708D1C168C9435D
:101B1000C90704D1891E0161204600F061F92068DF
:101B20000169C943090609D4C168C943090605D436
:101B30006FF0800101612046FFF703FE2068016914
:101B4000C943490609D4C168C943490605D46FF0A1
:101B500040010161204600F04DF920680169C94348
:101B600089060BD4C168C943890607D46FF02001E8
:101B700001612046BDE87040FFF7E4BD70BD000084
:101B800010B586B000210091019102910391006887
:101B90001349884221D11348816941F004018161D0
:101BA000816901F004010491816941F008018161BA
:101BB0008069022400F008000490C020CDE90004F0
:101BC000694609480394FEF76FFE0320CDE900043F
:101BD000694606480394FEF767FE06B010BD000094
:101BE000000400400010024000080140000C0140C9
:101BF000704770B5044690F83C0000260D46012859
:101C00000FD0012084F83C006AB1042A1DD0082AB4
:101C10002FD00C2A3FD00126002084F83C0030460B
:101C200070BD022070BD206800F0ECFF2068816963
:101C300041F0080181612068816921F0040181611E
:101C4000206881692A69114311E0206801F002F8D7
:101C50002068816941F4006181612068816921F413
:101C600080618161206881692A6941EA022181617C
:101C7000D2E7206801F01AF82068C16941F0080134
:101C8000C1612068C16921F00401C1612068C16996
:101C90002A69114311E0206801F034F82068C16915
:101CA00041F40061C1612068C16921F48061C161B2
:101CB0002068C1692A6941EA0221C161ACE710B517
:101CC000040003D094F83D0010B107E0012010BDDE
:101CD000002084F83C00204600F01EF8022084F822
:101CE0003D00211D206800F049FF012084F84600D6
:101CF00084F83E0084F83F0084F8400084F84100F6
:101D000084F8420084F8430084F8440084F84500D5
:101D100084F83D00002010BD08B5006806498842DF
:101D200008D10648C16941F00201C161C06900F0F3
:101D30000200009008BD00000004004000100240B6
:101D40007047000010B50446022249B104290ED0A4
:101D5000082913D094F84100012816D0012010BDA5
:101D600094F83E000128F9D184F83E200FE094F861
:101D70003F000128F2D184F83F2008E094F84000A9
:101D80000128EBD184F8402001E084F841200122B1
:101D9000206800F029FF0F492068884203D1426C77
:101DA00042F4004242642068884208D0B0F1804F7B
:101DB00005D00949884202D00849884204D1816887
:101DC00001F00701062903D0016841F0010101601B
:101DD000002010BD002C014000040040000800401D
:101DE00000680349884201D1FEF74EBF70470000EA
:101DF000000800407047704770470000F8B5016860
:101E000004460868CA684B6910F00F0F4FF00005D0
:101E100059D003F0010602F49077374365D0C1072B
:101E200005D0D10503D5616C41F001016164410722
:101E300005D5D90703D0616C41F0020161648107C7
:101E400005D5D90703D0616C41F004016164010735
:101E500007D502F02001314303D0616C41F0080145
:101E60006164616C00293AD0800604D5900602D5E1
:101E7000204600F098FF20684069616CC0F3801034
:101E8000090700D460B3204600F066FF206840696F
:101E9000400621D52068143050E8001F21F0400191
:101EA00040E80012002AF5D1E06BA8B16D4941630A
:101EB000E06BFEF79BFC002811D0E06B416B01B09A
:101EC000BDE8F040084783060FD593060DD52046A0
:101ED000BDE8F84000F067BF2046FFF78DFFF8BD72
:101EE0002046FFF789FF6564F8BD266B2023012E8D
:101EF0007CD1C6067AD5D60678D5086848680090A1
:101F000048694FF00206400640D5E16B086840681A
:101F10000004000CE8D0A28D8242E5D9E0858869F2
:101F200020282DD020680C3050E8001F21F480714B
:101F300040E80012002AF5D12068143050E8001F54
:101F400021F0010140E80012002AF5D12068143088
:101F500050E8001F21F0400140E80012002AF5D1AE
:101F600084F84230256320680C3050E8001F21F0CF
:101F7000100140E80012002AF5D1E06BFEF712FCD8
:101F80006663A08DE18D401A81B22AE0A08DE18DBB
:101F9000401A81B2E08D0028A6D00029A4D0226882
:101FA0000C3252E8000F20F4907042E80007002F36
:101FB000F5D12068143050E8002F22F0010240E8EB
:101FC0000027002FF5D184F84230256320680C30BB
:101FD00050E8002F22F0100240E80023002BF5D13A
:101FE00066632046FFF707FFF8BDFFE705062BD520
:101FF000150629D594F841002128F5D1A068B0F53F
:10200000805F01D12069B0B1206A411C2162216842
:1020100000784860E08C401E0004000CE084E3D1AE
:102020002068C16821F08001C1602068C16841F06A
:102030004001C160D8E7206A0088C0F3080048600A
:10204000206A801C2062E5E74006CDD55006CBD53E
:10205000CA68204622F04002CA6084F8413000F08D
:10206000DAF8C1E7492D000870B5040004D094F8EF
:102070004100002510B106E0012070BD84F84050F9
:10208000204600F023F8242084F841002068C1682D
:1020900021F40051C160204600F0E6FE206801698D
:1020A00021F4904101612068416921F02A014161D8
:1020B0002068C16841F40051C1606564202084F843
:1020C000410084F842006563002070BD30B585B0E2
:1020D00000240094019402940394006818498842F3
:1020E0002BD11848C16941F40031C161C16901F4C3
:1020F00000310491816941F0040181618069124DD0
:1021000000F00400049004200090022001900320BD
:10211000039069462846FEF7C7FB0820CDE9000476
:10212000694628460294FEF7BFFB002205212620BF
:10213000FEF742FE2620FEF731FE05B030BD00005E
:1021400000440040001002400008014090F8423076
:10215000202B01D00220704721B11AB10023036364
:1021600000F0DEBE0120704700680349884201D1BB
:1021700001F0EABD70470000004400402DE9F8433B
:10218000044690F841001F4616460D46202802D00E
:102190000220BDE8F8837DB176B100206064212083
:1021A00084F84100FEF776FCA6848046E684A068A9
:1021B000B0F5805F02D003E00120EAE7206910B1AA
:1021C0002E4600250EE000260CE08021204600F07F
:1021D000C2FEA0B9AEB116F8010B21684860E08CD0
:1021E000401EE084E08C43464FF000020097002838
:1021F000EBD14FF04001204600F0ADFE30B103209E
:10220000C7E735F8020BC0F30800E6E7202084F8A2
:1022100041000020BDE77047FEE700003EB5002406
:1022200011480094019402940E4984600160047383
:102230000475012505614FF460214460C161FEF71A
:10224000D1F908B1FEF74EF90420CDE90005694641
:1022500002940548FEF748F9002801D0FEF742F93C
:102260003EBD000000240140F4000020074910B5E5
:10227000054808600846FEF76FFA002803D0BDE85D
:102280001040FEF72FB910BD0030024014000020AE
:1022900010B50E4A00210E4801F0E4F80D4C0B4A2F
:1022A0000021206024320C4801F0DCF8074A60600D
:1022B00048320021094801F0D5F8044AA0606C3288
:1022C0000021074801F0CEF8E06010BDB0560008CC
:1022D000C12A000804000020992A000801300008E3
:1022E000793300082DE9F04F85B000242E48009482
:1022F000019402940394816941F010018161816924
:1023000001F010010491816941F02001816181692E
:1023100001F020010491816941F00401816181692A
:1023200001F004010491816941F008018161806933
:10233000DFF8789000F008004FF460450490002228
:1023400029464846FEF7A0FBDFF864A049F620477F
:10235000002239465046FEF797FBDFF858B04FF49D
:102360007048002241465846FEF78EFB0095022633
:1023700001250396CDE9015469464846FEF794FAD3
:1023800000970396CDE9015469465046FEF78CFA52
:10239000CDF800800396CDE9015469465846FEF712
:1023A00083FA05B0BDE8F08F001002400010014034
:1023B00000080140000C01400D4810B50B490160B8
:1023C0000C49416000214FF480428160C0E9031252
:1023D00041618161C1610162FEF762FB002803D0A7
:1023E000BDE81040FEF77EB810BD00000058004068
:1023F00024010020A0860100104810B50E4901609C
:102400004FF48271416000218160C1604FF400721D
:102410000161C0E905121022C0E907214162816211
:102420000A21C162FEF7FCFF002803D0BDE810407E
:10243000FEF758B810BD00000030014078010020C0
:1024400010B58CB024216846FDF757FF00241648CC
:10245000099414490A94C0E900144FF6FF71C0E9C9
:1024600002410461446184610120CDE90004CDE9A9
:1024700002040494CDE90540079469460A4808948B
:10248000FFF7F0F908B1FEF72DF8099409A90648FD
:102490000A94FFF759F9002801D0FEF723F80CB091
:1024A00010BD0000002C0140D001002010B58CB000
:1024B00024216846FDF721FF0024154809944FF0B8
:1024C00080410A94C0E900144FF6FF71C0E902414F
:1024D000046184610120CDE90004CDE90204049483
:1024E000CDE905400794694609480894FFF7BAF911
:1024F00008B1FDF7F7FF099409A905480A94FFF709
:1025000023F9002801D0FDF7EDFF0CB010BD00004D
:102510001802002010B58AB0002407941C216846D8
:102520000894FDF7EAFE22482049C0E9001440F271
:10253000E731C0E9024104618461FFF7C0FB08B1E3
:10254000FDF7D0FF079407A919480894FFF7FCF896
:1025500008B1FDF7C7FF6020CDE900040294002216
:10256000694613480494FFF744FB08B1FDF7BAFF2E
:10257000042269460E48FFF73CFB08B1FDF7B2FFA5
:10258000082269460A48FFF734FB08B1FDF7AAFFA5
:102590000C2269460648FFF72CFB08B1FDF7A2FFA5
:1025A0000348FFF7EDFA0AB010BD00000004004038
:1025B000600200200C4810B50A4901604FF4E13177
:1025C0004160002181600C22C160C0E90412816178
:1025D000C161FFF749FD002803D0BDE81040FDF7B9
:1025E00081BF10BD00440040A8020020FEE7FEE7C6
:1025F0001CB510A1D1E90001CDE90001082000F0CF
:10260000B5F905226946302000F002F90522694635
:10261000102000F083F8002069460A5CA52A03D147
:10262000401CC0B20528F8D3052801D001201CBDEC
:1026300000201CBDA5A5A5A5A500000030B5194822
:1026400085B0816941F00401816180694FF4805453
:1026500000F0040004900020CDE90040124D6946CE
:102660002846FEF721F900F0BDF800222146284651
:10267000FEF70AFA012291022846FEF705FA4FF406
:102680007A750A4C05E02846FEF7FCF82188491CBB
:102690002180FFF7ADFF0028F5D10549042008701F
:1026A00005B030BD00100240000801405600002077
:1026B0000000002070B5174D4FF4805400222146D1
:1026C0002846FEF7E1F90F21202000F0CDF8012186
:1026D000212000F0C9F80121222000F0C5F82821AE
:1026E000252000F0C1F80F21262000F0BDF82021A0
:1026F000312000F0B9F8052207492A2000F088F8B7
:10270000012221462846FEF7BFF9BDE870400120AE
:10271000FEF7B8B8000801406F5700082DE9F047F0
:10272000DFF8449015460F4604464FF480680022B7
:1027300041464846FEF7A8F921460C4800F09CF9AE
:102740000646002406E0FF21084800F095F93855B8
:10275000641CE4B2AC42F6D3012241464846FEF77F
:1027600093F93046BDE8F087000801407801002069
:1027700070B50C4E04464FF4806500222946304661
:10278000FEF782F92146084800F076F9FF21064855
:1027900000F072F90446012229463046FEF774F92A
:1027A000204670BD000801407801002070B5054644
:1027B000102000F0DBF80720FFF7DAFF044601469F
:1027C000272000F051F860060AD520222946612012
:1027D000FFF7A4FFFF21E22000F046F8002070BDC3
:1027E000012070BD10B5094C2068016821F040013E
:1027F00001600020206160612046FEF711FE206824
:10280000016841F04001016010BD00007801002026
:102810002DE9F047DFF8489016460D4604464FF480
:102820008068002241464846FEF72EF921460D48B1
:1028300000F022F90746002407E000BF15F8011B4D
:10284000084800F019F9641CE4B2B442F6D301223E
:1028500041464846FEF718F93846BDE8F0870000C3
:1028600000080140780100202DE9F0410D4E0F468F
:1028700004464FF48065002229463046FEF704F9ED
:102880002146094800F0F8F804463946064800F0A9
:10289000F3F8012229463046FEF7F6F82046BDE857
:1028A000F081000000080140780100202DE9F04788
:1028B000044680886188401A06B2B4F9060002F026
:1028C0002DFDB4F908508146284602F027FD01216C
:1028D00002F0AFFE0746304602F020FD8046394642
:1028E00002F000FE494602F075FC174F796902F0CC
:1028F0002DFD81464046396902F028FD8046701B57
:1029000002F00CFDF96802F021FD414602F062FC84
:10291000494602F05FFC02F0C5FC07464046E1680C
:1029200002F058FCE060E580268120884FF47A713F
:10293000384400B22080884202DC4942884200DAF2
:102940002180BDE8F08700002C0000200020064A0E
:10295000014600BF02EB0013401C1981C0B2D980B0
:102960000428F7D370470000440300200B4910B53A
:102970000A68136823F0400313600A6813684FF66F
:10298000C774234013600A68136803431360086820
:10299000016841F04001016010BD00007801002095
:1029A00038B50B46009204460022802100F008F85A
:1029B000002804D0606D40F020006065032038BD21
:1029C0002DE9F8431E46914688460446089DFEF7C9
:1029D00061F8401B351AFEF75DF807462548006888
:1029E000C0F3CB30684338E0701C37D0FEF752F8A4
:1029F000C01BA84203D215B1009860B32CE0206838
:102A0000416821F0E00141606068B0F5827F0BD140
:102A1000A068B0F5004F02D0B0F5806F04D12068F7
:102A2000016821F040010160A06AB0F5005F09D1A2
:102A30002068016821F4005101602068016841F4B8
:102A400000510160012084F85100002084F85000FA
:102A50000320BDE8F8830025401E009020688168AF
:102A600038EA010004D000214945BDD10020F0E73B
:102A70000121F9E7280000203EB5FF248DF8081059
:102A8000012301AA02A90094FEF764FD08B18DF8A4
:102A900004409DF804003EBD074C084D0648FFF772
:102AA00085FE28B92068286060686860A068A86012
:102AB000142000F081FCF1E7D00000203803002052
:102AC000012000F079FCFBE710B5502080F311885D
:102AD000BFF34F8FBFF36F8F01F0A6FE18B104490B
:102AE0004FF080500860002080F3118810BD000076
:102AF00004ED00E030B593B028216846FDF7FDFBFA
:102B000014210AA8FDF7F9FB002501200F95109567
:102B10001195010412958DE8230004904FF4E01004
:102B2000CDE90810022407946846FEF7E9FA08B1D7
:102B300072B6FEE70AA90F2081E831004FF48060E9
:102B4000CDE90D0502210AA8FEF7DEF908B172B63B
:102B5000FEE74FF4004011900F940FA8FEF75EF9C6
:102B6000002801D072B6FEE713B030BD70470000F8
:102B70000148FEF751BF0000F0020020F0B50268E6
:102B8000164B174C174D4FF08047984205D0B8426E
:102B900003D0A04201D0A84203D122F070064A68B7
:102BA0003243984205D0B84203D0A04201D0A84297
:102BB00003D122F44074CA6822434C6922F0800297
:102BC000224302608A68C2620A688262984201D126
:102BD0000969016301214161F0BD0000002C014041
:102BE000000400400008004010B501F01F0301215F
:102BF000046A99408C430462016A9A40114301625D
:102C000010BD000030B5036A026A22F001020262C0
:102C10004268846924F073050C682C4323F0020594
:102C20008B682B430A4DA8420BD123F00805CB68D3
:102C300022F440722B434D6923F0040315438A6943
:102C40002A434260846149684163036230BD0000E9
:102C5000002C014030B5026A036A23F010030362BE
:102C6000436884690D6824F4E64444EA05248D68C9
:102C700022F0200242EA05120B4DA8420ED1CD6887
:102C800022F0800242EA05124D6923F4406343EAD0
:102C900085038D6922F0400243EA85034360846125
:102CA00049688163026230BD002C014030B5036A7F
:102CB000026A22F4807202624268C46923F40073DB
:102CC00024F073050C682C438D6843EA05230C4DF2
:102CD000A8420ED1CD6823F4006343EA05234D6971
:102CE00022F4405242EA05128D6923F4806342EADD
:102CF00005124260C4614968C163036230BD0000CF
:102D0000002C014030B5046A026A22F4805202624B
:102D10004268C3690D6823F4E64343EA05238D68DE
:102D200024F4005444EA0534064DA84204D14D6908
:102D300022F4804242EA85124260C361496801641C
:102D4000046230BD002C014010B5406A0021C185ED
:102D5000C184FFF751F810BD01680C3151E8002F14
:102D600022F4907241E80023002BF5D10168143160
:102D700051E8002F22F0010241E80023002BF5D199
:102D8000016B012909D101680C3151E8002F22F0B3
:102D9000100241E80023002BF5D1202180F84210D9
:102DA00000210163704708B590F84210222901D034
:102DB000022008BD82684FF480539A4201D1016914
:102DC00021B1816A9A421BD04AB10AE00268816A45
:102DD0005268C2F308020A80816A891C08E002690D
:102DE00072B10268526802F07F020A70816A491C5F
:102DF0008162C18D491E0904090CC18503D01BE005
:102E000002685268F1E70168CA6822F02002CA60CD
:102E10000168CA6822F48072CA6001684A6922F0B7
:102E200001024A61202180F8421000214163026BB7
:102E3000012A03D0FFF798F9002008BD016301685B
:102E40000C3151E8002F22F0100241E80023002B42
:102E5000F5D101680A68D20602D50A68496800916E
:102E6000818DFEF7C8FFE7E770B504460068016989
:102E7000E26821F44051114301612169A0680843CF
:102E8000616908432168CA6841F20C639A430243AE
:102E9000CA6020684169A26921F44071114341610F
:102EA0001E492068884202D1FEF7F4F801E0FEF7DF
:102EB000E1F800EBC00101EB0012606864218000C2
:102EC000B2FBF0F3B3FBF1F36FF018067343B2FB00
:102ED000F0F5B2FBF0F605EB8305322303EB0515A5
:102EE000B5FBF1F5B6FBF1F605F0F00505EB0615BF
:102EF000B2FBF0F6B2FBF0F0B0FBF1F06FF01802AD
:102F0000504306EB800003EB0010B0FBF1F02168AA
:102F100000F00F002844886070BD000000380140B8
:102F200081628285C28500214164222180F842109D
:102F3000016921B10168CA6842F48072CA600168FF
:102F40004A6942F001024A610068C16841F020010B
:102F5000C160002070472DE9F041984617460E46A3
:102F60000446069D27E0681C25D02DB1FDF792FD93
:102F7000A0EB0800A8421ED920680C3050E8001FC2
:102F800021F4D07140E80012002AF5D120681430F5
:102F900050E8001F21F0010140E80012002AF5D19D
:102FA000202084F8410084F84200002084F840008A
:102FB0000320BDE8F0812068006836EA000004D0F4
:102FC0000020B842CFD00020F3E70120F9E700004D
:102FD0000148FEF713BF0000A8020020FEE7090722
:102FE000090E002804DB00F1E02080F8001470478F
:102FF00000F00F0000F1E02080F8141D7047000081
:1030000005495120087000F09FFE00BF00F006F84F
:10301000192000F0D1F9F9E7C003002010B50F4CDA
:103020000F222146A079401CA071A1F13C00FDF7C0
:1030300017F90F21A4F13C00FDF744FA2074214652
:103040001222A1F13C00FDF70BF9A4F13C0104238D
:10305000BDE8104012220248FFF790B8C0030020DC
:10306000A80200200168486A002200B24A62704744
:10307000FDF712FEFFF73EFDFFF734F9FFF7BCF94D
:10308000FFF7DEF9FFF712FAFFF744FAFFF792FABB
:10309000FFF7C4F8FFF790F9FFF7E8F800F082FEB9
:1030A000FFF7CCFAFFF706FB00210B48FEF74AFEBC
:1030B00004210948FEF746FE08210748FEF742FEB4
:1030C0000C210548FEF73EFE00F090F9FFF7E0F80E
:1030D00000F0A8F9FEE70000600200202DE9FC5F87
:1030E0009448954C4188A1F602014A42642192FB22
:1030F000F1F212B2628091460288A2F6020292FBBD
:10310000F1F212B2A28090468288A2F6480292FBA7
:10311000F1F217B2E780C088A0F60200404290FBAF
:10312000F1F000B2208101F02AFE844A844B01F0C4
:103130003DFE05460E46E06902F020F833462A4679
:1031400001F046FD01F012FD7E49E061884201DA9E
:103150007D4803E07D49884201DD7D48E061A3466A
:10316000E06902F0BBF87B49C8717B480078002811
:103170004ED0384601F003FE04460F46404601F0AB
:10318000FEFD05468846484601F0F9FD81460022CD
:10319000724B019101F00AFE82462A464346009195
:1031A00001F016FD22463B4601F0FEFE01F0B8FD9F
:1031B000604E00220C366A4BB0804846019901F0FF
:1031C000F5FD81462A464346019101F001FD224664
:1031D0003B4601F0E9FE01F0A3FDB0822A464346DA
:1031E0004846019901F0E0FE22463B4601F0DCFE34
:1031F00001F096FDB0842A4643465046009901F0FE
:10320000D3FE22463B4601F0CFFE01F089FDB08699
:103210000026484C534F5D468BF800600C342878EC
:1032200037F8101004EB00104180FFF73FFB2878BF
:10323000401CC0B228700428F1D33F4F01212E70EA
:103240001837287804EB0012B2F90020002A01DDBB
:10325000395400E03E54401CC0B228700428F0D31A
:10326000414D3A784FF480512846FDF70DFC3878EF
:10327000B0B300224FF4005949462846FDF704FC3C
:103280004FF480487A7841462846FDF7FDFB787870
:1032900038B300224FF4004631462846FDF7F4FBD0
:1032A000BA7831463148FDF7EFFBB878F0B100222B
:1032B0002F4D31462846FDF7E7FBFA784146284670
:1032C000FDF7E2FBF87898B1002249462846FDF761
:1032D000DBFB397827480029B4F900100BD109E04D
:1032E00000E001E00122C5E70122D3E70122DFE788
:1032F0000122EAE7494201601E487978001D002951
:10330000B4F9101000D1494201601A48B978083068
:103310000029B4F9201000D1494201601548F9781C
:103320000C300029B4F9301000D149420160BDE8E9
:10333000FC9F0000380300202C0000207B14AE47C7
:10334000E17A743F000020419A9921410000204217
:103350009A991F42C0030020540000200000F8BFCB
:103360000000F83F4C000020000C01400008014024
:103370000010014034040040FFF7E8FA0A4C0B4DFE
:103380000B48FFF76FFE404220800A48FFF76AFEB5
:1033900040426080A888A0806888E080FFF79EFE99
:1033A0000A2000F009F8EBE74C000020D2030020CF
:1033B00018020020D001002010B5EFF3058149B9B3
:1033C000EFF3108131B908490968022905D1EFF3FB
:1033D000118111B16FF0050403E0002408B100F081
:1033E00021FE204610BD0000A8000020EFF305805C
:1033F00058B9EFF3108040B909490868022801D094
:1034000030B109E0EFF3118030B16FF00500704783
:1034100001200860002070474FF0FF307047000027
:10342000A800002010B5EFF3058060B9EFF310801D
:1034300048B90B490868022802D0012806D00BE0E1
:10344000EFF3118040B16FF0050010BD022008605D
:1034500000F050FE002010BD4FF0FF3010BD000006
:10346000A8000020F0B585B04FEA01034FF000043A
:10347000EFF305810394A1BBEFF3108189BB2149D0
:103480000968022902D1EFF3118151BB48B38026AC
:1034900018218DF8104004AD42B3176807B13D46BE
:1034A00097691FB139467F1E382F02D21779FF075F
:1034B00002D0002005B0F0BD576907B1BE08D2F8B0
:1034C00008C0BCF1000F0DD0D4685C2C18D3126971
:1034D0003AB137B18DE806103246294601F065F958
:1034E00003900DE0D7685FB912694AB903AACDE924
:1034F0000012B2B2294601F02BF9012800D0039442
:103500000398D7E7A80000202DE9F041134C0F469F
:10351000054666692068001D00F054FC681C07D150
:1035200037B12168BDE8F0410D48091D00F09ABC93
:1035300020683544B5424560216805D2A068BDE8E1
:10354000F041091D00F076BC6068091D00F072FCB6
:10355000206B854200D22563BDE8F0815800002031
:10356000D40800202DE9F041054600F087FC2D4CE1
:103570002069401C206120682B4F10B1E06930B3F6
:103580002BE025602069012827D1002606EB860064
:1035900007EB800000F040FC761C382EF6D3234861
:1035A00000F03AFC2148143000F036FC1F48283067
:1035B00000F032FC1D483C3000F02EFC1B4850301F
:1035C00000F02AFC194860601430A06005E0206813
:1035D000E96AC06A884200D82560E06A401CE0625F
:1035E0006864E86AA169884200D9A06100EB8000A4
:1035F00007EB8000291D00F035FC00F05FFCE0695E
:1036000000280CD02068E96AC06A884207D20849BD
:103610004FF080500860BFF34F8FBFF36F8FBDE84E
:10362000F0810000580000202404002084080020BD
:1036300004ED00E038B500F021FC104CA068C8B9DA
:103640000F4800F0E9FB0E48143000F0E5FB0C4891
:103650002060143060600A4B00202833009003F192
:10366000500210210A2000F017FEA06010B105A141
:1036700000F0A2FCBDE8384000F020BC940000201F
:10368000E8080020546D72510000000030B4026C54
:103690000B46002A0BD0C1681144C1604468A142A6
:1036A00001D30168C16030BC1846FCF7D9BD30BCFD
:1036B00070472DE9F041856B174604460026026CE1
:1036C00082B1C7B1E068FCF7CBFDE168206C091A54
:1036D000E1602268914202D26168081AE060022F1C
:1036E00016D017E02068A8B9606801F001F9064615
:1036F000002060600EE0A068FCF7B2FD216CA068BD
:103700000844A0606168884204D32068A06001E09A
:1037100005B16D1E6D1CA5633046BDE8F08110B586
:10372000044690F8590058B101280CD002280FD057
:10373000502080F31188BFF34F8FBFF36F8FFEE7E8
:10374000206B00F0CFFB2046BDE8104000F0CABB64
:1037500010BD000010484FF44061420706D0C01D64
:103760000D4920F00700411AC1F540610B4A0023C2
:103770000144C2E900030839103A21F00701116041
:103780004B600B600B1AC0E9001393604FF00040D0
:103790005360D06070470000B8100020BC000020CB
:1037A000144E154CA6F29C474FF08058DFF84C9011
:1037B00012E000BF00F062FBF068C568281D00F051
:1037C00001FB2069401E2061E068401EE06000F0BF
:1037D00075FB2846FFF7A3FFE0680028EAD13868A8
:1037E0000128F9D9C9F80080BFF34F8FBFF36F8F5D
:1037F000F2E70000C00800205800002004ED00E0BF
:1038000070B51D46049C51B1C4F80020C4E90F01F5
:103810000121204600F074FD84F84C5070BD2460F6
:10382000F4E72DE9F0470E46DDE9098417468246A4
:1038300091009946089DA522206BFCF756FD6FF07C
:103840000301206B01EB8701084420F0070778078C
:1038500007D0502080F31188BFF34F8FBFF36F8FD5
:10386000FEE72218315C82F83410315C11B1401C43
:103870001028F6D3002684F84360382D00D337256E
:10388000E562C4E91356201D00F0D1FA04F11800D6
:1038900000F0CDFA2461C5F138006462A06166656C
:1038A00084F858604A465146384600F03BFA20609A
:1038B000B8F1000F01D0C8F80040BDE8F087000063
:1038C00030B5114900E011460A688242FBD34B68CB
:1038D0005C18844203D14068184448600846436835
:1038E0001C18944209D1084C103C2468A24209D00B
:1038F00052681A4442600A6812680260814200D02D
:10390000086030BD0460F9E7BC00002070B50024F9
:1039100041600B4D0061914206D8D11A82699142F3
:1039200006D2011D686807E09A4203D2994201D38A
:10393000012403E0011D286800F07CFA204670BDD8
:103940009400002010B5044600F098FAA06B28B14E
:103950005FF0000400F0B2FA204610BD0124F9E740
:1039600030B589B0304D55E00498002806DADDE91D
:103970000601059A9047049800284BDB069C606975
:1039800010B1201D00F01EFA02A800F0B9F802469E
:1039900004980A283ED2DFE800F00505053D2637E9
:1039A00005053D260598A169034601442046FFF719
:1039B000ADFF00B3616A20468847E069012829D13C
:1039C000002000900598A16900234218194620465E
:1039D00001F098F878B9502080F31188BFF34F8F29
:1039E000BFF36F8FFEE70598A06128B181181346D9
:1039F0002046FFF78BFF0DE0502080F31188BFF3C6
:103A00004F8FBFF36F8FFEE794F82C0010B920465C
:103A100000F068FA002204A9A86800F0C3FD00289D
:103A2000A2D109B030BD0000940000202DE9FC4176
:103A30000F46054600F0A2FB01A800F061F804461D
:103A4000019818B100F0CCFFBDE8FC81224EAFB167
:103A500070680068A8B30027291B3A46B06800F0D8
:103A6000BFFA00F0BDFF0028EED11C494FF0805096
:103A70000860BFF34F8FBFF36F8FE5E7A542EBD828
:103A800000F0AEFF30682746C068C468201D00F013
:103A900099F9E069012810D1A0692B4641193A46ED
:103AA0002046FFF733FF40B1002003460146009057
:103AB0002A46204601F026F820B1616A2046884750
:103AC000C2E707E0502080F31188BFF34F8FBFF3A8
:103AD0006F8FFEE70127BFE79400002004ED00E0B0
:103AE00006484168096829B14168C968C9684968D8
:103AF000016370474FF0FF31FAE7000058000020E3
:103B000070B5054600F08AFE064E044630698442D0
:103B100003D200F009F8012000E0002028602046D0
:103B2000346170BD94000020F8B5194D1FE0C068E5
:103B3000C4680668201D00F045F9616A2046884780
:103B4000E069012813D1A0693044B04206D924614C
:103B50006060211D286800F06DF908E00020034630
:103B6000014600903246204600F0CCFF38B128686C
:103B700001680029DBD16968C5E90010F8BD502053
:103B800080F31188BFF34F8FBFF36F8FFEE7000004
:103B90009400002008484068401C4FF0500080F31B
:103BA000118804D0BFF34F8FBFF36F8FFEE7BFF3D1
:103BB0004F8FBFF36F8FFEE7C4000020074C2068D3
:103BC000016841B1C0680021D0F80000FFF72EFF66
:103BD000FFF7C6FEF3E701210020F7E7940000207D
:103BE0002DE9F041044600F049F994F9455004F1FB
:103BF000240609E0606A48B1304600F0B9FE08B119
:103C000000F03EFA6D1E6DB2002DF3DC4FF0FF3672
:103C100084F8456000F052F900F030F994F944500E
:103C200004F1100709E0206948B1384600F0A0FE11
:103C300008B100F025FA6D1E6DB2002DF3DC84F89A
:103C40004460BDE8F04100F039B900002DE9F041D1
:103C50000546002700F092FA314E306808B9FFF7A8
:103C600079FDF06805424BD1C5B3083568070ED021
:103C700005F00700C0F108000544680707D0502090
:103C800080F31188BFF34F8FBFF36F8FFEE72DB323
:103C90007068854234D82248103001460C6801E033
:103CA00020460C466168A94202D221680029F7D15A
:103CB00031688C4224D00768216801606068083749
:103CC000411B10290FD96019420708D0502080F3FA
:103CD0001188BFF34F8FBFF36F8FFEE710E0416095
:103CE0006560FFF7EDFD61687068401A7060B2684A
:103CF000904200D2B060F06801430020C4E90001A6
:103D000000F06EFE780707D0502080F31188BFF3D3
:103D10004F8FBFF36F8FFEE73846BDE8F08100009C
:103D2000AC00002010B5031F4FF080741C601B1FF7
:103D300021F001011960191F024B0B601439403842
:103D40000A6010BD953B000810B50F211148FCF723
:103D5000B9FB1149044608700E480078512805D176
:103D60000C49122201F13000FCF77AFA09480B499C
:103D70003030027CA24202D10078512808D00020C5
:103D80000870BDE81040122202490548FEF7DEB96E
:103D90000120F5E7A20300200100002054000020CC
:103DA000A802002010B53C210448FDF7EDFDBDE858
:103DB00010403C210248FDF7E7BD0000D001002083
:103DC00018020020D0E9013201699A60D0E901238C
:103DD0005A604A68824201D182684A6000220261C8
:103DE0000868401E0860086870470000034B0360C5
:103DF00003F15C000860802010607047000A00201A
:103E0000044B036003F15C0008604FF480701060A5
:103E1000704700005C0C002000F108014FF0FF32F9
:103E2000C0E90112C16001610021016070470021F9
:103E30000161704730B50B685A1C02D000F10802CE
:103E400002E0026904E02246546825689D42FAD9DE
:103E500053684B6099608A60516008610168491C31
:103E6000016030BD42684A6093688B609368596016
:103E7000916008610168491C01607047502080F31F
:103E80001188BFF34F8FBFF36F8F0A494868401CFA
:103E9000486001280CD10848006810F0FF0F07D0D7
:103EA000502080F31188BFF34F8FBFF36F8FFEE771
:103EB00070470000C400002004ED00E00849486895
:103EC00028B1401E486001D180F31188704750200E
:103ED00080F31188BFF34F8FBFF36F8FFEE70000B1
:103EE000C400002070B5002827D0144DA0F10804AC
:103EF0006168E868014207D1502080F31188BFF360
:103F00004F8FBFF36F8FFEE722683AB1502080F3E6
:103F10001188BFF34F8FBFF36F8FFEE7814361605E
:103F200000F02CF960686968084468602046FFF773
:103F3000C7FCBDE8704000F053BD70BDAC00002070
:103F40004FF0E02000210161816105494FF47A7250
:103F50000968B1FBF2F1491E416107210161704717
:103F60002800002010B5FCF757F9114910280ED38E
:103F700000F1E02090F8F0030A78904207D2502038
:103F800080F31188BFF34F8FBFF36F8FFEE70948AF
:103F90000068896800F4E060884207D9502080F307
:103FA0001188BFF34F8FBFF36F8FFEE710BD000086
:103FB000C40000200CED00E010B5084B002200BF4B
:103FC00053F832401CB1521C082AF9D310BD43F8F3
:103FD000321003EBC201486010BD0000E403002072
:103FE00070B515460E460446FFF748FF94F9441095
:103FF0000020491C01D184F8440094F94510491C63
:1040000001D184F84500FFF759FFA06B28B92A4673
:10401000314604F1240000F051F82046BDE870401C
:10402000FFF7DEBD10B5020014D00F48806B38B129
:10403000502080F31188BFF34F8FBFF36F8FFEE7DF
:1040400000F09CF800211046FFF75EFA00F0C8FC73
:10405000002807D105494FF080500860BFF34F8F0B
:10406000BFF36F8F10BD00005800002004ED00E08A
:1040700002498A6A0260496941607047580000201D
:1040800001490120486270475800002010B50C46D5
:1040900050B1094909681831FFF7CCFE2046BDE848
:1040A00010400121FFF730BA502080F31188BFF390
:1040B0004F8FBFF36F8FFEE75800002070B5144696
:1040C0000D4668B10A4909681831FFF7CBFE0CB1FB
:1040D0004FF0FF3521462846BDE87040FFF714BA7F
:1040E000502080F31188BFF34F8FBFF36F8FFEE72F
:1040F0005800002030B587B00024039405AA04A915
:1041000003A80494FFF772FEDDE903010094CDE9F2
:104110000110002315A11748059A00F046FB164D23
:10412000002868631FD000F0BDFC012809D0401CA6
:1041300019D1502080F31188BFF34F8FBFF36F8FD9
:10414000FEE7502080F31188BFF34F8FBFF36F8FCE
:104150004FF0FF3028630120E8616C6107B0BDE8D3
:10416000304000F045B807B030BD000049444C4530
:1041700000000000A1370008580000200248816BB1
:10418000491C81637047000058000020164810B594
:10419000816B11B10121416210BD00214162816931
:1041A000124A01E0B9B1491E01EB810352F82330F4
:1041B000002BF7D001EB810302EB830202F108042C
:1041C00053685B685360A34201D15B685360DA684F
:1041D0000260816110BD502080F31188BFF34F8FC2
:1041E000BFF36F8FFEE7000058000020240400207A
:1041F0001CB5264908780190FF20087008788DF8D2
:1042000000009DF800009DF8002000F0F0009042B2
:1042100007D0502080F31188BFF34F8FBFF36F8F0B
:10422000FEE79DF800001A4B00F0500018700720C0
:10423000986005E09DF8002052008DF80020401E97
:104240009DF800201206F5D49860032807D050206E
:1042500080F31188BFF34F8FBFF36F8FFEE74FF4EA
:1042600040709860019808700A48016841F4700134
:104270000160016841F070410160FFF761FE0020BC
:104280005860FBF793FF00201CBD000000E400E035
:10429000C400002020ED00E038B5049D18B153B1F2
:1042A000CAB181B120E0502080F31188BFF34F8F55
:1042B000BFF36F8FFEE7502080F31188BFF34F8F5D
:1042C000BFF36F8FFEE7502080F31188BFF34F8F4D
:1042D000BFF36F8FFEE739B1502080F31188BFF331
:1042E0004F8FBFF36F8FFEE750241C46012384F8E5
:1042F00046302B460094FFF783FA204638BD000075
:1043000070B50D46040025D0FFF7B8FDD4E90F20A5
:10431000216802FB001161600021A1632168A16096
:104320000A46D4E90F01401E00FB0121E16021464D
:104330004FF0FF3001F8440F487004F110008DB1C8
:10434000FFF76AFD04F12400FFF766FDFFF7B6FDF5
:10435000012070BD502080F31188BFF34F8FBFF351
:104360006F8FFEE721690029F0D000F001FB0028E3
:10437000ECD004494FF080500860BFF34F8FBFF37B
:104380006F8FE3E704ED00E02DE9FF4782B01D46A3
:104390008A464FF00008040003D0BAF1000F08D09D
:1043A00011E0502080F31188BFF34F8FBFF36F8F60
:1043B000FEE7206C38B1502080F31188BFF34F8F97
:1043C000BFF36F8FFEE7022D0AD1E06B012807D003
:1043D000502080F31188BFF34F8FBFF36F8FFEE73C
:1043E00000F00EFA3F4F4FF000094FF0805648B9E9
:1043F000049838B1502080F31188BFF34F8FBFF37A
:104400006F8FFEE7FFF73AFDA06BE16B884207D3A1
:10441000022D05D00498D0B1B8F1000F1AD01EE0DB
:104420002A4651462046FFF744F9616A19B104F162
:10443000240000F09DFA20B13E60BFF34F8FBFF320
:104440006F8FFFF73BFD012006B0BDE8F087FFF757
:1044500035FD22E06846FFF70BFE4FF00108FFF73D
:104460002DFDFFF78BFEFFF709FD94F94400401C7A
:1044700001D184F8449094F94500401C01D184F89E
:104480004590FFF71BFD04A9684600F027F930B1FD
:104490002046FFF7A5FB00F0A3FA0020D4E7FFF7C2
:1044A000EDFCA06BE16B884213D1FFF707FD04F12F
:1044B00010000499FFF7EAFD2046FFF791FB00F09A
:1044C0008FFA00289ED13E60BFF34F8FBFF36F8FEE
:1044D00098E7FFF7F3FC2046FFF782FB00F080FA35
:1044E00090E7000004ED00E02DE9F0471F469046FC
:1044F0008946040003D0B9F1000F08D011E0502024
:1045000080F31188BFF34F8FBFF36F8FFEE7206CEE
:1045100038B1502080F31188BFF34F8FBFF36F8FF6
:10452000FEE7022F0AD1E06B012807D0502080F36C
:104530001188BFF34F8FBFF36F8FFEE7FFF712FDB8
:104540005020EFF3118680F31188BFF34F8FBFF334
:104550006F8FA06BE16B884206D3022F04D000203E
:1045600086F31188BDE8F08794F945503A464946EC
:104570002046FFF79EF8681C04D06D1C84F8455057
:104580000120EDE7606A0028FAD004F1240000F071
:10459000EFF90028F4D0B8F1000FF1D00121C8F8EC
:1045A0000010EDE72DE9F747002683B08A460400A6
:1045B00003D0BAF1000F08D011E0502080F3118829
:1045C000BFF34F8FBFF36F8FFEE7206C38B15020E1
:1045D00080F31188BFF34F8FBFF36F8FFEE700F0BA
:1045E0000FF9DFF8F4804FF000094FF0805748B919
:1045F000059838B1502080F31188BFF34F8FBFF377
:104600006F8FFEE7FFF73AFCA56BC5B15146204618
:10461000FFF73CF86D1EA563206950B104F110004E
:1046200000F0A6F928B1C8F80070BFF34F8FBFF3B0
:104630006F8FFFF743FC012006B0BDE8F0870598B7
:1046400008B11EB106E0FFF739FC27E06846FFF726
:104650000FFD0126FFF732FCFFF790FDFFF70EFC80
:1046600094F94400401C01D184F8449094F9450029
:10467000401C01D184F84590FFF720FC05A968464D
:1046800000F02CF8002820460AD0FFF7A9FA00F025
:10469000A7F92046FFF756F90028B3D00020CBE752
:1046A000FFF750F990B104F124000599FFF7EEFCF3
:1046B0002046FFF795FA00F093F90028A2D1C8F838
:1046C0000070BFF34F8FBFF36F8F9BE72046FFF75C
:1046D00087FA00F085F995E704ED00E02DE9F04157
:1046E0000C46050011D0C4B1FFF7C8FB174B5A693F
:1046F0006E682068911B471C17D02F689B6A9F42E9
:1047000019D0964217D8012410E0502080F3118868
:10471000BFF34F8FBFF36F8FFEE7502080F31188F8
:10472000BFF34F8FBFF36F8FFEE70024FFF7C6FB89
:104730002046BDE8F081884205D9401A206028460D
:10474000FFF796FCF1E700202060DCE7580000202E
:104750002DE9FF5F8346DDE90E87994616468A46B6
:104760009000FFF773FA05001CD05C20FFF76EFA8B
:10477000040014D00020256384F85900CDE90240DC
:10478000CDE900874B46324651465846FFF749F877
:104790002046FEF7E7FE012004B0BDE8F09F284662
:1047A000FFF7A0FB4FF0FF30F6E7F0B585B0DDE98D
:1047B0000B640A9DA6B1DCB15C2700972663022634
:1047C00084F85960002604AFCDE90246CDE90057D0
:1047D000FFF727F82046FEF7C5FE049805B0F0BDA8
:1047E000502080F31188BFF34F8FBFF36F8FFEE728
:1047F000502080F31188BFF34F8FBFF36F8FFEE718
:104800000548C16919B1806B18B1002070470120BB
:10481000704702207047000058000020014840699E
:1048200070470000580000202DE9F0412E4C002771
:10483000A06B40B1206A401C2062606A00B1012771
:104840003846BDE8F0816669761C666113D1606800
:10485000006838B1502080F31188BFF34F8FBFF349
:104860006F8FFEE76068A1686160A060A06A401C6D
:10487000A062FFF735F9206BDFF87080864209D31C
:104880006068006880B16068C068C5686868864212
:104890000DD220632068C06A00EB800158F8210027
:1048A0000128CAD90127C8E74FF0FF30F1E7281DDA
:1048B000FFF788FAA86A18B105F11800FFF782FA25
:1048C000E86AA169884200D9A06100EB800108EB89
:1048D0008100291DFFF7C6FAE86A2168C96A884283
:1048E000CED30127CCE7000058000020240400208C
:1048F00070B504004FF0000133D01B4D286884428E
:1049000007D0502080F31188BFF34F8FBFF36F8F14
:10491000FEE7206D38B1401E2065E36CE26A9A42E2
:104920001FD040B11DE0502080F31188BFF34F8F9E
:10493000BFF36F8FFEE7201DFFF744FAE06CE062E3
:10494000C0F13800A061E06AA969884200D9A86175
:10495000064900EB800001EB8000211DFFF782FA81
:104960000121084670BD00005800002024040020EA
:1049700070B5C068C46854B104F118000646FFF76A
:1049800021FA144DA86B50B13146134815E0502060
:1049900080F31188BFF34F8FBFF36F8FFEE7201DA9
:1049A000FFF710FAE06AA969884200D9A8610B49AB
:1049B00000EB800001EB8000211DFFF753FAE06A55
:1049C0002968C96A884202D90120686270BD002046
:1049D00070BD000058000020AC0800202404002016
:1049E0002DE9F0472C4D00242746A86B38B1FFF77E
:1049F00045FAA86B401EA863A86B40B146E0502062
:104A000080F31188BFF34F8FBFF36F8FFEE72969E3
:104A1000224E0120D1B3A6F5916980463068E0B1FD
:104A2000F068C46804F11800FFF7CCF9201DFFF707
:104A3000C9F9E06AA969884200D9A86100EB800140
:104A400009EB8100211DFFF70DFAE06A2968C96AA8
:104A50008842E3D3C5F82480E0E70CB1FFF740F8C3
:104A60002C6A4CB14FEA0806FFF7DEFE00B16E6219
:104A7000641EF9D100202862686A38B1084901270C
:104A800038070860BFF34F8FBFF36F8FFFF716FA39
:104A90003846BDE8F087000058000020AC08002030
:104AA00004ED00E010B586B0FEF7C4FD114CA0681F
:104AB000B8B100200390049005AA04A903A8FFF749
:104AC0009FF9DDE9032102208DE8070000230AA1F8
:104AD0000B48059AFFF769FEE06010B106B00120AF
:104AE00010BD502080F31188BFF34F8FBFF36F8F3D
:104AF000FEE7000094000020546D7220537663009E
:104B0000BD3B00082DE9FF411E46134602000A9DE9
:104B10004FF0000016D0144CA768002F0FD0CDE93D
:104B200000130292062917DAFFF76AFE02284FF0F7
:104B300000030FD000226946A068FFF725FC04B0EF
:104B4000BDE8F081502080F31188BFF34F8FBFF391
:104B50006F8FFEE72A46EEE7002332466946384665
:104B6000FFF7C2FCEBE700009400002021F00042B8
:104B7000A2F16052B2F5801F01F0004328BFD2F1CC
:104B80007F6C0BD95FEA001C43EAC20242EB507013
:104B900018BF704728BF20F001007047B2F5801F92
:104BA000BCBF184670474FEA410C1CF5001F02D2EB
:104BB000084600F092BC70B500F0A2F90000008930
:104BC000FFF7F6BF4FF00040A0F5800070470000EF
:104BD00010B591EA030F48BF83F0004300F1EC8168
:104BE000841A71EB030C05D2121943EB0C03001B62
:104BF00061EB0C01DFF824E14FEA1154A4EB135CE4
:104C00001EEA430F18BF9EEA445F73D023EA0E03E7
:104C1000DCF1200E21EA045143F4801332D322FA4E
:104C20000CFE10EB0E0023FA0CFE41EB0E01CCF152
:104C3000200E03FA0EFE10EB0E0051F10001B1F54B
:104C4000801FCCF1200E32D201EB045112FA0EF289
:104C5000BDE8104058BF7047401C38BF5FEA4202B1
:104C600018BF7047002814BF20F0010041F1000177
:104C70004FEA410313F5001F38BF7047A1F1C0414F
:104C800000F08CB9012A43EB0302ACF1200CDCF1FB
:104C90001F0E32BF4FF0000E23FA0CF310EB03008F
:104CA00041EB0451B4EB115FD0D0A1EB045101F5FD
:104CB000801149085FEA300001EB04510ED350F136
:104CC000000038BF12FA0EFE08D1BDE81040C9E757
:104CD000401C38BF5FEA4202CAD1C3E7BDE81040BA
:104CE0004FEA410313F5001F38BF7047A1F1C041DF
:104CF00000F054B99EEA445F08D011EA5E0FBDE8A7
:104D0000104004BF01F0004100207047BDE8104092
:104D100070B500F0F5F800BF64FBBE3E0000E0FF98
:104D20004FEA41034FEA5353A3F58063D3F11E03C7
:104D3000C8BFD3F1210C0CDD4FF0004242EAC12282
:104D400042EA505232FA03FC8CEAE17CACEBE170AF
:104D50007047102BC4BF0020704703F5787CBCF16E
:104D6000FF3F04D06FF0004282EA2100704770B527
:104D700000F0C6F84992248000207047F2E710F056
:104D8000004248BF4042B0FA80F310FA03F10AD063
:104D9000C3F11D0303F580634FEA415002EB035258
:104DA00002EBD12170474FF000007047DFF848C197
:104DB00070B51CEA111E1EBF1CEA13159EEA0C0FEB
:104DC00095EA0C0F00F06F8081EA030423EA4C138C
:104DD0004EEAD47E21EA4C1141F4801143F4801351
:104DE000AE44A1FB024CA0FB0365AEF17F7E3619F9
:104DF00055EB0C05A1FB034C4CF10003A0FB021C7E
:104E000016EB0C06654153F10003094218BF46F04A
:104E1000010613F4007F0BD14FEA03314FEA05304E
:104E2000340341EA155140EA16506FF003020AE0DC
:104E30004FEAC3214FEAC520F40241EA555140EA46
:104E400056506FF0020202EB2E4201EB025585EA4A
:104E5000CE710AD05FEA440C18BF24F0004450F130
:104E6000000041F1000120EAD47040F2FE7C62456E
:104E700000D270BDA84214BF4FF080444FF04044B0
:104E8000002E08BF0024BEF1806FA8BFA1F1C04171
:104E9000BDE8704080F282804FF0000001F1C04117
:104EA00001F0004170479EEA0C0F0CEA131518BF81
:104EB00095EA0C0F06D04FF0000081EA030E0EF0C9
:104EC000004170BD00F01CF88900013E00F007B8F9
:104ED00000F009B84FEA430C5FEA5C5C08D081EA55
:104EE000030100F05BB84FEA410C5FEA5C5CF6D16D
:104EF0004FF00000014970470000FF070000F87FF5
:104F00000EF1020E2EF0030E5EF8046B364205D44D
:104F1000012A43EB030515F5001F12D8012841EBC8
:104F2000010C1CF5001F0CD80ED14FEAD17C15F5F1
:104F3000001F0CEB4C0C0CF1020C08BF4CEBD37CAB
:104F400004E04FF0080C01E04FEAD37C0CEB4C0579
:104F500026FA05F606F00706B6F1040C06D20EEBAB
:104F6000860CBDE870404CF0010C6047DFE80CF0A7
:104F7000090B02024FF000414FF00000A1F50021A3
:104F800070BD19461046012851EB010418BFD4F535
:104F9000001484BF002001F0004170BD0808A0F596
:104FA00000114FEA3101704710B591EA030F48BF75
:104FB00083F000433FF514AE841A71EB030C07D263
:104FC00012198CF0004C43EB0C03001B61EB0C013D
:104FD000DFF8A4E14FEA1154A4EB135C1EEA430F7F
:104FE00018BF9EEA445F00F0B08023EA6E0352428D
:104FF00021EA0451C3EB6E0338BF5B1EDCF1200EC7
:1050000025D322FA0CFE10EB0E0043FA0CFE41EB06
:105010000E01CCF1200E03FA0EFE10EB0E0051F142
:105020000001CCF1200E29D412FA0EF201EB04514A
:10503000BDE8104058BF7047401C1CBFB2F1004F84
:10504000704700280CBF491C20F00100704712EB8C
:10505000020E43EB030218BF4FF0010E4EEA42026C
:10506000ACF1200CDCF11E0E54D943FA0CFE10EB0F
:105070000E0051F1FF31CCF11E0ED5D50EF1010E0F
:1050800012FA0EFE404141EB010101EB445C5FEA84
:105090005C5C10D910EBDE7001EB045138BFBEF13F
:1050A000004FBDE8104018BF704700280CBF491CD6
:1050B00020F00100704730D24FEAD42C11F50011D6
:1050C00024F400641BD0B1FA81F20B3AA41AA41E96
:1050D000D2F12003914030FA03F31943904001EBE1
:1050E000CC71002C01EB0451BDE81040A8BF704703
:1050F00001F1C0414FF0000001F000417047B0FAEB
:1051000080F310FA03F100D110BDE41A173C4805F2
:10511000C90AE4E701EB045110BD491001EB045149
:10512000BDE810404FEA300002E04FF00001704748
:105130004A0008BF0042F8D0B2F5001F28BF7047F0
:1051400001F000414FF0000070479EEA445F07D035
:1051500011EA5E0FBDE8104004BF00210020704737
:10516000BDE8104070B5FFF7CBFE00BF40DFF63E54
:1051700083F00041104670470000E0FF43004FEA13
:10518000D30C4FEA3C0C43401FBF40070CF1605169
:1051900013F0FE4F70471CF0006F03D100200CF09D
:1051A000004170470CF0004343EA507010B540EAEC
:1051B000CC0000F04CF900BF000000924FEA000163
:1051C000FFF7ECBE4FF000414FF00000A1F50021C9
:1051D0007047000090EA010F48BF81F0004100F1E4
:1051E0008881421A3CBF801A89184FEAD0524FF08A
:1051F0007F4C1CEA410FA2EBD15318BF9CEA026F0F
:1052000000F03B804FF0004C4CEA00204CEA0121BA
:1052100021FA03FC10EB0C0C1ED202F1FF325FEA04
:105220001C2040EBC25038BF70471CF07F0F4FEA84
:10523000400C18BFBCF17F4F38BF7047C3F120034B
:10524000994008BF20F00100BCF17F4F38BF704784
:10525000A0F1C04000F041B94FEA3C00000A40EB29
:10526000C25028BF1CF0FF0F4FEA400CE6D018BF19
:10527000BCF17F4F38BF7047EAE79CEA026F05D068
:1052800010EA5C0F08BF00F00040704710B500F056
:10529000DEF800BF64FBBE3E014800F098B900BFD5
:1052A0000000C07F41000B0ED3F19E0208D950F4DC
:1052B00000034FEA032323FA02F048BF404270473D
:1052C00010B500F0C4F800BF499224800020704758
:1052D0006FF0004282EA200070470000C10DD1F15A
:1052E0009E0206DB4FEA002343F0004323FA02F05C
:1052F0007047004207D54FEA4001B1F1FE4F02D29C
:105300004FF00000704710B500F0A1F849922480DA
:10531000002070476FEA20007047000010F0004145
:1053200048BF4042B0FA80F310FA03F2C3F19D0384
:105330000BD051EAC35101EB1220530638BF70471E
:1053400000F1010008BF20F0010070474FF47F0C0E
:105350001CEAD0121EBF1CEAD11392EA0C0F93EA8A
:105360000C0F00F0478090EA010F48BF42F48072B2
:105370004FF0004C4CEA00204CEA012102EB030202
:10538000A0FB0113A2F50002002918BF43F001039E
:105390005B0028BF4FEA330342EB22425FEA132C43
:1053A0004CEBC2502EBFBCEB436FB2F57C0F704785
:1053B0004FEA036CBCF1004F08BF20F00100B2F5CA
:1053C0007C0F38BF70470BD582F0FF0212F5803F8B
:1053D000C8BF704700F1C040D8BF00F00040704720
:1053E00000F5000C5FEA4C0C48BF7047B0F1C040BC
:1053F00000F073B890EA010F0CEAD11348BF42F4F1
:105400008072624538BF634504D280EA010000F033
:105410000040704710B500F01AF800BF8900013E47
:1054200000F007B800F009B85FEA410C5FEA1C6CB5
:1054300008D080EA010000F050B85FEA400C5FEA53
:105440001C6CF6D14FF00040A0F5800070470EF1C3
:10545000020E2EF0030E5EF8044B244204D44FEAF1
:105460004102B2F17F4F11D84FEA4003B3F17F4FB1
:105470000CD80ED14FEAD07CB2F17F4F0CEB4C0C24
:105480000CF1020C08BF4CEBD17C04E04FF0080C8F
:1054900001E04FEAD17C0CEB4C0324FA03F404F056
:1054A0000704B4F1040C06D20EEB840CBDE81040E6
:1054B0004CF0010C6047DFE80CF0070802024FF0E7
:1054C0000040A0F5800010BD0846420018BFD2F190
:1054D000807288BF00F0004010BDFF2141EAD0502B
:1054E000C005704790EA010F48BF81F000413FF5C9
:1054F00078AE421A04D882F00042A0EB02001144B8
:105500004FEAD0524FF07F4C1CEA410FA2EBD1532F
:1055100018BF9CEA026F4AD04FF0004C4CEA0020C2
:105520004CEA012121FA03FCB0EB0C0C0FD412F071
:10553000FE0F36D05FEA4C001DD5001240EBC25082
:1055400038BF70471CF03F0F18BF70470BE0A2F147
:1055500001025FEA1C2040EBC25038BF70471CF0CC
:105560007F0F18BF7047C3F12003994014BF401E3E
:1055700020F00100704780084FEA122308BF7047EF
:10558000B0FA80FCA2EB0C02CCF1280C60FA0CF013
:1055900093EA122F04BF00EBC25070474FEAC3706A
:1055A0007047130A5FEADC1008BF7047F6E79CEA11
:1055B000026F04D010EA5C0F08BF0020704710B5DE
:1055C000FFF745FF40DFF63E81F0004070470CF0EA
:1055D0000F03092B08BF082000F051800A2B0BD0C5
:1055E000082B18BF704708BF1CF0400F0AD04FF0BF
:1055F00000004FF0000170471CF0400F18BF4FF043
:10560000004070471CF0100F08D020F0704300F0ED
:105610007F4242EAD3014FEA4370704700F0604096
:1056200021F07F4242EA000201F07F4040EA7270BE
:1056300070474FF0FF0212EAD0521CBF92F0FF03F6
:105640008B42C2BFD14200EBC1507047002A0AD042
:10565000002B0BD0002900F00040A4BF40F0FE401A
:1056600040F40000704700F00040704743024FF0E4
:105670000B0C18BF4CF0806C7FF40EAE70471CF41E
:10568000801F11D01CF4E02F03D06FEACC31490009
:1056900070474FF04050EFF3008222F0704242EA30
:1056A000000282F3008870474FF00000704700004E
:1056B0007457000800000000000000000000000017
:1056C00000000000000200001800000000000000C0
:1056D000000000008C5700080000000000000000DF
:1056E0000000000000000000000200002800000090
:1056F00000000000000000009C57000800000000AF
:105700000000000000000000000000000002000097
:10571000200000000000000000000000805700088A
:105720000000000000000000000000000000000079
:10573000000200002900000000000000000000003E
:10574000010202030405060708090A0B0C0D0E0FDF
:105750001010000000000000000001020304060712
:105760000809000000000102030434431010013452
:105770004310100164656661756C745461736B004D
:105780006D6F746F725F6374726C00005365727634
:105790006F5F756172745F6374726C00636F6E6EBD
:1057A0006563745F41757800C857000800000020E9
:1057B000D00000002801000898580008D000002000
:1057C0004822000044010008000000000000000022
:1057D00000000000000000000000000000000000C9
:1057E00000000000010000001000000000000000A8
:1057F0000024F40000000000000000000000000091
:105800000000003F0000803F00000000000000009A
:105810000000000000000000000000000000000088
:105820000000000000000000000000000000000078
:105830000000000000000000000000000000000068
:105840000000000000000000000000000000000058
:105850000000000000000000000000000000000048
:105860000000000000000000000000000000000038
:105870000000000000000000000000000000000028
:105880000000000000000000000000000000000018
:08589000AAAAAAAA0000000068
:04000005080000ED02
:00000001FF
